{
  "contractName": "AMM",
  "abi": [
    {
      "inputs": [
        {
          "internalType": "address",
          "name": "_aToken",
          "type": "address"
        },
        {
          "internalType": "address",
          "name": "_bToken",
          "type": "address"
        },
        {
          "internalType": "address",
          "name": "_yToken",
          "type": "address"
        },
        {
          "internalType": "int256",
          "name": "sigma",
          "type": "int256"
        },
        {
          "internalType": "int256",
          "name": "eta",
          "type": "int256"
        },
        {
          "internalType": "int256",
          "name": "mme",
          "type": "int256"
        }
      ],
      "stateMutability": "nonpayable",
      "type": "constructor"
    },
    {
      "anonymous": false,
      "inputs": [
        {
          "indexed": true,
          "internalType": "address",
          "name": "owner",
          "type": "address"
        },
        {
          "indexed": true,
          "internalType": "address",
          "name": "spender",
          "type": "address"
        },
        {
          "indexed": false,
          "internalType": "uint256",
          "name": "value",
          "type": "uint256"
        }
      ],
      "name": "Approval",
      "type": "event"
    },
    {
      "anonymous": false,
      "inputs": [
        {
          "indexed": false,
          "internalType": "uint256",
          "name": "aAmount",
          "type": "uint256"
        },
        {
          "indexed": false,
          "internalType": "uint256",
          "name": "bAmount",
          "type": "uint256"
        },
        {
          "indexed": false,
          "internalType": "uint256",
          "name": "yAmount",
          "type": "uint256"
        },
        {
          "indexed": false,
          "internalType": "int256",
          "name": "mu",
          "type": "int256"
        }
      ],
      "name": "Deposit",
      "type": "event"
    },
    {
      "anonymous": false,
      "inputs": [
        {
          "indexed": false,
          "internalType": "uint256",
          "name": "amountIn",
          "type": "uint256"
        },
        {
          "indexed": false,
          "internalType": "uint256",
          "name": "amountOut",
          "type": "uint256"
        },
        {
          "indexed": false,
          "internalType": "address",
          "name": "tokenIn",
          "type": "address"
        },
        {
          "indexed": false,
          "internalType": "address",
          "name": "tokenOut",
          "type": "address"
        },
        {
          "indexed": true,
          "internalType": "address",
          "name": "sender",
          "type": "address"
        }
      ],
      "name": "Swap",
      "type": "event"
    },
    {
      "anonymous": false,
      "inputs": [
        {
          "indexed": true,
          "internalType": "address",
          "name": "from",
          "type": "address"
        },
        {
          "indexed": true,
          "internalType": "address",
          "name": "to",
          "type": "address"
        },
        {
          "indexed": false,
          "internalType": "uint256",
          "name": "value",
          "type": "uint256"
        }
      ],
      "name": "Transfer",
      "type": "event"
    },
    {
      "anonymous": false,
      "inputs": [
        {
          "indexed": false,
          "internalType": "uint256",
          "name": "aAmount",
          "type": "uint256"
        },
        {
          "indexed": false,
          "internalType": "uint256",
          "name": "bAmount",
          "type": "uint256"
        },
        {
          "indexed": false,
          "internalType": "uint256",
          "name": "yAmount",
          "type": "uint256"
        },
        {
          "indexed": false,
          "internalType": "int256",
          "name": "mu",
          "type": "int256"
        }
      ],
      "name": "Withdraw",
      "type": "event"
    },
    {
      "inputs": [],
      "name": "aTokenAddress",
      "outputs": [
        {
          "internalType": "address",
          "name": "",
          "type": "address"
        }
      ],
      "stateMutability": "view",
      "type": "function",
      "constant": true
    },
    {
      "inputs": [
        {
          "internalType": "address",
          "name": "owner",
          "type": "address"
        },
        {
          "internalType": "address",
          "name": "spender",
          "type": "address"
        }
      ],
      "name": "allowance",
      "outputs": [
        {
          "internalType": "uint256",
          "name": "",
          "type": "uint256"
        }
      ],
      "stateMutability": "view",
      "type": "function",
      "constant": true
    },
    {
      "inputs": [
        {
          "internalType": "address",
          "name": "",
          "type": "address"
        }
      ],
      "name": "amounts",
      "outputs": [
        {
          "internalType": "int256",
          "name": "",
          "type": "int256"
        }
      ],
      "stateMutability": "view",
      "type": "function",
      "constant": true
    },
    {
      "inputs": [
        {
          "internalType": "address",
          "name": "spender",
          "type": "address"
        },
        {
          "internalType": "uint256",
          "name": "amount",
          "type": "uint256"
        }
      ],
      "name": "approve",
      "outputs": [
        {
          "internalType": "bool",
          "name": "",
          "type": "bool"
        }
      ],
      "stateMutability": "nonpayable",
      "type": "function"
    },
    {
      "inputs": [],
      "name": "bTokenAddress",
      "outputs": [
        {
          "internalType": "address",
          "name": "",
          "type": "address"
        }
      ],
      "stateMutability": "view",
      "type": "function",
      "constant": true
    },
    {
      "inputs": [
        {
          "internalType": "address",
          "name": "account",
          "type": "address"
        }
      ],
      "name": "balanceOf",
      "outputs": [
        {
          "internalType": "uint256",
          "name": "",
          "type": "uint256"
        }
      ],
      "stateMutability": "view",
      "type": "function",
      "constant": true
    },
    {
      "inputs": [],
      "name": "decimals",
      "outputs": [
        {
          "internalType": "uint8",
          "name": "",
          "type": "uint8"
        }
      ],
      "stateMutability": "view",
      "type": "function",
      "constant": true
    },
    {
      "inputs": [
        {
          "internalType": "address",
          "name": "spender",
          "type": "address"
        },
        {
          "internalType": "uint256",
          "name": "subtractedValue",
          "type": "uint256"
        }
      ],
      "name": "decreaseAllowance",
      "outputs": [
        {
          "internalType": "bool",
          "name": "",
          "type": "bool"
        }
      ],
      "stateMutability": "nonpayable",
      "type": "function"
    },
    {
      "inputs": [
        {
          "internalType": "address",
          "name": "spender",
          "type": "address"
        },
        {
          "internalType": "uint256",
          "name": "addedValue",
          "type": "uint256"
        }
      ],
      "name": "increaseAllowance",
      "outputs": [
        {
          "internalType": "bool",
          "name": "",
          "type": "bool"
        }
      ],
      "stateMutability": "nonpayable",
      "type": "function"
    },
    {
      "inputs": [],
      "name": "name",
      "outputs": [
        {
          "internalType": "string",
          "name": "",
          "type": "string"
        }
      ],
      "stateMutability": "view",
      "type": "function",
      "constant": true
    },
    {
      "inputs": [],
      "name": "precision",
      "outputs": [
        {
          "internalType": "int256",
          "name": "",
          "type": "int256"
        }
      ],
      "stateMutability": "view",
      "type": "function",
      "constant": true
    },
    {
      "inputs": [],
      "name": "symbol",
      "outputs": [
        {
          "internalType": "string",
          "name": "",
          "type": "string"
        }
      ],
      "stateMutability": "view",
      "type": "function",
      "constant": true
    },
    {
      "inputs": [],
      "name": "totalSupply",
      "outputs": [
        {
          "internalType": "uint256",
          "name": "",
          "type": "uint256"
        }
      ],
      "stateMutability": "view",
      "type": "function",
      "constant": true
    },
    {
      "inputs": [
        {
          "internalType": "address",
          "name": "recipient",
          "type": "address"
        },
        {
          "internalType": "uint256",
          "name": "amount",
          "type": "uint256"
        }
      ],
      "name": "transfer",
      "outputs": [
        {
          "internalType": "bool",
          "name": "",
          "type": "bool"
        }
      ],
      "stateMutability": "nonpayable",
      "type": "function"
    },
    {
      "inputs": [
        {
          "internalType": "address",
          "name": "sender",
          "type": "address"
        },
        {
          "internalType": "address",
          "name": "recipient",
          "type": "address"
        },
        {
          "internalType": "uint256",
          "name": "amount",
          "type": "uint256"
        }
      ],
      "name": "transferFrom",
      "outputs": [
        {
          "internalType": "bool",
          "name": "",
          "type": "bool"
        }
      ],
      "stateMutability": "nonpayable",
      "type": "function"
    },
    {
      "inputs": [],
      "name": "yTokenAddress",
      "outputs": [
        {
          "internalType": "address",
          "name": "",
          "type": "address"
        }
      ],
      "stateMutability": "view",
      "type": "function",
      "constant": true
    },
    {
      "inputs": [
        {
          "internalType": "address",
          "name": "token",
          "type": "address"
        },
        {
          "internalType": "uint256",
          "name": "amount",
          "type": "uint256"
        }
      ],
      "name": "getAmountsAddToken",
      "outputs": [
        {
          "internalType": "int256",
          "name": "addAmountA",
          "type": "int256"
        },
        {
          "internalType": "int256",
          "name": "addAmountB",
          "type": "int256"
        },
        {
          "internalType": "int256",
          "name": "addAmountY",
          "type": "int256"
        }
      ],
      "stateMutability": "view",
      "type": "function",
      "constant": true
    },
    {
      "inputs": [
        {
          "internalType": "address",
          "name": "tokenIn",
          "type": "address"
        },
        {
          "internalType": "address",
          "name": "tokenOut",
          "type": "address"
        }
      ],
      "name": "getPrice",
      "outputs": [
        {
          "internalType": "uint256",
          "name": "price",
          "type": "uint256"
        }
      ],
      "stateMutability": "view",
      "type": "function",
      "constant": true
    },
    {
      "inputs": [
        {
          "internalType": "int256",
          "name": "amountIn",
          "type": "int256"
        },
        {
          "internalType": "address",
          "name": "tokenIn",
          "type": "address"
        },
        {
          "internalType": "address",
          "name": "tokenOut",
          "type": "address"
        }
      ],
      "name": "getAmountOut",
      "outputs": [
        {
          "internalType": "uint256",
          "name": "amountOut",
          "type": "uint256"
        }
      ],
      "stateMutability": "view",
      "type": "function",
      "constant": true
    },
    {
      "inputs": [
        {
          "internalType": "address",
          "name": "token",
          "type": "address"
        }
      ],
      "name": "getBalance",
      "outputs": [
        {
          "internalType": "int256",
          "name": "",
          "type": "int256"
        }
      ],
      "stateMutability": "view",
      "type": "function",
      "constant": true
    },
    {
      "inputs": [
        {
          "internalType": "uint256",
          "name": "aAmount",
          "type": "uint256"
        },
        {
          "internalType": "uint256",
          "name": "bAmount",
          "type": "uint256"
        },
        {
          "internalType": "uint256",
          "name": "yAmount",
          "type": "uint256"
        }
      ],
      "name": "addLiquidity",
      "outputs": [],
      "stateMutability": "nonpayable",
      "type": "function"
    },
    {
      "inputs": [
        {
          "internalType": "uint256",
          "name": "amount",
          "type": "uint256"
        }
      ],
      "name": "removeLiquidity",
      "outputs": [],
      "stateMutability": "nonpayable",
      "type": "function"
    },
    {
      "inputs": [
        {
          "internalType": "uint256",
          "name": "amountIn",
          "type": "uint256"
        },
        {
          "internalType": "address",
          "name": "tokenIn",
          "type": "address"
        },
        {
          "internalType": "address",
          "name": "tokenOut",
          "type": "address"
        },
        {
          "internalType": "address",
          "name": "recipient",
          "type": "address"
        },
        {
          "internalType": "uint256",
          "name": "slippage",
          "type": "uint256"
        }
      ],
      "name": "swapToken",
      "outputs": [
        {
          "internalType": "uint256",
          "name": "",
          "type": "uint256"
        }
      ],
      "stateMutability": "nonpayable",
      "type": "function"
    }
  ],
  "bytecode": "0x60e06040523480156200001157600080fd5b5060405162004821380380620048218339810160408190526200003491620009b7565b604051806040016040528060088152602001672628102a37b5b2b760c11b815250604051806040016040528060038152602001624c504360e81b815250816003908051906020019062000089929190620008f4565b5080516200009f906004906020840190620008f4565b5050600580546001600160a01b03808a166001600160a01b03199283168117909355600680548a831690841617905560078054918916919092161790556001600160601b0319606089811b821660805288811b821660a05287901b1660c0526040805163313ce56760e01b8152905191925063313ce567916004808301926020929190829003018186803b1580156200013757600080fd5b505afa1580156200014c573d6000803e3d6000fd5b505050506040513d601f19601f8201168201806040525081019062000172919062000a1d565b600d60106101000a81548160ff021916908360ff160217905550846001600160a01b031663313ce5676040518163ffffffff1660e01b815260040160206040518083038186803b158015620001c657600080fd5b505afa158015620001db573d6000803e3d6000fd5b505050506040513d601f19601f8201168201806040525081019062000201919062000a1d565b600d60116101000a81548160ff021916908360ff160217905550836001600160a01b031663313ce5676040518163ffffffff1660e01b815260040160206040518083038186803b1580156200025557600080fd5b505afa1580156200026a573d6000803e3d6000fd5b505050506040513d601f19601f8201168201806040525081019062000290919062000a1d565b600d60126101000a81548160ff021916908360ff160217905550620002c3836103e86200060860201b62001af41760201c565b600860006101000a8154816001600160801b030219169083600f0b6001600160801b0316021790555062000305826103e86200060860201b62001af41760201c565b600860106101000a8154816001600160801b030219169083600f0b6001600160801b0316021790555062000347816103e86200060860201b62001af41760201c565b600d60006101000a8154816001600160801b030219169083600f0b6001600160801b03160217905550620003a36200038b6001620006ab60201b62001b871760201c565b600854600f0b620006de602090811b62001bba17901c565b600960006101000a8154816001600160801b030219169083600f0b6001600160801b0316021790555062000408620003e76001620006ab60201b62001b871760201c565b600860109054906101000a9004600f0b620006de60201b62001bba1760201c565b600960106101000a8154816001600160801b030219169083600f0b6001600160801b03160217905550620004646200044c6001620006ab60201b62001b871760201c565b600954600f0b6200071b602090811b62001bf517901c565b600a60006101000a8154816001600160801b030219169083600f0b6001600160801b03160217905550620004c9620004a86001620006ab60201b62001b871760201c565b600960109054906101000a9004600f0b6200071b60201b62001bf51760201c565b600a80546001600160801b03908116600160801b600f94850b929092168202179091556009546200050d92918104820b910b6200071b602090811b62001bf517901c565b600b80546001600160801b0319166001600160801b03600f93840b16179055600954620005539181810b91600160801b9004900b6200071b602090811b62001bf517901c565b600b80546001600160801b03908116600160801b600f94850b929092168202179091556008546200059c926200044c928204810b91900b620006de602090811b62001bba17901c565b600c8054600f92830b6001600160801b03166001600160801b03199091161790556001600160a01b039687166000908152600e602052604080822082905596881681528681208190559490961684525050509081205580546001600160a01b0319163317905562000aab565b6000816200061557600080fd5b6000808412156200062b57836000039350600190505b60008312156200063e5760009290920391155b60006200064c858562000779565b905081156200067d576001607f1b816001600160801b031611156200067057600080fd5b6000039150620006a59050565b60016001607f1b03816001600160801b031611156200069b57600080fd5b9150620006a59050565b92915050565b600060016001603f1b03198212158015620006cd575060016001603f1b038213155b620006d757600080fd5b5060401b90565b6000600f82810b9084900b0360016001607f1b031981128015906200070a575060016001607f1b038113155b6200071457600080fd5b9392505050565b600081600f0b600014156200072f57600080fd5b600082600f0b604085600f0b901b816200074d576200074d62000a95565b05905060016001607f1b031981128015906200070a575060016001607f1b038113156200071457600080fd5b6000816200078657600080fd5b60006001600160c01b038411620007b65782604085901b81620007ad57620007ad62000a95565b049050620008df565b60c084811c6401000000008110620007d0576020918201911c5b620100008110620007e3576010918201911c5b6101008110620007f5576008918201911c5b6010811062000806576004918201911c5b6004811062000817576002918201911c5b6002811062000827576001820191505b60bf820360018603901c6001018260ff0387901b816200084b576200084b62000a95565b0492506001600160801b038311156200086357600080fd5b608085901c83026001600160801b038616840260c088901c604089901b8281101562000890576001820391505b608084901b92900382811015620008a8576001820391505b829003608084901c8214620008c157620008c162000a7f565b888181620008d357620008d362000a95565b04870196505050505050505b6001600160801b038111156200071457600080fd5b828054620009029062000a42565b90600052602060002090601f01602090048101928262000926576000855562000971565b82601f106200094157805160ff191683800117855562000971565b8280016001018555821562000971579182015b828111156200097157825182559160200191906001019062000954565b506200097f92915062000983565b5090565b5b808211156200097f576000815560010162000984565b80516001600160a01b0381168114620009b257600080fd5b919050565b60008060008060008060c08789031215620009d157600080fd5b620009dc876200099a565b9550620009ec602088016200099a565b9450620009fc604088016200099a565b9350606087015192506080870151915060a087015190509295509295509295565b60006020828403121562000a3057600080fd5b815160ff811681146200071457600080fd5b600181811c9082168062000a5757607f821691505b6020821081141562000a7957634e487b7160e01b600052602260045260246000fd5b50919050565b634e487b7160e01b600052600160045260246000fd5b634e487b7160e01b600052601260045260246000fd5b60805160601c60a05160601c60c05160601c613d2862000af960003960008181610d800152611109015260008181610c870152611066015260008181610b8e0152610fc30152613d286000f3fe608060405234801561001057600080fd5b506004361061014d5760003560e01c806370a08231116100c3578063d3b5dc3b1161007c578063d3b5dc3b146102f8578063dcfc0ced14610301578063dd62ed3e14610314578063e3f3a0d31461034d578063e5b3504d14610360578063f8b2cb4f1461037357600080fd5b806370a082311461027b57806395d89b41146102a45780639c8f9f23146102ac578063a457c2d7146102bf578063a9059cbb146102d2578063ac41865a146102e557600080fd5b806323b872dd1161011557806323b872dd146101fe5780632ad4db2914610211578063313ce567146102245780633950935114610233578063422f10431461024657806355a3b2c11461025b57600080fd5b806306fdde0314610152578063095ea7b3146101705780630ddd2e65146101935780630eeadf07146101be57806318160ddd146101ec575b600080fd5b61015a61039c565b6040516101679190613990565b60405180910390f35b61018361017e36600461381e565b61042e565b6040519015158152602001610167565b6006546101a6906001600160a01b031681565b6040516001600160a01b039091168152602001610167565b6101d16101cc36600461381e565b610445565b60408051938452602084019290925290820152606001610167565b6002545b604051908152602001610167565b61018361020c3660046137e2565b6104fc565b6101f061021f3660046138cf565b6105ab565b60405160128152602001610167565b61018361024136600461381e565b610a27565b610259610254366004613924565b610a63565b005b6101f0610269366004613794565b600e6020526000908152604090205481565b6101f0610289366004613794565b6001600160a01b031660009081526020819052604090205490565b61015a6112e6565b6102596102ba36600461389d565b6112f5565b6101836102cd36600461381e565b611540565b6101836102e036600461381e565b6115d9565b6101f06102f33660046137af565b6115e6565b6101f06103e881565b6005546101a6906001600160a01b031681565b6101f06103223660046137af565b6001600160a01b03918216600090815260016020908152604080832093909416825291909152205490565b6007546101a6906001600160a01b031681565b6101f061036e36600461386a565b61172f565b6101f0610381366004613794565b6001600160a01b03166000908152600e602052604090205490565b6060600380546103ab90613c75565b80601f01602080910402602001604051908101604052809291908181526020018280546103d790613c75565b80156104245780601f106103f957610100808354040283529160200191610424565b820191906000526020600020905b81548152906001019060200180831161040757829003601f168201915b5050505050905090565b600061043b338484611c4d565b5060015b92915050565b6005546001600160a01b039081166000908152600e60205260408082205492851682528120549091829182916104859161047f9190611af4565b85611d72565b6006546001600160a01b039081166000908152600e60205260408082205492891682529020549194506104bc9161047f9190611af4565b6007546001600160a01b039081166000908152600e60205260408082205492891682529020549193506104f39161047f9190611af4565b90509250925092565b6000610509848484611e1e565b6001600160a01b0384166000908152600160209081526040808320338452909152902054828110156105935760405162461bcd60e51b815260206004820152602860248201527f45524332303a207472616e7366657220616d6f756e74206578636565647320616044820152676c6c6f77616e636560c01b60648201526084015b60405180910390fd5b6105a08533858403611c4d565b506001949350505050565b6000806105b886866115e6565b90506000871161060a5760405162461bcd60e51b815260206004820152601960248201527f494e53554646494349454e545f494e5055545f414d4f554e5400000000000000604482015260640161058a565b604051636eb1769f60e11b8152336004820152306024820152869088906001600160a01b0383169063dd62ed3e9060440160206040518083038186803b15801561065357600080fd5b505afa158015610667573d6000803e3d6000fd5b505050506040513d601f19601f8201168201806040525081019061068b91906138b6565b10156106d95760405162461bcd60e51b815260206004820152601b60248201527f494e53554646494349454e545f415050524f56455f414d4f554e540000000000604482015260640161058a565b60006106e689898961172f565b90506000896106fd83670de0b6b3a7640000613bb1565b6107079190613a1c565b905061071f848261071a896103e8611fee565b612025565b61076b5760405162461bcd60e51b815260206004820152601960248201527f4e4f545f454e4f5547485f534c4950504147455f4c4556454c00000000000000604482015260640161058a565b6001600160a01b0388166000908152600e602052604090205482126107d25760405162461bcd60e51b815260206004820152601a60248201527f494e53554646494349454e545f4f55545055545f414d4f554e54000000000000604482015260640161058a565b6040516323b872dd60e01b81526001600160a01b038416906323b872dd9061080290339030908f9060040161396c565b602060405180830381600087803b15801561081c57600080fd5b505af1158015610830573d6000803e3d6000fd5b505050506040513d601f19601f820116820180604052508101906108549190613848565b506001600160a01b0389166000908152600e6020526040812080548c929061087d9084906139c3565b90915550506001600160a01b0387166109165760405163a9059cbb60e01b8152336004820152602481018390526001600160a01b0389169063a9059cbb90604401602060405180830381600087803b1580156108d857600080fd5b505af11580156108ec573d6000803e3d6000fd5b505050506040513d601f19601f820116820180604052508101906109109190613848565b5061099a565b60405163a9059cbb60e01b81526001600160a01b0388811660048301526024820184905289169063a9059cbb90604401602060405180830381600087803b15801561096057600080fd5b505af1158015610974573d6000803e3d6000fd5b505050506040513d601f19601f820116820180604052508101906109989190613848565b505b6001600160a01b0388166000908152600e6020526040812080548492906109c2908490613bd0565b9091555050604080518b8152602081018490526001600160a01b038b8116828401528a166060820152905133917f4bef092c4d89156b79870894531231803501f7105bf07ea9f24304c70460cc3c919081900360800190a25098975050505050505050565b3360008181526001602090815260408083206001600160a01b0387168452909152812054909161043b918590610a5e908690613a04565b611c4d565b60008311610abd5760405162461bcd60e51b815260206004820152602160248201527f494e53554646494349454e545f494e5055545f414d4f554e545f544f4b454e5f6044820152604160f81b606482015260840161058a565b60008211610b175760405162461bcd60e51b815260206004820152602160248201527f494e53554646494349454e545f494e5055545f414d4f554e545f544f4b454e5f6044820152602160f91b606482015260840161058a565b60008111610b715760405162461bcd60e51b815260206004820152602160248201527f494e53554646494349454e545f494e5055545f414d4f554e545f544f4b454e5f6044820152605960f81b606482015260840161058a565b604051636eb1769f60e11b815233600482015230602482015283907f00000000000000000000000000000000000000000000000000000000000000006001600160a01b03169063dd62ed3e9060440160206040518083038186803b158015610bd857600080fd5b505afa158015610bec573d6000803e3d6000fd5b505050506040513d601f19601f82011682018060405250810190610c1091906138b6565b1015610c6a5760405162461bcd60e51b815260206004820152602360248201527f494e53554646494349454e545f415050524f56455f414d4f554e545f544f4b456044820152624e5f4160e81b606482015260840161058a565b604051636eb1769f60e11b815233600482015230602482015282907f00000000000000000000000000000000000000000000000000000000000000006001600160a01b03169063dd62ed3e9060440160206040518083038186803b158015610cd157600080fd5b505afa158015610ce5573d6000803e3d6000fd5b505050506040513d601f19601f82011682018060405250810190610d0991906138b6565b1015610d635760405162461bcd60e51b815260206004820152602360248201527f494e53554646494349454e545f415050524f56455f414d4f554e545f544f4b45604482015262272fa160e91b606482015260840161058a565b604051636eb1769f60e11b815233600482015230602482015281907f00000000000000000000000000000000000000000000000000000000000000006001600160a01b03169063dd62ed3e9060440160206040518083038186803b158015610dca57600080fd5b505afa158015610dde573d6000803e3d6000fd5b505050506040513d601f19601f82011682018060405250810190610e0291906138b6565b1015610e5c5760405162461bcd60e51b815260206004820152602360248201527f494e53554646494349454e545f415050524f56455f414d4f554e545f544f4b456044820152624e5f5960e81b606482015260840161058a565b600f546001600160a01b03163314610fac576005546001600160a01b03166000908152600e6020526040812054138015610eae57506006546001600160a01b03166000908152600e6020526040812054135b8015610ed257506007546001600160a01b03166000908152600e6020526040812054135b610f1e5760405162461bcd60e51b815260206004820152601d60248201527f494e53554646494349454e545f4c49515549444954595f414d4f554e54000000604482015260640161058a565b6007546000908190610f39906001600160a01b031684610445565b50600d549193509150610f529083908790600f0b612025565b8015610f6c5750600d54610f6c9082908690600f0b612025565b610fa95760405162461bcd60e51b815260206004820152600e60248201526d4d49534d415443485f524154494f60901b604482015260640161058a565b50505b6040516323b872dd60e01b81526001600160a01b037f000000000000000000000000000000000000000000000000000000000000000016906323b872dd90610ffc9033903090889060040161396c565b602060405180830381600087803b15801561101657600080fd5b505af115801561102a573d6000803e3d6000fd5b505050506040513d601f19601f8201168201806040525081019061104e9190613848565b506040516323b872dd60e01b81526001600160a01b037f000000000000000000000000000000000000000000000000000000000000000016906323b872dd9061109f9033903090879060040161396c565b602060405180830381600087803b1580156110b957600080fd5b505af11580156110cd573d6000803e3d6000fd5b505050506040513d601f19601f820116820180604052508101906110f19190613848565b506040516323b872dd60e01b81526001600160a01b037f000000000000000000000000000000000000000000000000000000000000000016906323b872dd906111429033903090869060040161396c565b602060405180830381600087803b15801561115c57600080fd5b505af1158015611170573d6000803e3d6000fd5b505050506040513d601f19601f820116820180604052508101906111949190613848565b506005546001600160a01b03166000908152600e60205260409020546111bb9084906139c3565b6005546001600160a01b039081166000908152600e602052604080822093909355600654909116815220546111f19083906139c3565b6006546001600160a01b039081166000908152600e602052604080822093909355600754909116815220546112279082906139c3565b6007546001600160a01b03166000908152600e602052604090205561124c338261207e565b61125461215d565b600c60106101000a8154816001600160801b030219169083600f0b6001600160801b031602179055507f1c70670f6747813675d56793610be0687880b8cdfd4a7908aa8468bd3a5cfdb18383836112be600c60109054906101000a9004600f0b6305f5e100611d72565b60408051948552602085019390935291830152606082015260800160405180910390a1505050565b6060600480546103ab90613c75565b600081116113455760405162461bcd60e51b815260206004820152601c60248201527f494e53554646494349454e545f57495448445241575f414d4f554e5400000000604482015260640161058a565b600061137c61135c8361135760025490565b611fee565b6007546001600160a01b03166000908152600e6020526040902054611d72565b600754909150600090819061139a906001600160a01b031684610445565b50915091506113aa3330866104fc565b506113b53085612249565b6005546113cc906001600160a01b0316338461238f565b6006546113e3906001600160a01b0316338361238f565b6007546113fa906001600160a01b0316338561238f565b6005546001600160a01b03166000908152600e6020526040902054611420908390613bd0565b6005546001600160a01b039081166000908152600e60205260408082209390935560065490911681522054611456908290613bd0565b6006546001600160a01b039081166000908152600e6020526040808220939093556007549091168152205461148c908490613bd0565b6007546001600160a01b03166000908152600e60205260409020556114af61215d565b600c60106101000a8154816001600160801b030219169083600f0b6001600160801b031602179055507f44bf4f05b3795f2b0023e7df05e09f6b2059a7becd94a0ff67487fecd9ffbf1c828286611517600c60109054906101000a9004600f0b6103e8611d72565b60408051948552602085019390935291830152606082015260800160405180910390a150505050565b3360009081526001602090815260408083206001600160a01b0386168452909152812054828110156115c25760405162461bcd60e51b815260206004820152602560248201527f45524332303a2064656372656173656420616c6c6f77616e63652062656c6f77604482015264207a65726f60d81b606482015260840161058a565b6115cf3385858403611c4d565b5060019392505050565b600061043b338484611e1e565b60055460009081906001600160a01b0384811691161415611649576006546001600160a01b03858116911614156116265761161f6124d1565b9050611715565b6007546001600160a01b03858116911614156116445761161f612568565b611715565b6006546001600160a01b03848116911614156116b0576005546001600160a01b038581169116141561168f5761161f6116826001611b87565b61168a6124d1565b611bf5565b6007546001600160a01b03858116911614156116445761161f611682612568565b6007546001600160a01b0384811691161415611715576005546001600160a01b03858116911614156116f15761161f6116e96001611b87565b61168a612568565b6006546001600160a01b0385811691161415611715576117126116e96124d1565b90505b61172781670de0b6b3a764000061268d565b949350505050565b60055460009081906012906001600160a01b038681169116141561183c576006546001600160a01b03858116911614156117c4576005546001600160a01b03166000908152600e60205260409020546117ad9061178d9088906139c3565b6006546001600160a01b03166000908152600e60205260409020546126f5565b600d54909250600160881b900460ff169050611a2e565b6007546001600160a01b0385811691161415611837576005546001600160a01b03166000908152600e6020526040902054611824906118049088906139c3565b6006546001600160a01b03166000908152600e60205260409020546127ff565b600d54909250600160901b900460ff1690505b611a2e565b6006546001600160a01b0386811691161415611929576005546001600160a01b03858116911614156118c9576006546001600160a01b03166000908152600e60205260409020546118b2906118929088906139c3565b6005546001600160a01b03166000908152600e60205260409020546126f5565b600d54909250600160801b900460ff169050611a2e565b6007546001600160a01b0385811691161415611837576006546001600160a01b03166000908152600e6020526040902054611824906119099088906139c3565b6005546001600160a01b03166000908152600e60205260409020546127ff565b6007546001600160a01b0386811691161415611a2e576005546001600160a01b03858116911614156119ad576007546001600160a01b03166000908152600e60205260409020546118b29061197f9088906139c3565b6005546001600160a01b039081166000908152600e60205260408082205460065490931682529020546128bb565b6006546001600160a01b0385811691161415611a2e576007546001600160a01b03166000908152600e6020526040902054611a1b906119ed9088906139c3565b6006546001600160a01b039081166000908152600e60205260408082205460055490931682529020546128bb565b600d54909250600160881b900460ff1690505b60038160ff1610611a6b57611a6482611a48600384613c26565b611a5390600a613a81565b611a5f906103e5613b2c565b611d72565b9250611a9b565b611a98611a908361168a611a80856003613c26565b611a8b90600a613a81565b612990565b6103e5611d72565b92505b60008311611aeb5760405162461bcd60e51b815260206004820152601760248201527f494e53554646494349454e545f4f55545f414d4f554e54000000000000000000604482015260640161058a565b50509392505050565b600081611b0057600080fd5b600080841215611b1557836000039350600190505b6000831215611b275760009290920391155b6000611b3385856129a7565b90508115611b61576001607f1b816001600160801b03161115611b5557600080fd5b600003915061043f9050565b60016001607f1b03816001600160801b03161115611b7e57600080fd5b915061043f9050565b6000677fffffffffffffff198212158015611baa5750677fffffffffffffff8213155b611bb357600080fd5b5060401b90565b6000600f82810b9084900b0360016001607f1b03198112801590611be5575060016001607f1b038113155b611bee57600080fd5b9392505050565b600081600f0b60001415611c0857600080fd5b600082600f0b604085600f0b901b81611c2357611c23613cdc565b05905060016001607f1b03198112801590611be5575060016001607f1b03811315611bee57600080fd5b6001600160a01b038316611caf5760405162461bcd60e51b8152602060048201526024808201527f45524332303a20617070726f76652066726f6d20746865207a65726f206164646044820152637265737360e01b606482015260840161058a565b6001600160a01b038216611d105760405162461bcd60e51b815260206004820152602260248201527f45524332303a20617070726f766520746f20746865207a65726f206164647265604482015261737360f01b606482015260840161058a565b6001600160a01b0383811660008181526001602090815260408083209487168084529482529182902085905590518481527f8c5be1e5ebec7d5bd14f71427d1e84f3dd0314c0f7b2291e5b200ac8c7c3b92591015b60405180910390a3505050565b6000600f83900b60016001607f1b03191415611dbb576002600160c01b03198212158015611da45750600160c01b8213155b611dad57600080fd5b506000819003603f1b61043f565b60008084600f0b1215611dd357836000039350600190505b6000831215611de55760009290920391155b6000611df1858561268d565b90508115611e0a57600160ff1b811115611b5557600080fd5b6001600160ff1b03811115611b7e57600080fd5b6001600160a01b038316611e825760405162461bcd60e51b815260206004820152602560248201527f45524332303a207472616e736665722066726f6d20746865207a65726f206164604482015264647265737360d81b606482015260840161058a565b6001600160a01b038216611ee45760405162461bcd60e51b815260206004820152602360248201527f45524332303a207472616e7366657220746f20746865207a65726f206164647260448201526265737360e81b606482015260840161058a565b6001600160a01b03831660009081526020819052604090205481811015611f5c5760405162461bcd60e51b815260206004820152602660248201527f45524332303a207472616e7366657220616d6f756e7420657863656564732062604482015265616c616e636560d01b606482015260840161058a565b6001600160a01b03808516600090815260208190526040808220858503905591851681529081208054849290611f93908490613a04565b92505081905550826001600160a01b0316846001600160a01b03167fddf252ad1be2c89b69c2b068fc378daa952ba7f163c4a11628f55a4df523b3ef84604051611fdf91815260200190565b60405180910390a35b50505050565b600081611ffa57600080fd5b600061200684846129a7565b905060016001607f1b036001600160801b0382161115611bee57600080fd5b60008061204461203e6120386001611b87565b85611bba565b86611d72565b9050600061206461205e6120586001611b87565b86612b09565b87611d72565b9050848212801561207457508085125b9695505050505050565b6001600160a01b0382166120d45760405162461bcd60e51b815260206004820152601f60248201527f45524332303a206d696e7420746f20746865207a65726f206164647265737300604482015260640161058a565b80600260008282546120e69190613a04565b90915550506001600160a01b03821660009081526020819052604081208054839290612113908490613a04565b90915550506040518181526001600160a01b038316906000907fddf252ad1be2c89b69c2b068fc378daa952ba7f163c4a11628f55a4df523b3ef9060200160405180910390a35050565b6005546001600160a01b03166000908152600e6020526040812054600d54829161219b9161219690600160801b900460ff16600a613a81565b611af4565b6006546001600160a01b03166000908152600e6020526040812054600d5492935090916121d8919061219690600160881b900460ff16600a613a81565b6007546001600160a01b03166000908152600e6020526040812054600d549293509091612215919061219690600160901b900460ff16600a613a81565b90506122416122248484612b3c565b60095461223c908490600160801b9004600f0b612b8c565b612b09565b935050505090565b6001600160a01b0382166122a95760405162461bcd60e51b815260206004820152602160248201527f45524332303a206275726e2066726f6d20746865207a65726f206164647265736044820152607360f81b606482015260840161058a565b6001600160a01b0382166000908152602081905260409020548181101561231d5760405162461bcd60e51b815260206004820152602260248201527f45524332303a206275726e20616d6f756e7420657863656564732062616c616e604482015261636560f01b606482015260840161058a565b6001600160a01b038316600090815260208190526040812083830390556002805484929061234c908490613c0f565b90915550506040518281526000906001600160a01b038516907fddf252ad1be2c89b69c2b068fc378daa952ba7f163c4a11628f55a4df523b3ef90602001611d65565b604080518082018252601981527f7472616e7366657228616464726573732c75696e74323536290000000000000060209182015281516001600160a01b0385811660248301526044808301869052845180840390910181526064909201845291810180516001600160e01b031663a9059cbb60e01b1790529151600092839287169161241b9190613950565b6000604051808303816000865af19150503d8060008114612458576040519150601f19603f3d011682016040523d82523d6000602084013e61245d565b606091505b50915091508180156124875750805115806124875750808060200190518101906124879190613848565b6124ca5760405162461bcd60e51b81526020600482015260146024820152731053534e881514905394d1915497d1905253115160621b604482015260640161058a565b5050505050565b6005546001600160a01b03166000908152600e6020526040812054600d54829161250a9161219690600160801b900460ff16600a613a81565b6006546001600160a01b03166000908152600e6020526040812054600d549293509091612547919061219690600160881b900460ff16600a613a81565b90506125616125568383611bf5565b600854600f0b612b8c565b9250505090565b6005546001600160a01b03166000908152600e6020526040812054600d5482916125a19161219690600160801b900460ff16600a613a81565b6006546001600160a01b03166000908152600e6020526040812054600d5492935090916125de919061219690600160881b900460ff16600a613a81565b6007546001600160a01b03166000908152600e6020526040812054600d54929350909161261b919061219690600160901b900460ff16600a613a81565b905060006126298385611bf5565b9050600061265961264e61263d6001611b87565b60095461223c908690600f0b612b8c565b600c54600f0b612b8c565b905061268361267d61266b8786611bf5565b600854600160801b9004600f0b612b8c565b82612ba8565b9550505050505090565b60008161269c5750600061043f565b600083600f0b12156126ad57600080fd5b600f83900b6001600160801b038316810260401c90608084901c026001600160c01b038111156126dc57600080fd5b60401b81198111156126ed57600080fd5b019392505050565b60008061271884600d60109054906101000a900460ff16600a6121969190613a81565b9050600061273c84600d60119054906101000a900460ff16600a6121969190613a81565b6007546001600160a01b03166000908152600e6020526040812054600d549293509091612779919061219690600160901b900460ff16600a613a81565b905060006127c36127b1600c60109054906101000a9004600f0b6127ac85600960109054906101000a9004600f0b612b8c565b611bba565b600b54600160801b9004600f0b612b8c565b90506127f4836127ac6127e9846127ac89600960009054906101000a9004600f0b612b8c565b600a54600f0b612b8c565b979650505050505050565b60008061282284600d60109054906101000a900460ff16600a6121969190613a81565b9050600061284684600d60119054906101000a900460ff16600a6121969190613a81565b6007546001600160a01b03166000908152600e6020526040812054600d549293509091612883919061219690600160901b900460ff16600a613a81565b9050612074816127ac6128a9600c60109054906101000a9004600f0b6127ac8888612b3c565b600a54600160801b9004600f0b612b8c565b6000806128de84600d60109054906101000a900460ff16600a6121969190613a81565b9050600061290284600d60119054906101000a900460ff16600a6121969190613a81565b9050600061292687600d60129054906101000a900460ff16600a6121969190613a81565b60095490915060009061293d908490600f0b612b8c565b905060006129706127b1600c60109054906101000a9004600f0b6127ac86600960109054906101000a9004600f0b612b8c565b9050612983856127ac6127e98486611bba565b9998505050505050505050565b6000677fffffffffffffff821115611bb357600080fd5b6000816129b357600080fd5b60006001600160c01b0384116129de5782604085901b816129d6576129d6613cdc565b049050612af5565b60c084811c64010000000081106129f7576020918201911c5b620100008110612a09576010918201911c5b6101008110612a1a576008918201911c5b60108110612a2a576004918201911c5b60048110612a3a576002918201911c5b60028110612a49576001820191505b60bf820360018603901c6001018260ff0387901b81612a6a57612a6a613cdc565b0492506001600160801b03831115612a8157600080fd5b608085901c83026001600160801b038616840260c088901c604089901b82811015612aad576001820391505b608084901b92900382811015612ac4576001820391505b829003608084901c8214612ada57612ada613cb0565b888181612ae957612ae9613cdc565b04870196505050505050505b6001600160801b03811115611bee57600080fd5b6000600f83810b9083900b0160016001607f1b03198112801590611be5575060016001607f1b03811315611bee57600080fd5b6009546000908190612b52908590600f0b612b8c565b600954909150600090612b69908590600f0b612b8c565b9050612b83612b788383612b09565b600b54600f0b612b8c565b95945050505050565b6000611bee612ba3612b9d85612bde565b84612ba8565b612cbe565b6000600f83810b9083900b0260401d60016001607f1b03198112801590611be5575060016001607f1b03811315611bee57600080fd5b60008082600f0b13612bef57600080fd5b6000600f83900b680100000000000000008112612c0e576040918201911d5b6401000000008112612c22576020918201911d5b620100008112612c34576010918201911d5b6101008112612c45576008918201911d5b60108112612c55576004918201911d5b60048112612c65576002918201911d5b60028112612c74576001820191505b603f19820160401b600f85900b607f8490031b6001603f1b5b6000811315612cb35790800260ff81901c8281029390930192607f011c9060011d612c8d565b509095945050505050565b60006840000000000000000082600f0b12612cd857600080fd5b683fffffffffffffffff1982600f0b1215612cf557506000919050565b6001607f1b60006001603f1b8416600f0b1315612d235770016a09e667f3bcc908b2fb1366ea957d3e0260801c5b60008367400000000000000016600f0b1315612d50577001306fe0a31b7152de8d5a46305c85edec0260801c5b60008367200000000000000016600f0b1315612d7d577001172b83c7d517adcdf7c8c50eb14a791f0260801c5b60008367100000000000000016600f0b1315612daa5770010b5586cf9890f6298b92b71842a983630260801c5b60008367080000000000000016600f0b1315612dd7577001059b0d31585743ae7c548eb68ca417fd0260801c5b60008367040000000000000016600f0b1315612e0457700102c9a3e778060ee6f7caca4f7a29bde80260801c5b60008367020000000000000016600f0b1315612e315770010163da9fb33356d84a66ae336dcdfa3f0260801c5b60008367010000000000000016600f0b1315612e5e57700100b1afa5abcbed6129ab13ec11dc95430260801c5b600083668000000000000016600f0b1315612e8a5770010058c86da1c09ea1ff19d294cf2f679b0260801c5b600083664000000000000016600f0b1315612eb6577001002c605e2e8cec506d21bfc89a23a00f0260801c5b600083662000000000000016600f0b1315612ee257700100162f3904051fa128bca9c55c31e5df0260801c5b600083661000000000000016600f0b1315612f0e577001000b175effdc76ba38e31671ca9397250260801c5b600083660800000000000016600f0b1315612f3a57700100058ba01fb9f96d6cacd4b180917c3d0260801c5b600083660400000000000016600f0b1315612f665770010002c5cc37da9491d0985c348c68e7b30260801c5b600083660200000000000016600f0b1315612f92577001000162e525ee054754457d59952920260260801c5b600083660100000000000016600f0b1315612fbe5770010000b17255775c040618bf4a4ade83fc0260801c5b6000836580000000000016600f0b1315612fe9577001000058b91b5bc9ae2eed81e9b7d4cfab0260801c5b6000836540000000000016600f0b131561301457700100002c5c89d5ec6ca4d7c8acc017b7c90260801c5b6000836520000000000016600f0b131561303f5770010000162e43f4f831060e02d839a9d16d0260801c5b6000836510000000000016600f0b131561306a57700100000b1721bcfc99d9f890ea069117630260801c5b6000836508000000000016600f0b13156130955770010000058b90cf1e6d97f9ca14dbcc16280260801c5b6000836504000000000016600f0b13156130c0577001000002c5c863b73f016468f6bac5ca2b0260801c5b6000836502000000000016600f0b13156130eb57700100000162e430e5a18f6119e3c02282a50260801c5b6000836501000000000016600f0b1315613116577001000000b1721835514b86e6d96efd1bfe0260801c5b60008364800000000016600f0b131561314057700100000058b90c0b48c6be5df846c5b2ef0260801c5b60008364400000000016600f0b131561316a5770010000002c5c8601cc6b9e94213c72737a0260801c5b60008364200000000016600f0b1315613194577001000000162e42fff037df38aa2b219f060260801c5b60008364100000000016600f0b13156131be5770010000000b17217fba9c739aa5819f44f90260801c5b60008364080000000016600f0b13156131e8577001000000058b90bfcdee5acd3c1cedc8230260801c5b60008364040000000016600f0b131561321257700100000002c5c85fe31f35a6a30da1be500260801c5b60008364020000000016600f0b131561323c5770010000000162e42ff0999ce3541b9fffcf0260801c5b60008364010000000016600f0b131561326657700100000000b17217f80f4ef5aadda455540260801c5b600083638000000016600f0b131561328f5770010000000058b90bfbf8479bd5a81b51ad0260801c5b600083634000000016600f0b13156132b8577001000000002c5c85fdf84bd62ae30a74cc0260801c5b600083632000000016600f0b13156132e157700100000000162e42fefb2fed257559bdaa0260801c5b600083631000000016600f0b131561330a577001000000000b17217f7d5a7716bba4a9ae0260801c5b600083630800000016600f0b131561333357700100000000058b90bfbe9ddbac5e109cce0260801c5b600083630400000016600f0b131561335c5770010000000002c5c85fdf4b15de6f17eb0d0260801c5b600083630200000016600f0b1315613385577001000000000162e42fefa494f1478fde050260801c5b600083630100000016600f0b13156133ae5770010000000000b17217f7d20cf927c8e94c0260801c5b6000836280000016600f0b13156133d6577001000000000058b90bfbe8f71cb4e4b33d0260801c5b6000836240000016600f0b13156133fe57700100000000002c5c85fdf477b662b269450260801c5b6000836220000016600f0b13156134265770010000000000162e42fefa3ae53369388c0260801c5b6000836210000016600f0b131561344e57700100000000000b17217f7d1d351a389d400260801c5b6000836208000016600f0b13156134765770010000000000058b90bfbe8e8b2d3d4ede0260801c5b6000836204000016600f0b131561349e577001000000000002c5c85fdf4741bea6e77e0260801c5b6000836202000016600f0b13156134c657700100000000000162e42fefa39fe95583c20260801c5b6000836201000016600f0b13156134ee577001000000000000b17217f7d1cfb72b45e10260801c5b60008361800016600f0b131561351557700100000000000058b90bfbe8e7cc35c3f00260801c5b60008361400016600f0b131561353c5770010000000000002c5c85fdf473e242ea380260801c5b60008361200016600f0b1315613563577001000000000000162e42fefa39f02b772c0260801c5b60008361100016600f0b131561358a5770010000000000000b17217f7d1cf7d83c1a0260801c5b60008361080016600f0b13156135b1577001000000000000058b90bfbe8e7bdcbe2e0260801c5b60008361040016600f0b13156135d857700100000000000002c5c85fdf473dea871f0260801c5b60008361020016600f0b13156135ff5770010000000000000162e42fefa39ef44d910260801c5b60008361010016600f0b131561362657700100000000000000b17217f7d1cf79e9490260801c5b600083608016600f0b131561364c5770010000000000000058b90bfbe8e7bce5440260801c5b600083604016600f0b1315613672577001000000000000002c5c85fdf473de6eca0260801c5b600083602016600f0b131561369857700100000000000000162e42fefa39ef366f0260801c5b600083601016600f0b13156136be577001000000000000000b17217f7d1cf79afa0260801c5b600083600816600f0b13156136e457700100000000000000058b90bfbe8e7bcd6d0260801c5b600083600416600f0b131561370a5770010000000000000002c5c85fdf473de6b20260801c5b600083600216600f0b1315613730577001000000000000000162e42fefa39ef3580260801c5b600083600116600f0b13156137565770010000000000000000b17217f7d1cf79ab0260801c5b600f83810b60401d603f03900b1c60016001607f1b0381111561043f57600080fd5b80356001600160a01b038116811461378f57600080fd5b919050565b6000602082840312156137a657600080fd5b611bee82613778565b600080604083850312156137c257600080fd5b6137cb83613778565b91506137d960208401613778565b90509250929050565b6000806000606084860312156137f757600080fd5b61380084613778565b925061380e60208501613778565b9150604084013590509250925092565b6000806040838503121561383157600080fd5b61383a83613778565b946020939093013593505050565b60006020828403121561385a57600080fd5b81518015158114611bee57600080fd5b60008060006060848603121561387f57600080fd5b8335925061388f60208501613778565b91506104f360408501613778565b6000602082840312156138af57600080fd5b5035919050565b6000602082840312156138c857600080fd5b5051919050565b600080600080600060a086880312156138e757600080fd5b853594506138f760208701613778565b935061390560408701613778565b925061391360608701613778565b949793965091946080013592915050565b60008060006060848603121561393957600080fd5b505081359360208301359350604090920135919050565b60008251613962818460208701613c49565b9190910192915050565b6001600160a01b039384168152919092166020820152604081019190915260600190565b60208152600082518060208401526139af816040850160208701613c49565b601f01601f19169190910160400192915050565b600080821280156001600160ff1b03849003851316156139e5576139e5613cc6565b600160ff1b83900384128116156139fe576139fe613cc6565b50500190565b60008219821115613a1757613a17613cc6565b500190565b600082613a3957634e487b7160e01b600052601260045260246000fd5b500490565b600181815b80851115613a79578160001904821115613a5f57613a5f613cc6565b80851615613a6c57918102915b93841c9390800290613a43565b509250929050565b6000611bee60ff841683600082613a9a5750600161043f565b81613aa75750600061043f565b8160018114613abd5760028114613ac757613ae3565b600191505061043f565b60ff841115613ad857613ad8613cc6565b50506001821b61043f565b5060208310610133831016604e8410600b8410161715613b06575081810a61043f565b613b108383613a3e565b8060001904821115613b2457613b24613cc6565b029392505050565b60006001600160ff1b0381841382841380821686840486111615613b5257613b52613cc6565b600160ff1b6000871282811687830589121615613b7157613b71613cc6565b60008712925087820587128484161615613b8d57613b8d613cc6565b87850587128184161615613ba357613ba3613cc6565b505050929093029392505050565b6000816000190483118215151615613bcb57613bcb613cc6565b500290565b60008083128015600160ff1b850184121615613bee57613bee613cc6565b6001600160ff1b0384018313811615613c0957613c09613cc6565b50500390565b600082821015613c2157613c21613cc6565b500390565b600060ff821660ff841680821015613c4057613c40613cc6565b90039392505050565b60005b83811015613c64578181015183820152602001613c4c565b83811115611fe85750506000910152565b600181811c90821680613c8957607f821691505b60208210811415613caa57634e487b7160e01b600052602260045260246000fd5b50919050565b634e487b7160e01b600052600160045260246000fd5b634e487b7160e01b600052601160045260246000fd5b634e487b7160e01b600052601260045260246000fdfea2646970667358221220a8065dd5060c35a46787b1e9ec66e1a254613c84a73241467763bd4c2a57a8ac64736f6c63430008070033",
  "immutableReferences": {
    "3547": [
      {
        "length": 32,
        "start": 2958
      },
      {
        "length": 32,
        "start": 4035
      }
    ],
    "3550": [
      {
        "length": 32,
        "start": 3207
      },
      {
        "length": 32,
        "start": 4198
      }
    ],
    "3553": [
      {
        "length": 32,
        "start": 3456
      },
      {
        "length": 32,
        "start": 4361
      }
    ]
  },
  "source": "// SPDX-License-Identifier: MIT\npragma solidity >=0.4.22 <0.9.0;\n\nimport {IERC20} from \"@openzeppelin/contracts/token/ERC20/IERC20.sol\";\nimport {IERC20Metadata} from \"@openzeppelin/contracts/token/ERC20/extensions/IERC20Metadata.sol\";\nimport \"@openzeppelin/contracts/token/ERC20/ERC20.sol\";\nimport \"./ABDKMath64x64.sol\";\n\n\ncontract AMM is IERC20, ERC20 {\n    address public aTokenAddress; \n    address public bTokenAddress; \n    address public yTokenAddress; \n\n    int256 public constant precision = 1000;\n    bytes4 private constant SELECTOR =\n        bytes4(keccak256(bytes(\"transfer(address,uint256)\")));\n\n    int128 _sigma;\n    int128 _eta;\n\n    int128 _one_minus_sigma;\n    int128 _one_minus_eta;\n    int128 _reverse_sigma;\n    int128 _reverse_eta;\n    int128 _eta_to_sigma;\n    int128 _sigma_to_eta;\n    int128 _eta_minus_sigma;\n\n    int128 _mu; // constant curve\n    int128 _mme; // maximum margin of error\n\n    uint8 aDecimals;\n    uint8 bDecimals;\n    uint8 yDecimals;\n\n    IERC20 immutable aToken;\n    IERC20 immutable bToken;\n    IERC20 immutable yToken;\n\n    mapping(address => int256) public amounts;\n\n    address owner;\n\n    event Deposit(uint256 aAmount, uint256 bAmount, uint256 yAmount, int256 mu);\n\n    event Withdraw(\n        uint256 aAmount,\n        uint256 bAmount,\n        uint256 yAmount,\n        int256 mu\n    );\n\n    event Swap(\n        uint256 amountIn,\n        uint256 amountOut,\n        address tokenIn,\n        address tokenOut,\n        address indexed sender\n    );\n\n    constructor(\n        address _aToken,\n        address _bToken,\n        address _yToken,\n        int256 sigma,\n        int256 eta,\n        int256 mme\n    ) ERC20(\"LP Token\", \"LPC\") {\n        aTokenAddress = _aToken;\n        bTokenAddress = _bToken;\n        yTokenAddress = _yToken;\n\n        aToken = IERC20(_aToken);\n        bToken = IERC20(_bToken);\n        yToken = IERC20(_yToken);\n\n        aDecimals = IERC20Metadata(_aToken).decimals();\n        bDecimals = IERC20Metadata(_bToken).decimals();\n        yDecimals = IERC20Metadata(_yToken).decimals();\n\n        _sigma = ABDKMath64x64.divi(sigma, precision);\n        _eta = ABDKMath64x64.divi(eta, precision);\n        _mme = ABDKMath64x64.divi(mme, precision);\n\n        _one_minus_sigma = ABDKMath64x64.sub(ABDKMath64x64.fromInt(1), _sigma);\n        _one_minus_eta = ABDKMath64x64.sub(ABDKMath64x64.fromInt(1), _eta);\n\n        _reverse_sigma = ABDKMath64x64.div(\n            ABDKMath64x64.fromInt(1),\n            _one_minus_sigma\n        );\n        _reverse_eta = ABDKMath64x64.div(\n            ABDKMath64x64.fromInt(1),\n            _one_minus_eta\n        );\n\n        _eta_to_sigma = ABDKMath64x64.div(_one_minus_eta, _one_minus_sigma);\n        _sigma_to_eta = ABDKMath64x64.div(_one_minus_sigma, _one_minus_eta);\n\n        _eta_minus_sigma = ABDKMath64x64.div(\n            ABDKMath64x64.sub(_eta, _sigma),\n            _one_minus_sigma\n        );\n\n        amounts[_aToken] = 0;\n        amounts[_bToken] = 0;\n        amounts[_yToken] = 0;\n        owner = msg.sender;\n    }\n\n    function _safeTransfer(\n        address token,\n        address to,\n        uint256 value\n    ) private {\n        (bool success, bytes memory data) = token.call(\n            abi.encodeWithSelector(SELECTOR, to, value)\n        );\n        require(\n            success && (data.length == 0 || abi.decode(data, (bool))),\n            \"AMM: TRANSFER_FAILED\"\n        );\n    }\n\n    function getPow(int128 x, int128 p) private pure returns (int128) {\n        return\n            ABDKMath64x64.exp_2(ABDKMath64x64.mul(ABDKMath64x64.log_2(x), p));\n    }\n\n    function getAplusB(int128 a, int128 b) private view returns (int128) {\n        int128 aexp = getPow(a, _one_minus_sigma);\n        int128 bexp = getPow(b, _one_minus_sigma);\n\n        return getPow(ABDKMath64x64.add(aexp, bexp), _eta_to_sigma);\n    }\n\n    function muFunction() private view returns (int128) {\n        int128 a = ABDKMath64x64.divi(\n            amounts[aTokenAddress],\n            int256(10**aDecimals)\n        );\n        int128 b = ABDKMath64x64.divi(\n            amounts[bTokenAddress],\n            int256(10**bDecimals)\n        );\n        int128 y = ABDKMath64x64.divi(\n            amounts[yTokenAddress],\n            int256(10**yDecimals)\n        );\n\n        return ABDKMath64x64.add(getAplusB(a, b), getPow(y, _one_minus_eta));\n    }\n\n    function getAtoYAmount(int256 _a, int256 _b)\n        private\n        view\n        returns (int128 amountOut)\n    {\n        int128 a = ABDKMath64x64.divi(_a, int256(10**aDecimals));\n        int128 b = ABDKMath64x64.divi(_b, int256(10**bDecimals));\n        int128 y = ABDKMath64x64.divi(\n            amounts[yTokenAddress],\n            int256(10**yDecimals)\n        );\n\n        return\n            ABDKMath64x64.sub(\n                y,\n                getPow(ABDKMath64x64.sub(_mu, getAplusB(a, b)), _reverse_eta)\n            );\n    }\n\n    function getYtoAAmount(\n        int256 _y,\n        int256 _a,\n        int256 _b\n    ) private view returns (int128 amountOut) {\n        int128 a = ABDKMath64x64.divi(_a, int256(10**aDecimals));\n        int128 b = ABDKMath64x64.divi(_b, int256(10**bDecimals));\n        int128 y = ABDKMath64x64.divi(_y, int256(10**yDecimals));\n\n        int128 bexp = getPow(b, _one_minus_sigma);\n        int128 temp = getPow(\n            ABDKMath64x64.sub(_mu, getPow(y, _one_minus_eta)),\n            _sigma_to_eta\n        );\n\n        return\n            ABDKMath64x64.sub(\n                a,\n                getPow(ABDKMath64x64.sub(temp, bexp), _reverse_sigma)\n            );\n    }\n\n    function getAtoBAmount(int256 _a, int256 _b)\n        private\n        view\n        returns (int128 amountOut)\n    {\n        int128 a = ABDKMath64x64.divi(_a, int256(10**aDecimals));\n        int128 b = ABDKMath64x64.divi(_b, int256(10**bDecimals));\n        int128 y = ABDKMath64x64.divi(\n            amounts[yTokenAddress],\n            int256(10**yDecimals)\n        );\n        int128 temp = getPow(\n            ABDKMath64x64.sub(_mu, getPow(y, _one_minus_eta)),\n            _sigma_to_eta\n        );\n        return\n            ABDKMath64x64.sub(\n                b,\n                getPow(\n                    ABDKMath64x64.sub(temp, getPow(a, _one_minus_sigma)),\n                    _reverse_sigma\n                )\n            );\n    }\n\n    function getAtoBPrice() private view returns (int128 price) {\n        int128 a = ABDKMath64x64.divi(\n            amounts[aTokenAddress],\n            int256(10**aDecimals)\n        );\n        int128 b = ABDKMath64x64.divi(\n            amounts[bTokenAddress],\n            int256(10**bDecimals)\n        );\n\n        price = getPow(ABDKMath64x64.div(a, b), _sigma);\n    }\n\n    function getAtoYPrice() private view returns (int128 price) {\n        int128 a = ABDKMath64x64.divi(\n            amounts[aTokenAddress],\n            int256(10**aDecimals)\n        );\n        int128 b = ABDKMath64x64.divi(\n            amounts[bTokenAddress],\n            int256(10**bDecimals)\n        );\n        int128 y = ABDKMath64x64.divi(\n            amounts[yTokenAddress],\n            int256(10**yDecimals)\n        );\n\n        int128 r = ABDKMath64x64.div(b, a);\n        int128 k = getPow(\n            ABDKMath64x64.add(\n                ABDKMath64x64.fromInt(1),\n                getPow(r, _one_minus_sigma)\n            ),\n            _eta_minus_sigma\n        );\n\n        price = ABDKMath64x64.mul(getPow(ABDKMath64x64.div(a, y), _eta), k);\n    }\n\n    function checkLimit(\n        int256 baseAmount,\n        int256 realAmount,\n        int128 limit\n    ) private pure returns (bool) {\n        int256 lowerLimit = ABDKMath64x64.muli(\n            ABDKMath64x64.sub(ABDKMath64x64.fromInt(1), limit),\n            baseAmount\n        );\n        int256 upperLimit = ABDKMath64x64.muli(\n            ABDKMath64x64.add(ABDKMath64x64.fromInt(1), limit),\n            baseAmount\n        );\n\n        return (lowerLimit < realAmount) && (realAmount < upperLimit);\n    }\n\n    function getAmountsAddToken(address token, uint256 amount)\n        public\n        view\n        returns (\n            int256 addAmountA,\n            int256 addAmountB,\n            int256 addAmountY\n        )\n    {\n        addAmountA = ABDKMath64x64.muli(\n            ABDKMath64x64.divi(amounts[aTokenAddress], amounts[token]),\n            int256(amount)\n        );\n        addAmountB = ABDKMath64x64.muli(\n            ABDKMath64x64.divi(amounts[bTokenAddress], amounts[token]),\n            int256(amount)\n        );\n        addAmountY = ABDKMath64x64.muli(\n            ABDKMath64x64.divi(amounts[yTokenAddress], amounts[token]),\n            int256(amount)\n        );\n    }\n\n    function getPrice(address tokenIn, address tokenOut)\n        public\n        view\n        returns (uint256 price)\n    {\n        int128 _price;\n        if (tokenOut == aTokenAddress) {\n            if (tokenIn == bTokenAddress) {\n                _price = getAtoBPrice();\n            } else if (tokenIn == yTokenAddress) {\n                _price = getAtoYPrice();\n            }\n        } else if (tokenOut == bTokenAddress) {\n            if (tokenIn == aTokenAddress) {\n                _price = ABDKMath64x64.div(\n                    ABDKMath64x64.fromInt(1),\n                    getAtoBPrice()\n                );\n            } else if (tokenIn == yTokenAddress) {\n                _price = ABDKMath64x64.div(getAtoYPrice(), getAtoBPrice());\n            }\n        } else if (tokenOut == yTokenAddress) {\n            if (tokenIn == aTokenAddress) {\n                _price = ABDKMath64x64.div(\n                    ABDKMath64x64.fromInt(1),\n                    getAtoYPrice()\n                );\n            } else if (tokenIn == bTokenAddress) {\n                _price = ABDKMath64x64.div(getAtoBPrice(), getAtoYPrice());\n            }\n        }\n\n        price = ABDKMath64x64.mulu(_price, 10**18);\n    }\n\n    function getAmountOut(\n        int256 amountIn,\n        address tokenIn,\n        address tokenOut\n    ) public view returns (uint256 amountOut) {\n        int128 res = 0;\n        uint8 decimal = 18;\n\n        if (tokenIn == aTokenAddress) {\n            if (tokenOut == bTokenAddress) {\n                res = getAtoBAmount(\n                    amounts[aTokenAddress] + amountIn,\n                    amounts[bTokenAddress]\n                );\n                decimal = bDecimals;\n            } else if (tokenOut == yTokenAddress) {\n                res = getAtoYAmount(\n                    amounts[aTokenAddress] + amountIn,\n                    amounts[bTokenAddress]\n                );\n                decimal = yDecimals;\n            }\n        } else if (tokenIn == bTokenAddress) {\n            if (tokenOut == aTokenAddress) {\n                res = getAtoBAmount(\n                    amounts[bTokenAddress] + amountIn,\n                    amounts[aTokenAddress]\n                );\n                decimal = aDecimals;\n            } else if (tokenOut == yTokenAddress) {\n                res = getAtoYAmount(\n                    amounts[bTokenAddress] + amountIn,\n                    amounts[aTokenAddress]\n                );\n                decimal = yDecimals;\n            }\n        } else if (tokenIn == yTokenAddress) {\n            if (tokenOut == aTokenAddress) {\n                res = getYtoAAmount(\n                    amounts[yTokenAddress] + amountIn,\n                    amounts[aTokenAddress],\n                    amounts[bTokenAddress]\n                );\n                decimal = aDecimals;\n            } else if (tokenOut == bTokenAddress) {\n                res = getYtoAAmount(\n                    amounts[yTokenAddress] + amountIn,\n                    amounts[bTokenAddress],\n                    amounts[aTokenAddress]\n                );\n                decimal = bDecimals;\n            }\n        }\n\n        // Swap fee: 0.3%\n        if (decimal >= 3) {\n            amountOut = uint256(\n                ABDKMath64x64.muli(res, 997 * int256(10**(decimal - 3)))\n            );\n        } else {\n            amountOut = uint256(\n                ABDKMath64x64.muli(\n                    ABDKMath64x64.div(\n                        res,\n                        ABDKMath64x64.fromUInt(10**(3 - decimal))\n                    ),\n                    997\n                )\n            );\n        }\n\n        require(amountOut > 0, \"INSUFFICIENT_OUT_AMOUNT\");\n\n        return amountOut;\n    }\n\n    function getBalance(address token) public view returns (int256) {\n        return amounts[token];\n    }\n\n    function addLiquidity(\n        uint256 aAmount,\n        uint256 bAmount,\n        uint256 yAmount\n    ) external {\n        require(aAmount > 0, \"INSUFFICIENT_INPUT_AMOUNT_TOKEN_A\");\n        require(bAmount > 0, \"INSUFFICIENT_INPUT_AMOUNT_TOKEN_B\");\n        require(yAmount > 0, \"INSUFFICIENT_INPUT_AMOUNT_TOKEN_Y\");\n\n        require(\n            aToken.allowance(msg.sender, address(this)) >= aAmount,\n            \"INSUFFICIENT_APPROVE_AMOUNT_TOKEN_A\"\n        );\n\n        require(\n            bToken.allowance(msg.sender, address(this)) >= bAmount,\n            \"INSUFFICIENT_APPROVE_AMOUNT_TOKEN_B\"\n        );\n\n        require(\n            yToken.allowance(msg.sender, address(this)) >= yAmount,\n            \"INSUFFICIENT_APPROVE_AMOUNT_TOKEN_Y\"\n        );\n\n        if (msg.sender != owner) {\n            require(\n                amounts[aTokenAddress] > 0 &&\n                    amounts[bTokenAddress] > 0 &&\n                    amounts[yTokenAddress] > 0,\n                \"INSUFFICIENT_LIQUIDITY_AMOUNT\"\n            );\n\n            (int256 delta_a, int256 delta_b, ) = getAmountsAddToken(\n                yTokenAddress,\n                yAmount\n            );\n\n            require(\n                checkLimit(delta_a, int256(aAmount), _mme) &&\n                    checkLimit(delta_b, int256(bAmount), _mme),\n                \"MISMATCH_RATIO\"\n            );\n        }\n\n        aToken.transferFrom(msg.sender, address(this), aAmount);\n        bToken.transferFrom(msg.sender, address(this), bAmount);\n        yToken.transferFrom(msg.sender, address(this), yAmount);\n\n        amounts[aTokenAddress] = amounts[aTokenAddress] + int256(aAmount);\n        amounts[bTokenAddress] = amounts[bTokenAddress] + int256(bAmount);\n        amounts[yTokenAddress] = amounts[yTokenAddress] + int256(yAmount);\n\n        _mint(msg.sender, yAmount);\n\n        _mu = muFunction();\n\n        emit Deposit(aAmount, bAmount, yAmount, ABDKMath64x64.muli(_mu, 10**8));\n    }\n\n    function removeLiquidity(uint256 amount) external {\n        require(amount > 0, \"INSUFFICIENT_WITHDRAW_AMOUNT\");\n\n        int delta_y = ABDKMath64x64.muli(\n            ABDKMath64x64.divu(amount, totalSupply()),\n            amounts[yTokenAddress]\n        );\n\n        (int256 delta_a, int256 delta_b, ) = getAmountsAddToken(\n            yTokenAddress,\n            uint(delta_y)\n        );\n\n        transferFrom(msg.sender, address(this), amount);\n        _burn(address(this), amount);        \n\n        _safeTransfer(aTokenAddress, msg.sender, uint256(delta_a));\n        _safeTransfer(bTokenAddress, msg.sender, uint256(delta_b));\n        _safeTransfer(yTokenAddress, msg.sender, uint256(delta_y));\n\n        amounts[aTokenAddress] = amounts[aTokenAddress] - delta_a;\n        amounts[bTokenAddress] = amounts[bTokenAddress] - delta_b;\n        amounts[yTokenAddress] = amounts[yTokenAddress] - delta_y;\n\n        _mu = muFunction();\n\n        emit Withdraw(\n            uint256(delta_a),\n            uint256(delta_b),\n            amount,\n            ABDKMath64x64.muli(_mu, 1000)\n        );\n    }\n\n    function swapToken(\n        uint256 amountIn,\n        address tokenIn,\n        address tokenOut,\n        address recipient,\n        uint256 slippage // define enum in the production\n    ) external returns (uint256) {\n        uint256 price = getPrice(tokenIn, tokenOut);\n\n        require(amountIn > 0, \"INSUFFICIENT_INPUT_AMOUNT\");\n        IERC20 _tokenIn = IERC20(tokenIn);\n        require(\n            _tokenIn.allowance(msg.sender, address(this)) >= amountIn,\n            \"INSUFFICIENT_APPROVE_AMOUNT\"\n        );\n\n        uint256 amountOut = getAmountOut(int256(amountIn), tokenIn, tokenOut);\n\n        uint256 realPrice = (amountOut * (10**18)) / amountIn;\n\n        require(\n            checkLimit(\n                int256(price),\n                int256(realPrice),\n                ABDKMath64x64.divu(slippage, uint256(precision))\n            ),\n            \"NOT_ENOUGH_SLIPPAGE_LEVEL\"\n        );\n\n        require(\n            amounts[tokenOut] > int256(amountOut),\n            \"INSUFFICIENT_OUTPUT_AMOUNT\"\n        );\n\n        _tokenIn.transferFrom(msg.sender, address(this), amountIn);\n\n        amounts[tokenIn] += int256(amountIn);\n\n        if (recipient == address(0))\n            IERC20(tokenOut).transfer(msg.sender, amountOut);\n        else IERC20(tokenOut).transfer(recipient, amountOut);\n\n        amounts[tokenOut] -= int256(amountOut);\n\n        emit Swap(amountIn, amountOut, tokenIn, tokenOut, msg.sender);\n\n        return amountOut;\n    }\n}\n",
  "sourcePath": "/home/kevin/work_test/AMM-SmartContract/SmartContracts/contracts/AMM.sol",
  "compiler": {
    "name": "solc",
    "version": "0.8.7+commit.e28d00a7.Emscripten.clang"
  },
  "schemaVersion": "3.4.3",
  "updatedAt": "2021-10-01T09:38:00.650Z",
  "networkType": "ethereum",
  "devdoc": {
    "kind": "dev",
    "methods": {
      "allowance(address,address)": {
        "details": "See {IERC20-allowance}."
      },
      "approve(address,uint256)": {
        "details": "See {IERC20-approve}. Requirements: - `spender` cannot be the zero address."
      },
      "balanceOf(address)": {
        "details": "See {IERC20-balanceOf}."
      },
      "decimals()": {
        "details": "Returns the number of decimals used to get its user representation. For example, if `decimals` equals `2`, a balance of `505` tokens should be displayed to a user as `5.05` (`505 / 10 ** 2`). Tokens usually opt for a value of 18, imitating the relationship between Ether and Wei. This is the value {ERC20} uses, unless this function is overridden; NOTE: This information is only used for _display_ purposes: it in no way affects any of the arithmetic of the contract, including {IERC20-balanceOf} and {IERC20-transfer}."
      },
      "decreaseAllowance(address,uint256)": {
        "details": "Atomically decreases the allowance granted to `spender` by the caller. This is an alternative to {approve} that can be used as a mitigation for problems described in {IERC20-approve}. Emits an {Approval} event indicating the updated allowance. Requirements: - `spender` cannot be the zero address. - `spender` must have allowance for the caller of at least `subtractedValue`."
      },
      "increaseAllowance(address,uint256)": {
        "details": "Atomically increases the allowance granted to `spender` by the caller. This is an alternative to {approve} that can be used as a mitigation for problems described in {IERC20-approve}. Emits an {Approval} event indicating the updated allowance. Requirements: - `spender` cannot be the zero address."
      },
      "name()": {
        "details": "Returns the name of the token."
      },
      "symbol()": {
        "details": "Returns the symbol of the token, usually a shorter version of the name."
      },
      "totalSupply()": {
        "details": "See {IERC20-totalSupply}."
      },
      "transfer(address,uint256)": {
        "details": "See {IERC20-transfer}. Requirements: - `recipient` cannot be the zero address. - the caller must have a balance of at least `amount`."
      },
      "transferFrom(address,address,uint256)": {
        "details": "See {IERC20-transferFrom}. Emits an {Approval} event indicating the updated allowance. This is not required by the EIP. See the note at the beginning of {ERC20}. Requirements: - `sender` and `recipient` cannot be the zero address. - `sender` must have a balance of at least `amount`. - the caller must have allowance for ``sender``'s tokens of at least `amount`."
      }
    },
    "version": 1
  },
  "userdoc": {
    "kind": "user",
    "methods": {},
    "version": 1
  }
}