{
  "contractName": "AMM",
  "abi": [
    {
      "inputs": [
        {
          "internalType": "address",
          "name": "_aToken",
          "type": "address"
        },
        {
          "internalType": "address",
          "name": "_bToken",
          "type": "address"
        },
        {
          "internalType": "address",
          "name": "_yToken",
          "type": "address"
        },
        {
          "internalType": "int256",
          "name": "sigma",
          "type": "int256"
        },
        {
          "internalType": "int256",
          "name": "eta",
          "type": "int256"
        },
        {
          "internalType": "int256",
          "name": "mme",
          "type": "int256"
        }
      ],
      "stateMutability": "nonpayable",
      "type": "constructor"
    },
    {
      "anonymous": false,
      "inputs": [
        {
          "indexed": false,
          "internalType": "uint256",
          "name": "aAmount",
          "type": "uint256"
        },
        {
          "indexed": false,
          "internalType": "uint256",
          "name": "bAmount",
          "type": "uint256"
        },
        {
          "indexed": false,
          "internalType": "uint256",
          "name": "yAmount",
          "type": "uint256"
        },
        {
          "indexed": false,
          "internalType": "int256",
          "name": "mu",
          "type": "int256"
        }
      ],
      "name": "Deposit",
      "type": "event"
    },
    {
      "anonymous": false,
      "inputs": [
        {
          "indexed": false,
          "internalType": "uint256",
          "name": "amountIn",
          "type": "uint256"
        },
        {
          "indexed": false,
          "internalType": "uint256",
          "name": "amountOut",
          "type": "uint256"
        },
        {
          "indexed": false,
          "internalType": "address",
          "name": "tokenIn",
          "type": "address"
        },
        {
          "indexed": false,
          "internalType": "address",
          "name": "tokenOut",
          "type": "address"
        },
        {
          "indexed": true,
          "internalType": "address",
          "name": "sender",
          "type": "address"
        }
      ],
      "name": "Swap",
      "type": "event"
    },
    {
      "inputs": [],
      "name": "aTokenAddress",
      "outputs": [
        {
          "internalType": "address",
          "name": "",
          "type": "address"
        }
      ],
      "stateMutability": "view",
      "type": "function",
      "constant": true
    },
    {
      "inputs": [
        {
          "internalType": "address",
          "name": "",
          "type": "address"
        }
      ],
      "name": "amounts",
      "outputs": [
        {
          "internalType": "int256",
          "name": "",
          "type": "int256"
        }
      ],
      "stateMutability": "view",
      "type": "function",
      "constant": true
    },
    {
      "inputs": [],
      "name": "bTokenAddress",
      "outputs": [
        {
          "internalType": "address",
          "name": "",
          "type": "address"
        }
      ],
      "stateMutability": "view",
      "type": "function",
      "constant": true
    },
    {
      "inputs": [],
      "name": "precision",
      "outputs": [
        {
          "internalType": "int256",
          "name": "",
          "type": "int256"
        }
      ],
      "stateMutability": "view",
      "type": "function",
      "constant": true
    },
    {
      "inputs": [],
      "name": "yTokenAddress",
      "outputs": [
        {
          "internalType": "address",
          "name": "",
          "type": "address"
        }
      ],
      "stateMutability": "view",
      "type": "function",
      "constant": true
    },
    {
      "inputs": [
        {
          "internalType": "address",
          "name": "token",
          "type": "address"
        },
        {
          "internalType": "uint256",
          "name": "amount",
          "type": "uint256"
        }
      ],
      "name": "getAmountsAddToken",
      "outputs": [
        {
          "internalType": "int256",
          "name": "addAmountA",
          "type": "int256"
        },
        {
          "internalType": "int256",
          "name": "addAmountB",
          "type": "int256"
        },
        {
          "internalType": "int256",
          "name": "addAmountY",
          "type": "int256"
        }
      ],
      "stateMutability": "view",
      "type": "function",
      "constant": true
    },
    {
      "inputs": [
        {
          "internalType": "int256",
          "name": "amountIn",
          "type": "int256"
        },
        {
          "internalType": "address",
          "name": "tokenIn",
          "type": "address"
        },
        {
          "internalType": "address",
          "name": "tokenOut",
          "type": "address"
        }
      ],
      "name": "getAmountOut",
      "outputs": [
        {
          "internalType": "uint256",
          "name": "amountOut",
          "type": "uint256"
        }
      ],
      "stateMutability": "view",
      "type": "function",
      "constant": true
    },
    {
      "inputs": [
        {
          "internalType": "address",
          "name": "token",
          "type": "address"
        }
      ],
      "name": "getBalance",
      "outputs": [
        {
          "internalType": "int256",
          "name": "",
          "type": "int256"
        }
      ],
      "stateMutability": "view",
      "type": "function",
      "constant": true
    },
    {
      "inputs": [
        {
          "internalType": "uint256",
          "name": "aAmount",
          "type": "uint256"
        },
        {
          "internalType": "uint256",
          "name": "bAmount",
          "type": "uint256"
        },
        {
          "internalType": "uint256",
          "name": "yAmount",
          "type": "uint256"
        }
      ],
      "name": "addLiquidity",
      "outputs": [
        {
          "internalType": "bool",
          "name": "",
          "type": "bool"
        }
      ],
      "stateMutability": "nonpayable",
      "type": "function"
    },
    {
      "inputs": [
        {
          "internalType": "uint256",
          "name": "amountIn",
          "type": "uint256"
        },
        {
          "internalType": "address",
          "name": "tokenIn",
          "type": "address"
        },
        {
          "internalType": "address",
          "name": "tokenOut",
          "type": "address"
        }
      ],
      "name": "swapToken",
      "outputs": [
        {
          "internalType": "uint256",
          "name": "",
          "type": "uint256"
        }
      ],
      "stateMutability": "nonpayable",
      "type": "function"
    }
  ],
  "bytecode": "0x60e06040523480156200001157600080fd5b50604051620056f0380380620056f0833981810160405281019062000037919062000c9d565b856000806101000a81548173ffffffffffffffffffffffffffffffffffffffff021916908373ffffffffffffffffffffffffffffffffffffffff16021790555084600160006101000a81548173ffffffffffffffffffffffffffffffffffffffff021916908373ffffffffffffffffffffffffffffffffffffffff16021790555083600260006101000a81548173ffffffffffffffffffffffffffffffffffffffff021916908373ffffffffffffffffffffffffffffffffffffffff1602179055508573ffffffffffffffffffffffffffffffffffffffff1660808173ffffffffffffffffffffffffffffffffffffffff1660601b815250508473ffffffffffffffffffffffffffffffffffffffff1660a08173ffffffffffffffffffffffffffffffffffffffff1660601b815250508373ffffffffffffffffffffffffffffffffffffffff1660c08173ffffffffffffffffffffffffffffffffffffffff1660601b815250508573ffffffffffffffffffffffffffffffffffffffff1663313ce5676040518163ffffffff1660e01b815260040160206040518083038186803b158015620001e557600080fd5b505afa158015620001fa573d6000803e3d6000fd5b505050506040513d601f19601f8201168201806040525081019062000220919062000d39565b600860006101000a81548160ff021916908360ff1602179055508473ffffffffffffffffffffffffffffffffffffffff1663313ce5676040518163ffffffff1660e01b815260040160206040518083038186803b1580156200028157600080fd5b505afa15801562000296573d6000803e3d6000fd5b505050506040513d601f19601f82011682018060405250810190620002bc919062000d39565b600860016101000a81548160ff021916908360ff1602179055508373ffffffffffffffffffffffffffffffffffffffff1663313ce5676040518163ffffffff1660e01b815260040160206040518083038186803b1580156200031d57600080fd5b505afa15801562000332573d6000803e3d6000fd5b505050506040513d601f19601f8201168201806040525081019062000358919062000d39565b600860026101000a81548160ff021916908360ff1602179055506200038b836103e86200084660201b62001f871760201c565b600360006101000a8154816fffffffffffffffffffffffffffffffff0219169083600f0b6fffffffffffffffffffffffffffffffff160217905550620003df826103e86200084660201b62001f871760201c565b600360106101000a8154816fffffffffffffffffffffffffffffffff0219169083600f0b6fffffffffffffffffffffffffffffffff16021790555062000433816103e86200084660201b62001f871760201c565b600760106101000a8154816fffffffffffffffffffffffffffffffff0219169083600f0b6fffffffffffffffffffffffffffffffff160217905550620004aa6200048960016200091860201b6200204a1760201c565b600360009054906101000a9004600f0b6200096960201b620020991760201c565b600460006101000a8154816fffffffffffffffffffffffffffffffff0219169083600f0b6fffffffffffffffffffffffffffffffff160217905550620005216200050060016200091860201b6200204a1760201c565b600360109054906101000a9004600f0b6200096960201b620020991760201c565b600460106101000a8154816fffffffffffffffffffffffffffffffff0219169083600f0b6fffffffffffffffffffffffffffffffff160217905550620005986200057760016200091860201b6200204a1760201c565b600460009054906101000a9004600f0b620009d260201b620021001760201c565b600560006101000a8154816fffffffffffffffffffffffffffffffff0219169083600f0b6fffffffffffffffffffffffffffffffff1602179055506200060f620005ee60016200091860201b6200204a1760201c565b600460109054906101000a9004600f0b620009d260201b620021001760201c565b600560106101000a8154816fffffffffffffffffffffffffffffffff0219169083600f0b6fffffffffffffffffffffffffffffffff1602179055506200067f600460109054906101000a9004600f0b600460009054906101000a9004600f0b620009d260201b620021001760201c565b600660006101000a8154816fffffffffffffffffffffffffffffffff0219169083600f0b6fffffffffffffffffffffffffffffffff160217905550620006ef600460009054906101000a9004600f0b600460109054906101000a9004600f0b620009d260201b620021001760201c565b600660106101000a8154816fffffffffffffffffffffffffffffffff0219169083600f0b6fffffffffffffffffffffffffffffffff1602179055506000600960008873ffffffffffffffffffffffffffffffffffffffff1673ffffffffffffffffffffffffffffffffffffffff168152602001908152602001600020819055506000600960008773ffffffffffffffffffffffffffffffffffffffff1673ffffffffffffffffffffffffffffffffffffffff168152602001908152602001600020819055506000600960008673ffffffffffffffffffffffffffffffffffffffff1673ffffffffffffffffffffffffffffffffffffffff1681526020019081526020016000208190555033600a60006101000a81548173ffffffffffffffffffffffffffffffffffffffff021916908373ffffffffffffffffffffffffffffffffffffffff16021790555050505050505062000e67565b6000808214156200085657600080fd5b6000808412156200086c57836000039350600190505b60008312156200088157826000039250801590505b600062000895858562000a6260201b60201c565b90508115620008dc576f80000000000000000000000000000000816fffffffffffffffffffffffffffffffff161115620008ce57600080fd5b806000039250505062000912565b6f7fffffffffffffffffffffffffffffff816fffffffffffffffffffffffffffffffff1611156200090c57600080fd5b80925050505b92915050565b60007fffffffffffffffffffffffffffffffffffffffffffffffff80000000000000008212158015620009535750677fffffffffffffff8213155b6200095d57600080fd5b604082901b9050919050565b60008082600f0b84600f0b0390507fffffffffffffffffffffffffffffffff80000000000000000000000000000000600f0b8112158015620009be57506f7fffffffffffffffffffffffffffffff600f0b8113155b620009c857600080fd5b8091505092915050565b60008082600f0b1415620009e557600080fd5b600082600f0b604085600f0b901b8162000a045762000a0362000de5565b5b0590507fffffffffffffffffffffffffffffffff80000000000000000000000000000000600f0b811215801562000a4e57506f7fffffffffffffffffffffffffffffff600f0b8113155b62000a5857600080fd5b8091505092915050565b60008082141562000a7257600080fd5b600077ffffffffffffffffffffffffffffffffffffffffffffffff841162000ab45782604085901b8162000aab5762000aaa62000de5565b5b04905062000c30565b600060c09050600060c086901c9050640100000000811062000ade57602081901c90506020820191505b62010000811062000af757601081901c90506010820191505b610100811062000b0f57600881901c90506008820191505b6010811062000b2657600481901c90506004820191505b6004811062000b3d57600281901c90506002820191505b6002811062000b4d576001820191505b600160bf830360018703901c018260ff0387901b8162000b725762000b7162000de5565b5b0492506fffffffffffffffffffffffffffffffff83111562000b9357600080fd5b6000608086901c8402905060006fffffffffffffffffffffffffffffffff871685029050600060c089901c9050600060408a901b90508281101562000bd9576001820391505b8281039050608084901b92508281101562000bf5576001820391505b8281039050608084901c821462000c115762000c1062000db6565b5b88818162000c245762000c2362000de5565b5b04870196505050505050505b6fffffffffffffffffffffffffffffffff81111562000c4e57600080fd5b8091505092915050565b60008151905062000c698162000e19565b92915050565b60008151905062000c808162000e33565b92915050565b60008151905062000c978162000e4d565b92915050565b60008060008060008060c0878903121562000cbd5762000cbc62000e14565b5b600062000ccd89828a0162000c58565b965050602062000ce089828a0162000c58565b955050604062000cf389828a0162000c58565b945050606062000d0689828a0162000c6f565b935050608062000d1989828a0162000c6f565b92505060a062000d2c89828a0162000c6f565b9150509295509295509295565b60006020828403121562000d525762000d5162000e14565b5b600062000d628482850162000c86565b91505092915050565b600062000d788262000d89565b9050919050565b6000819050919050565b600073ffffffffffffffffffffffffffffffffffffffff82169050919050565b600060ff82169050919050565b7f4e487b7100000000000000000000000000000000000000000000000000000000600052600160045260246000fd5b7f4e487b7100000000000000000000000000000000000000000000000000000000600052601260045260246000fd5b600080fd5b62000e248162000d6b565b811462000e3057600080fd5b50565b62000e3e8162000d7f565b811462000e4a57600080fd5b50565b62000e588162000da9565b811462000e6457600080fd5b50565b60805160601c60a05160601c60c05160601c61483b62000eb5600039600081816107340152610d6c0152600081816106470152610cbc01526000818161055a0152610c0c015261483b6000f3fe608060405234801561001057600080fd5b506004361061009e5760003560e01c8063dcfc0ced11610066578063dcfc0ced14610171578063e3f3a0d31461018f578063e5b3504d146101ad578063f0aa8abb146101dd578063f8b2cb4f1461020d5761009e565b80630ddd2e65146100a35780630eeadf07146100c1578063422f1043146100f357806355a3b2c114610123578063d3b5dc3b14610153575b600080fd5b6100ab61023d565b6040516100b89190613dfb565b60405180910390f35b6100db60048036038101906100d69190613a88565b610263565b6040516100ea93929190613ed5565b60405180910390f35b61010d60048036038101906101089190613bc8565b61048d565b60405161011a9190613e9f565b60405180910390f35b61013d60048036038101906101389190613a5b565b611133565b60405161014a9190613eba565b60405180910390f35b61015b61114b565b6040516101689190613eba565b60405180910390f35b610179611151565b6040516101869190613dfb565b60405180910390f35b610197611175565b6040516101a49190613dfb565b60405180910390f35b6101c760048036038101906101c29190613af5565b61119b565b6040516101d4919061408c565b60405180910390f35b6101f760048036038101906101f29190613b75565b611b6e565b604051610204919061408c565b60405180910390f35b61022760048036038101906102229190613a5b565b611f3e565b6040516102349190613eba565b60405180910390f35b600160009054906101000a900473ffffffffffffffffffffffffffffffffffffffff1681565b600080600061031a610314600960008060009054906101000a900473ffffffffffffffffffffffffffffffffffffffff1673ffffffffffffffffffffffffffffffffffffffff1673ffffffffffffffffffffffffffffffffffffffff16815260200190815260200160002054600960008973ffffffffffffffffffffffffffffffffffffffff1673ffffffffffffffffffffffffffffffffffffffff16815260200190815260200160002054611f87565b8561218a565b92506103cf6103c960096000600160009054906101000a900473ffffffffffffffffffffffffffffffffffffffff1673ffffffffffffffffffffffffffffffffffffffff1673ffffffffffffffffffffffffffffffffffffffff16815260200190815260200160002054600960008973ffffffffffffffffffffffffffffffffffffffff1673ffffffffffffffffffffffffffffffffffffffff16815260200190815260200160002054611f87565b8561218a565b915061048461047e60096000600260009054906101000a900473ffffffffffffffffffffffffffffffffffffffff1673ffffffffffffffffffffffffffffffffffffffff1673ffffffffffffffffffffffffffffffffffffffff16815260200190815260200160002054600960008973ffffffffffffffffffffffffffffffffffffffff1673ffffffffffffffffffffffffffffffffffffffff16815260200190815260200160002054611f87565b8561218a565b90509250925092565b60008084116104d1576040517f08c379a00000000000000000000000000000000000000000000000000000000081526004016104c890613f8c565b60405180910390fd5b60008311610514576040517f08c379a000000000000000000000000000000000000000000000000000000000815260040161050b90613f6c565b60405180910390fd5b60008211610557576040517f08c379a000000000000000000000000000000000000000000000000000000000815260040161054e90613fcc565b60405180910390fd5b837f000000000000000000000000000000000000000000000000000000000000000073ffffffffffffffffffffffffffffffffffffffff1663dd62ed3e33306040518363ffffffff1660e01b81526004016105b3929190613e16565b60206040518083038186803b1580156105cb57600080fd5b505afa1580156105df573d6000803e3d6000fd5b505050506040513d601f19601f820116820180604052508101906106039190613b48565b1015610644576040517f08c379a000000000000000000000000000000000000000000000000000000000815260040161063b90613f0c565b60405180910390fd5b827f000000000000000000000000000000000000000000000000000000000000000073ffffffffffffffffffffffffffffffffffffffff1663dd62ed3e33306040518363ffffffff1660e01b81526004016106a0929190613e16565b60206040518083038186803b1580156106b857600080fd5b505afa1580156106cc573d6000803e3d6000fd5b505050506040513d601f19601f820116820180604052508101906106f09190613b48565b1015610731576040517f08c379a00000000000000000000000000000000000000000000000000000000081526004016107289061406c565b60405180910390fd5b817f000000000000000000000000000000000000000000000000000000000000000073ffffffffffffffffffffffffffffffffffffffff1663dd62ed3e33306040518363ffffffff1660e01b815260040161078d929190613e16565b60206040518083038186803b1580156107a557600080fd5b505afa1580156107b9573d6000803e3d6000fd5b505050506040513d601f19601f820116820180604052508101906107dd9190613b48565b101561081e576040517f08c379a000000000000000000000000000000000000000000000000000000000815260040161081590613f2c565b60405180910390fd5b600a60009054906101000a900473ffffffffffffffffffffffffffffffffffffffff1673ffffffffffffffffffffffffffffffffffffffff163373ffffffffffffffffffffffffffffffffffffffff1614610c0a576000600960008060009054906101000a900473ffffffffffffffffffffffffffffffffffffffff1673ffffffffffffffffffffffffffffffffffffffff1673ffffffffffffffffffffffffffffffffffffffff168152602001908152602001600020541380156109445750600060096000600160009054906101000a900473ffffffffffffffffffffffffffffffffffffffff1673ffffffffffffffffffffffffffffffffffffffff1673ffffffffffffffffffffffffffffffffffffffff16815260200190815260200160002054135b80156109b15750600060096000600260009054906101000a900473ffffffffffffffffffffffffffffffffffffffff1673ffffffffffffffffffffffffffffffffffffffff1673ffffffffffffffffffffffffffffffffffffffff16815260200190815260200160002054135b6109f0576040517f08c379a00000000000000000000000000000000000000000000000000000000081526004016109e790613fac565b60405180910390fd5b6000610abd60096000600160009054906101000a900473ffffffffffffffffffffffffffffffffffffffff1673ffffffffffffffffffffffffffffffffffffffff1673ffffffffffffffffffffffffffffffffffffffff16815260200190815260200160002054600960008060009054906101000a900473ffffffffffffffffffffffffffffffffffffffff1673ffffffffffffffffffffffffffffffffffffffff1673ffffffffffffffffffffffffffffffffffffffff16815260200190815260200160002054611f87565b90506000610b8c60096000600260009054906101000a900473ffffffffffffffffffffffffffffffffffffffff1673ffffffffffffffffffffffffffffffffffffffff1673ffffffffffffffffffffffffffffffffffffffff16815260200190815260200160002054600960008060009054906101000a900473ffffffffffffffffffffffffffffffffffffffff1673ffffffffffffffffffffffffffffffffffffffff1673ffffffffffffffffffffffffffffffffffffffff16815260200190815260200160002054611f87565b90506000610b9a838861218a565b90506000610ba8838961218a565b9050610bb482886122ce565b8015610bc65750610bc581876122ce565b5b610c05576040517f08c379a0000000000000000000000000000000000000000000000000000000008152600401610bfc90613f4c565b60405180910390fd5b505050505b7f000000000000000000000000000000000000000000000000000000000000000073ffffffffffffffffffffffffffffffffffffffff166323b872dd3330876040518463ffffffff1660e01b8152600401610c6793929190613e3f565b602060405180830381600087803b158015610c8157600080fd5b505af1158015610c95573d6000803e3d6000fd5b505050506040513d601f19601f82011682018060405250810190610cb99190613ac8565b507f000000000000000000000000000000000000000000000000000000000000000073ffffffffffffffffffffffffffffffffffffffff166323b872dd3330866040518463ffffffff1660e01b8152600401610d1793929190613e3f565b602060405180830381600087803b158015610d3157600080fd5b505af1158015610d45573d6000803e3d6000fd5b505050506040513d601f19601f82011682018060405250810190610d699190613ac8565b507f000000000000000000000000000000000000000000000000000000000000000073ffffffffffffffffffffffffffffffffffffffff166323b872dd3330856040518463ffffffff1660e01b8152600401610dc793929190613e3f565b602060405180830381600087803b158015610de157600080fd5b505af1158015610df5573d6000803e3d6000fd5b505050506040513d601f19601f82011682018060405250810190610e199190613ac8565b5083600960008060009054906101000a900473ffffffffffffffffffffffffffffffffffffffff1673ffffffffffffffffffffffffffffffffffffffff1673ffffffffffffffffffffffffffffffffffffffff16815260200190815260200160002054610e869190614142565b600960008060009054906101000a900473ffffffffffffffffffffffffffffffffffffffff1673ffffffffffffffffffffffffffffffffffffffff1673ffffffffffffffffffffffffffffffffffffffff168152602001908152602001600020819055508260096000600160009054906101000a900473ffffffffffffffffffffffffffffffffffffffff1673ffffffffffffffffffffffffffffffffffffffff1673ffffffffffffffffffffffffffffffffffffffff16815260200190815260200160002054610f579190614142565b60096000600160009054906101000a900473ffffffffffffffffffffffffffffffffffffffff1673ffffffffffffffffffffffffffffffffffffffff1673ffffffffffffffffffffffffffffffffffffffff168152602001908152602001600020819055508160096000600260009054906101000a900473ffffffffffffffffffffffffffffffffffffffff1673ffffffffffffffffffffffffffffffffffffffff1673ffffffffffffffffffffffffffffffffffffffff168152602001908152602001600020546110299190614142565b60096000600260009054906101000a900473ffffffffffffffffffffffffffffffffffffffff1673ffffffffffffffffffffffffffffffffffffffff1673ffffffffffffffffffffffffffffffffffffffff16815260200190815260200160002081905550611096612345565b600760006101000a8154816fffffffffffffffffffffffffffffffff0219169083600f0b6fffffffffffffffffffffffffffffffff1602179055507f1c70670f6747813675d56793610be0687880b8cdfd4a7908aa8468bd3a5cfdb1848484611110600760009054906101000a9004600f0b6103e861218a565b60405161112094939291906140ec565b60405180910390a1600190509392505050565b60096020528060005260406000206000915090505481565b6103e881565b60008054906101000a900473ffffffffffffffffffffffffffffffffffffffff1681565b600260009054906101000a900473ffffffffffffffffffffffffffffffffffffffff1681565b6000806000905060006012905060008054906101000a900473ffffffffffffffffffffffffffffffffffffffff1673ffffffffffffffffffffffffffffffffffffffff168573ffffffffffffffffffffffffffffffffffffffff16141561148857600160009054906101000a900473ffffffffffffffffffffffffffffffffffffffff1673ffffffffffffffffffffffffffffffffffffffff168473ffffffffffffffffffffffffffffffffffffffff1614156113415761132886600960008060009054906101000a900473ffffffffffffffffffffffffffffffffffffffff1673ffffffffffffffffffffffffffffffffffffffff1673ffffffffffffffffffffffffffffffffffffffff168152602001908152602001600020546112c19190614142565b60096000600160009054906101000a900473ffffffffffffffffffffffffffffffffffffffff1673ffffffffffffffffffffffffffffffffffffffff1673ffffffffffffffffffffffffffffffffffffffff16815260200190815260200160002054612516565b9150600860019054906101000a900460ff169050611483565b600260009054906101000a900473ffffffffffffffffffffffffffffffffffffffff1673ffffffffffffffffffffffffffffffffffffffff168473ffffffffffffffffffffffffffffffffffffffff1614156114825761146d86600960008060009054906101000a900473ffffffffffffffffffffffffffffffffffffffff1673ffffffffffffffffffffffffffffffffffffffff1673ffffffffffffffffffffffffffffffffffffffff168152602001908152602001600020546114069190614142565b60096000600160009054906101000a900473ffffffffffffffffffffffffffffffffffffffff1673ffffffffffffffffffffffffffffffffffffffff1673ffffffffffffffffffffffffffffffffffffffff1681526020019081526020016000205461268f565b9150600860029054906101000a900460ff1690505b5b611b0a565b600160009054906101000a900473ffffffffffffffffffffffffffffffffffffffff1673ffffffffffffffffffffffffffffffffffffffff168573ffffffffffffffffffffffffffffffffffffffff1614156117685760008054906101000a900473ffffffffffffffffffffffffffffffffffffffff1673ffffffffffffffffffffffffffffffffffffffff168473ffffffffffffffffffffffffffffffffffffffff161415611621576116088660096000600160009054906101000a900473ffffffffffffffffffffffffffffffffffffffff1673ffffffffffffffffffffffffffffffffffffffff1673ffffffffffffffffffffffffffffffffffffffff168152602001908152602001600020546115a29190614142565b600960008060009054906101000a900473ffffffffffffffffffffffffffffffffffffffff1673ffffffffffffffffffffffffffffffffffffffff1673ffffffffffffffffffffffffffffffffffffffff16815260200190815260200160002054612516565b9150600860009054906101000a900460ff169050611763565b600260009054906101000a900473ffffffffffffffffffffffffffffffffffffffff1673ffffffffffffffffffffffffffffffffffffffff168473ffffffffffffffffffffffffffffffffffffffff1614156117625761174d8660096000600160009054906101000a900473ffffffffffffffffffffffffffffffffffffffff1673ffffffffffffffffffffffffffffffffffffffff1673ffffffffffffffffffffffffffffffffffffffff168152602001908152602001600020546116e79190614142565b600960008060009054906101000a900473ffffffffffffffffffffffffffffffffffffffff1673ffffffffffffffffffffffffffffffffffffffff1673ffffffffffffffffffffffffffffffffffffffff1681526020019081526020016000205461268f565b9150600860029054906101000a900460ff1690505b5b611b09565b600260009054906101000a900473ffffffffffffffffffffffffffffffffffffffff1673ffffffffffffffffffffffffffffffffffffffff168573ffffffffffffffffffffffffffffffffffffffff161415611b085760008054906101000a900473ffffffffffffffffffffffffffffffffffffffff1673ffffffffffffffffffffffffffffffffffffffff168473ffffffffffffffffffffffffffffffffffffffff1614156119635761194a8660096000600260009054906101000a900473ffffffffffffffffffffffffffffffffffffffff1673ffffffffffffffffffffffffffffffffffffffff1673ffffffffffffffffffffffffffffffffffffffff168152602001908152602001600020546118829190614142565b600960008060009054906101000a900473ffffffffffffffffffffffffffffffffffffffff1673ffffffffffffffffffffffffffffffffffffffff1673ffffffffffffffffffffffffffffffffffffffff1681526020019081526020016000205460096000600160009054906101000a900473ffffffffffffffffffffffffffffffffffffffff1673ffffffffffffffffffffffffffffffffffffffff1673ffffffffffffffffffffffffffffffffffffffff168152602001908152602001600020546127ba565b9150600860009054906101000a900460ff169050611b07565b600160009054906101000a900473ffffffffffffffffffffffffffffffffffffffff1673ffffffffffffffffffffffffffffffffffffffff168473ffffffffffffffffffffffffffffffffffffffff161415611b0657611af18660096000600260009054906101000a900473ffffffffffffffffffffffffffffffffffffffff1673ffffffffffffffffffffffffffffffffffffffff1673ffffffffffffffffffffffffffffffffffffffff16815260200190815260200160002054611a299190614142565b60096000600160009054906101000a900473ffffffffffffffffffffffffffffffffffffffff1673ffffffffffffffffffffffffffffffffffffffff1673ffffffffffffffffffffffffffffffffffffffff16815260200190815260200160002054600960008060009054906101000a900473ffffffffffffffffffffffffffffffffffffffff1673ffffffffffffffffffffffffffffffffffffffff1673ffffffffffffffffffffffffffffffffffffffff168152602001908152602001600020546127ba565b9150600860019054906101000a900460ff1690505b5b5b5b5b611b208282600a611b1b9190614229565b61218a565b925060008311611b65576040517f08c379a0000000000000000000000000000000000000000000000000000000008152600401611b5c9061400c565b60405180910390fd5b50509392505050565b6000808411611bb2576040517f08c379a0000000000000000000000000000000000000000000000000000000008152600401611ba99061402c565b60405180910390fd5b6000839050848173ffffffffffffffffffffffffffffffffffffffff1663dd62ed3e33306040518363ffffffff1660e01b8152600401611bf3929190613e16565b60206040518083038186803b158015611c0b57600080fd5b505afa158015611c1f573d6000803e3d6000fd5b505050506040513d601f19601f82011682018060405250810190611c439190613b48565b1015611c84576040517f08c379a0000000000000000000000000000000000000000000000000000000008152600401611c7b90613fec565b60405180910390fd5b6000611c9186868661119b565b905080600960008673ffffffffffffffffffffffffffffffffffffffff1673ffffffffffffffffffffffffffffffffffffffff1681526020019081526020016000205413611d14576040517f08c379a0000000000000000000000000000000000000000000000000000000008152600401611d0b9061404c565b60405180910390fd5b8173ffffffffffffffffffffffffffffffffffffffff166323b872dd3330896040518463ffffffff1660e01b8152600401611d5193929190613e3f565b602060405180830381600087803b158015611d6b57600080fd5b505af1158015611d7f573d6000803e3d6000fd5b505050506040513d601f19601f82011682018060405250810190611da39190613ac8565b5085600960008773ffffffffffffffffffffffffffffffffffffffff1673ffffffffffffffffffffffffffffffffffffffff1681526020019081526020016000206000828254611df39190614142565b925050819055508373ffffffffffffffffffffffffffffffffffffffff1663a9059cbb33836040518363ffffffff1660e01b8152600401611e35929190613e76565b602060405180830381600087803b158015611e4f57600080fd5b505af1158015611e63573d6000803e3d6000fd5b505050506040513d601f19601f82011682018060405250810190611e879190613ac8565b5080600960008673ffffffffffffffffffffffffffffffffffffffff1673ffffffffffffffffffffffffffffffffffffffff1681526020019081526020016000206000828254611ed79190614347565b925050819055503373ffffffffffffffffffffffffffffffffffffffff167f4bef092c4d89156b79870894531231803501f7105bf07ea9f24304c70460cc3c87838888604051611f2a94939291906140a7565b60405180910390a280925050509392505050565b6000600960008373ffffffffffffffffffffffffffffffffffffffff1673ffffffffffffffffffffffffffffffffffffffff168152602001908152602001600020549050919050565b600080821415611f9657600080fd5b600080841215611fab57836000039350600190505b6000831215611fbf57826000039250801590505b6000611fcb85856128d9565b9050811561200f576f80000000000000000000000000000000816fffffffffffffffffffffffffffffffff16111561200257600080fd5b8060000392505050612044565b6f7fffffffffffffffffffffffffffffff816fffffffffffffffffffffffffffffffff16111561203e57600080fd5b80925050505b92915050565b60007fffffffffffffffffffffffffffffffffffffffffffffffff800000000000000082121580156120845750677fffffffffffffff8213155b61208d57600080fd5b604082901b9050919050565b60008082600f0b84600f0b0390507fffffffffffffffffffffffffffffffff80000000000000000000000000000000600f0b81121580156120ed57506f7fffffffffffffffffffffffffffffff600f0b8113155b6120f657600080fd5b8091505092915050565b60008082600f0b141561211257600080fd5b600082600f0b604085600f0b901b8161212e5761212d614498565b5b0590507fffffffffffffffffffffffffffffffff80000000000000000000000000000000600f0b811215801561217757506f7fffffffffffffffffffffffffffffff600f0b8113155b61218057600080fd5b8091505092915050565b60007fffffffffffffffffffffffffffffffff80000000000000000000000000000000600f0b83600f0b141561221b577fffffffffffffffff0000000000000000000000000000000000000000000000018212158015612203575078010000000000000000000000000000000000000000000000008213155b61220c57600080fd5b603f82600003901b90506122c8565b60008084600f0b121561223357836000039350600190505b600083121561224757826000039250801590505b60006122538585612ab6565b90508115612295577f800000000000000000000000000000000000000000000000000000000000000081111561228857600080fd5b80600003925050506122c8565b7f7fffffffffffffffffffffffffffffffffffffffffffffffffffffffffffffff8111156122c257600080fd5b80925050505b92915050565b6000806122fc6122f66122e1600161204a565b600760109054906101000a9004600f0b612099565b8561218a565b9050600061232b612325612310600161204a565b600760109054906101000a9004600f0b612b71565b8661218a565b9050838212801561233b57508084125b9250505092915050565b6000806123cd600960008060009054906101000a900473ffffffffffffffffffffffffffffffffffffffff1673ffffffffffffffffffffffffffffffffffffffff1673ffffffffffffffffffffffffffffffffffffffff16815260200190815260200160002054600860009054906101000a900460ff16600a6123c89190614229565b611f87565b9050600061245760096000600160009054906101000a900473ffffffffffffffffffffffffffffffffffffffff1673ffffffffffffffffffffffffffffffffffffffff1673ffffffffffffffffffffffffffffffffffffffff16815260200190815260200160002054600860019054906101000a900460ff16600a6124529190614229565b611f87565b905060006124e160096000600260009054906101000a900473ffffffffffffffffffffffffffffffffffffffff1673ffffffffffffffffffffffffffffffffffffffff1673ffffffffffffffffffffffffffffffffffffffff16815260200190815260200160002054600860029054906101000a900460ff16600a6124dc9190614229565b611f87565b905061250e6124f08484612bd8565b61250983600460109054906101000a9004600f0b612c3f565b612b71565b935050505090565b60008061253e84600860009054906101000a900460ff16600a6125399190614229565b611f87565b9050600061256784600860019054906101000a900460ff16600a6125629190614229565b611f87565b905060006125f160096000600260009054906101000a900473ffffffffffffffffffffffffffffffffffffffff1673ffffffffffffffffffffffffffffffffffffffff1673ffffffffffffffffffffffffffffffffffffffff16815260200190815260200160002054600860029054906101000a900460ff16600a6125ec9190614229565b611f87565b9050600061263e612629600760009054906101000a9004600f0b61262485600460109054906101000a9004600f0b612c3f565b612099565b600660109054906101000a9004600f0b612c3f565b90506126838361267e6126698461266489600460009054906101000a9004600f0b612c3f565b612099565b600560009054906101000a9004600f0b612c3f565b612099565b94505050505092915050565b6000806126b784600860009054906101000a900460ff16600a6126b29190614229565b611f87565b905060006126e084600860019054906101000a900460ff16600a6126db9190614229565b611f87565b9050600061276a60096000600260009054906101000a900473ffffffffffffffffffffffffffffffffffffffff1673ffffffffffffffffffffffffffffffffffffffff1673ffffffffffffffffffffffffffffffffffffffff16815260200190815260200160002054600860029054906101000a900460ff16600a6127659190614229565b611f87565b90506127af816127aa612795600760009054906101000a9004600f0b6127908888612bd8565b612099565b600560109054906101000a9004600f0b612c3f565b612099565b935050505092915050565b6000806127e284600860009054906101000a900460ff16600a6127dd9190614229565b611f87565b9050600061280b84600860019054906101000a900460ff16600a6128069190614229565b611f87565b9050600061283487600860029054906101000a900460ff16600a61282f9190614229565b611f87565b9050600061285183600460009054906101000a9004600f0b612c3f565b9050600061289e612889600760009054906101000a9004600f0b61288486600460109054906101000a9004600f0b612c3f565b612099565b600660109054906101000a9004600f0b612c3f565b90506128cb856128c66128b18486612099565b600560009054906101000a9004600f0b612c3f565b612099565b955050505050509392505050565b6000808214156128e857600080fd5b600077ffffffffffffffffffffffffffffffffffffffffffffffff84116129255782604085901b8161291d5761291c614498565b5b049050612a8f565b600060c09050600060c086901c9050640100000000811061294e57602081901c90506020820191505b62010000811061296657601081901c90506010820191505b610100811061297d57600881901c90506008820191505b6010811061299357600481901c90506004820191505b600481106129a957600281901c90506002820191505b600281106129b8576001820191505b600160bf830360018703901c018260ff0387901b816129da576129d9614498565b5b0492506fffffffffffffffffffffffffffffffff8311156129fa57600080fd5b6000608086901c8402905060006fffffffffffffffffffffffffffffffff871685029050600060c089901c9050600060408a901b905082811015612a3f576001820391505b8281039050608084901b925082811015612a5a576001820391505b8281039050608084901c8214612a7357612a7261443a565b5b888181612a8357612a82614498565b5b04870196505050505050505b6fffffffffffffffffffffffffffffffff811115612aac57600080fd5b8091505092915050565b600080821415612ac95760009050612b6b565b600083600f0b1215612ada57600080fd5b600060406fffffffffffffffffffffffffffffffff841685600f0b02901c90506000608084901c85600f0b02905077ffffffffffffffffffffffffffffffffffffffffffffffff811115612b2d57600080fd5b604081901b9050817fffffffffffffffffffffffffffffffffffffffffffffffffffffffffffffffff03811115612b6357600080fd5b818101925050505b92915050565b60008082600f0b84600f0b0190507fffffffffffffffffffffffffffffffff80000000000000000000000000000000600f0b8112158015612bc557506f7fffffffffffffffffffffffffffffff600f0b8113155b612bce57600080fd5b8091505092915050565b600080612bf484600460009054906101000a9004600f0b612c3f565b90506000612c1184600460009054906101000a9004600f0b612c3f565b9050612c35612c208383612b71565b600660009054906101000a9004600f0b612c3f565b9250505092915050565b6000612c5b612c56612c5085612c63565b84612d87565b612df2565b905092915050565b60008082600f0b13612c7457600080fd5b60008083600f0b9050680100000000000000008112612c9b57604081901d90506040820191505b6401000000008112612cb557602081901d90506020820191505b620100008112612ccd57601081901d90506010820191505b6101008112612ce457600881901d90506008820191505b60108112612cfa57600481901d90506004820191505b60048112612d1057600281901d90506002820191505b60028112612d1f576001820191505b60006040808403901b9050600083607f0386600f0b901b9050600067800000000000000090505b6000811315612d7a578182029150600060ff83901c905080607f0183901c92508082028401935050600181901d9050612d46565b5081945050505050919050565b600080604083600f0b85600f0b02901d90507fffffffffffffffffffffffffffffffff80000000000000000000000000000000600f0b8112158015612ddf57506f7fffffffffffffffffffffffffffffff600f0b8113155b612de857600080fd5b8091505092915050565b60006840000000000000000082600f0b12612e0c57600080fd5b7fffffffffffffffffffffffffffffffffffffffffffffffc0000000000000000082600f0b1215612e4057600090506139ed565b60006f80000000000000000000000000000000905060006780000000000000008416600f0b1315612e8657608070016a09e667f3bcc908b2fb1366ea957d3e8202901c90505b60006740000000000000008416600f0b1315612eb75760807001306fe0a31b7152de8d5a46305c85edec8202901c90505b60006720000000000000008416600f0b1315612ee85760807001172b83c7d517adcdf7c8c50eb14a791f8202901c90505b60006710000000000000008416600f0b1315612f1957608070010b5586cf9890f6298b92b71842a983638202901c90505b60006708000000000000008416600f0b1315612f4a5760807001059b0d31585743ae7c548eb68ca417fd8202901c90505b60006704000000000000008416600f0b1315612f7b576080700102c9a3e778060ee6f7caca4f7a29bde88202901c90505b60006702000000000000008416600f0b1315612fac57608070010163da9fb33356d84a66ae336dcdfa3f8202901c90505b60006701000000000000008416600f0b1315612fdd576080700100b1afa5abcbed6129ab13ec11dc95438202901c90505b600066800000000000008416600f0b131561300d57608070010058c86da1c09ea1ff19d294cf2f679b8202901c90505b600066400000000000008416600f0b131561303d5760807001002c605e2e8cec506d21bfc89a23a00f8202901c90505b600066200000000000008416600f0b131561306d576080700100162f3904051fa128bca9c55c31e5df8202901c90505b600066100000000000008416600f0b131561309d5760807001000b175effdc76ba38e31671ca9397258202901c90505b600066080000000000008416600f0b13156130cd576080700100058ba01fb9f96d6cacd4b180917c3d8202901c90505b600066040000000000008416600f0b13156130fd57608070010002c5cc37da9491d0985c348c68e7b38202901c90505b600066020000000000008416600f0b131561312d5760807001000162e525ee054754457d59952920268202901c90505b600066010000000000008416600f0b131561315d57608070010000b17255775c040618bf4a4ade83fc8202901c90505b6000658000000000008416600f0b131561318c5760807001000058b91b5bc9ae2eed81e9b7d4cfab8202901c90505b6000654000000000008416600f0b13156131bb576080700100002c5c89d5ec6ca4d7c8acc017b7c98202901c90505b6000652000000000008416600f0b13156131ea57608070010000162e43f4f831060e02d839a9d16d8202901c90505b6000651000000000008416600f0b1315613219576080700100000b1721bcfc99d9f890ea069117638202901c90505b6000650800000000008416600f0b131561324857608070010000058b90cf1e6d97f9ca14dbcc16288202901c90505b6000650400000000008416600f0b13156132775760807001000002c5c863b73f016468f6bac5ca2b8202901c90505b6000650200000000008416600f0b13156132a6576080700100000162e430e5a18f6119e3c02282a58202901c90505b6000650100000000008416600f0b13156132d55760807001000000b1721835514b86e6d96efd1bfe8202901c90505b60006480000000008416600f0b1315613303576080700100000058b90c0b48c6be5df846c5b2ef8202901c90505b60006440000000008416600f0b131561333157608070010000002c5c8601cc6b9e94213c72737a8202901c90505b60006420000000008416600f0b131561335f5760807001000000162e42fff037df38aa2b219f068202901c90505b60006410000000008416600f0b131561338d57608070010000000b17217fba9c739aa5819f44f98202901c90505b60006408000000008416600f0b13156133bb5760807001000000058b90bfcdee5acd3c1cedc8238202901c90505b60006404000000008416600f0b13156133e9576080700100000002c5c85fe31f35a6a30da1be508202901c90505b60006402000000008416600f0b131561341757608070010000000162e42ff0999ce3541b9fffcf8202901c90505b60006401000000008416600f0b1315613445576080700100000000b17217f80f4ef5aadda455548202901c90505b600063800000008416600f0b131561347257608070010000000058b90bfbf8479bd5a81b51ad8202901c90505b600063400000008416600f0b131561349f5760807001000000002c5c85fdf84bd62ae30a74cc8202901c90505b600063200000008416600f0b13156134cc576080700100000000162e42fefb2fed257559bdaa8202901c90505b600063100000008416600f0b13156134f95760807001000000000b17217f7d5a7716bba4a9ae8202901c90505b600063080000008416600f0b1315613526576080700100000000058b90bfbe9ddbac5e109cce8202901c90505b600063040000008416600f0b131561355357608070010000000002c5c85fdf4b15de6f17eb0d8202901c90505b600063020000008416600f0b13156135805760807001000000000162e42fefa494f1478fde058202901c90505b600063010000008416600f0b13156135ad57608070010000000000b17217f7d20cf927c8e94c8202901c90505b6000628000008416600f0b13156135d95760807001000000000058b90bfbe8f71cb4e4b33d8202901c90505b6000624000008416600f0b1315613605576080700100000000002c5c85fdf477b662b269458202901c90505b6000622000008416600f0b131561363157608070010000000000162e42fefa3ae53369388c8202901c90505b6000621000008416600f0b131561365d576080700100000000000b17217f7d1d351a389d408202901c90505b6000620800008416600f0b131561368957608070010000000000058b90bfbe8e8b2d3d4ede8202901c90505b6000620400008416600f0b13156136b55760807001000000000002c5c85fdf4741bea6e77e8202901c90505b6000620200008416600f0b13156136e1576080700100000000000162e42fefa39fe95583c28202901c90505b6000620100008416600f0b131561370d5760807001000000000000b17217f7d1cfb72b45e18202901c90505b60006180008416600f0b1315613738576080700100000000000058b90bfbe8e7cc35c3f08202901c90505b60006140008416600f0b131561376357608070010000000000002c5c85fdf473e242ea388202901c90505b60006120008416600f0b131561378e5760807001000000000000162e42fefa39f02b772c8202901c90505b60006110008416600f0b13156137b957608070010000000000000b17217f7d1cf7d83c1a8202901c90505b60006108008416600f0b13156137e45760807001000000000000058b90bfbe8e7bdcbe2e8202901c90505b60006104008416600f0b131561380f576080700100000000000002c5c85fdf473dea871f8202901c90505b60006102008416600f0b131561383a57608070010000000000000162e42fefa39ef44d918202901c90505b60006101008416600f0b1315613865576080700100000000000000b17217f7d1cf79e9498202901c90505b600060808416600f0b131561388f57608070010000000000000058b90bfbe8e7bce5448202901c90505b600060408416600f0b13156138b95760807001000000000000002c5c85fdf473de6eca8202901c90505b600060208416600f0b13156138e3576080700100000000000000162e42fefa39ef366f8202901c90505b600060108416600f0b131561390d5760807001000000000000000b17217f7d1cf79afa8202901c90505b600060088416600f0b1315613937576080700100000000000000058b90bfbe8e7bcd6d8202901c90505b600060048416600f0b131561396157608070010000000000000002c5c85fdf473de6b28202901c90505b600060028416600f0b131561398b5760807001000000000000000162e42fefa39ef3588202901c90505b600060018416600f0b13156139b557608070010000000000000000b17217f7d1cf79ab8202901c90505b604083600f0b901d603f03600f0b81901c90506f7fffffffffffffffffffffffffffffff600f0b8111156139e857600080fd5b809150505b919050565b600081359050613a01816147a9565b92915050565b600081519050613a16816147c0565b92915050565b600081359050613a2b816147d7565b92915050565b600081359050613a40816147ee565b92915050565b600081519050613a55816147ee565b92915050565b600060208284031215613a7157613a706144c7565b5b6000613a7f848285016139f2565b91505092915050565b60008060408385031215613a9f57613a9e6144c7565b5b6000613aad858286016139f2565b9250506020613abe85828601613a31565b9150509250929050565b600060208284031215613ade57613add6144c7565b5b6000613aec84828501613a07565b91505092915050565b600080600060608486031215613b0e57613b0d6144c7565b5b6000613b1c86828701613a1c565b9350506020613b2d868287016139f2565b9250506040613b3e868287016139f2565b9150509250925092565b600060208284031215613b5e57613b5d6144c7565b5b6000613b6c84828501613a46565b91505092915050565b600080600060608486031215613b8e57613b8d6144c7565b5b6000613b9c86828701613a31565b9350506020613bad868287016139f2565b9250506040613bbe868287016139f2565b9150509250925092565b600080600060608486031215613be157613be06144c7565b5b6000613bef86828701613a31565b9350506020613c0086828701613a31565b9250506040613c1186828701613a31565b9150509250925092565b613c24816143db565b82525050565b613c33816143ed565b82525050565b613c42816143f9565b82525050565b6000613c55602383614131565b9150613c60826144d9565b604082019050919050565b6000613c78602383614131565b9150613c8382614528565b604082019050919050565b6000613c9b600e83614131565b9150613ca682614577565b602082019050919050565b6000613cbe602183614131565b9150613cc9826145a0565b604082019050919050565b6000613ce1602183614131565b9150613cec826145ef565b604082019050919050565b6000613d04601d83614131565b9150613d0f8261463e565b602082019050919050565b6000613d27602183614131565b9150613d3282614667565b604082019050919050565b6000613d4a601b83614131565b9150613d55826146b6565b602082019050919050565b6000613d6d601783614131565b9150613d78826146df565b602082019050919050565b6000613d90601983614131565b9150613d9b82614708565b602082019050919050565b6000613db3601a83614131565b9150613dbe82614731565b602082019050919050565b6000613dd6602383614131565b9150613de18261475a565b604082019050919050565b613df581614423565b82525050565b6000602082019050613e106000830184613c1b565b92915050565b6000604082019050613e2b6000830185613c1b565b613e386020830184613c1b565b9392505050565b6000606082019050613e546000830186613c1b565b613e616020830185613c1b565b613e6e6040830184613dec565b949350505050565b6000604082019050613e8b6000830185613c1b565b613e986020830184613dec565b9392505050565b6000602082019050613eb46000830184613c2a565b92915050565b6000602082019050613ecf6000830184613c39565b92915050565b6000606082019050613eea6000830186613c39565b613ef76020830185613c39565b613f046040830184613c39565b949350505050565b60006020820190508181036000830152613f2581613c48565b9050919050565b60006020820190508181036000830152613f4581613c6b565b9050919050565b60006020820190508181036000830152613f6581613c8e565b9050919050565b60006020820190508181036000830152613f8581613cb1565b9050919050565b60006020820190508181036000830152613fa581613cd4565b9050919050565b60006020820190508181036000830152613fc581613cf7565b9050919050565b60006020820190508181036000830152613fe581613d1a565b9050919050565b6000602082019050818103600083015261400581613d3d565b9050919050565b6000602082019050818103600083015261402581613d60565b9050919050565b6000602082019050818103600083015261404581613d83565b9050919050565b6000602082019050818103600083015261406581613da6565b9050919050565b6000602082019050818103600083015261408581613dc9565b9050919050565b60006020820190506140a16000830184613dec565b92915050565b60006080820190506140bc6000830187613dec565b6140c96020830186613dec565b6140d66040830185613c1b565b6140e36060830184613c1b565b95945050505050565b60006080820190506141016000830187613dec565b61410e6020830186613dec565b61411b6040830185613dec565b6141286060830184613c39565b95945050505050565b600082825260208201905092915050565b600061414d826143f9565b9150614158836143f9565b9250817f7fffffffffffffffffffffffffffffffffffffffffffffffffffffffffffffff0383136000831215161561419357614192614469565b5b817f80000000000000000000000000000000000000000000000000000000000000000383126000831216156141cb576141ca614469565b5b828201905092915050565b6000808291508390505b6001851115614220578086048111156141fc576141fb614469565b5b600185161561420b5780820291505b8081029050614219856144cc565b94506141e0565b94509492505050565b600061423482614423565b915061423f8361442d565b925061426c7fffffffffffffffffffffffffffffffffffffffffffffffffffffffffffffffff8484614274565b905092915050565b6000826142845760019050614340565b816142925760009050614340565b81600181146142a857600281146142b2576142e1565b6001915050614340565b60ff8411156142c4576142c3614469565b5b8360020a9150848211156142db576142da614469565b5b50614340565b5060208310610133831016604e8410600b84101617156143165782820a90508381111561431157614310614469565b5b614340565b61432384848460016141d6565b9250905081840481111561433a57614339614469565b5b81810290505b9392505050565b6000614352826143f9565b915061435d836143f9565b9250827f80000000000000000000000000000000000000000000000000000000000000000182126000841215161561439857614397614469565b5b827f7fffffffffffffffffffffffffffffffffffffffffffffffffffffffffffffff0182136000841216156143d0576143cf614469565b5b828203905092915050565b60006143e682614403565b9050919050565b60008115159050919050565b6000819050919050565b600073ffffffffffffffffffffffffffffffffffffffff82169050919050565b6000819050919050565b600060ff82169050919050565b7f4e487b7100000000000000000000000000000000000000000000000000000000600052600160045260246000fd5b7f4e487b7100000000000000000000000000000000000000000000000000000000600052601160045260246000fd5b7f4e487b7100000000000000000000000000000000000000000000000000000000600052601260045260246000fd5b600080fd5b60008160011c9050919050565b7f494e53554646494349454e545f415050524f56455f414d4f554e545f544f4b4560008201527f4e5f410000000000000000000000000000000000000000000000000000000000602082015250565b7f494e53554646494349454e545f415050524f56455f414d4f554e545f544f4b4560008201527f4e5f590000000000000000000000000000000000000000000000000000000000602082015250565b7f4d49534d415443485f524154494f000000000000000000000000000000000000600082015250565b7f494e53554646494349454e545f494e5055545f414d4f554e545f544f4b454e5f60008201527f4200000000000000000000000000000000000000000000000000000000000000602082015250565b7f494e53554646494349454e545f494e5055545f414d4f554e545f544f4b454e5f60008201527f4100000000000000000000000000000000000000000000000000000000000000602082015250565b7f494e53554646494349454e545f4c49515549444954595f414d4f554e54000000600082015250565b7f494e53554646494349454e545f494e5055545f414d4f554e545f544f4b454e5f60008201527f5900000000000000000000000000000000000000000000000000000000000000602082015250565b7f494e53554646494349454e545f415050524f56455f414d4f554e540000000000600082015250565b7f494e53554646494349454e545f4f55545f414d4f554e54000000000000000000600082015250565b7f494e53554646494349454e545f494e5055545f414d4f554e5400000000000000600082015250565b7f494e53554646494349454e545f4f55545055545f414d4f554e54000000000000600082015250565b7f494e53554646494349454e545f415050524f56455f414d4f554e545f544f4b4560008201527f4e5f420000000000000000000000000000000000000000000000000000000000602082015250565b6147b2816143db565b81146147bd57600080fd5b50565b6147c9816143ed565b81146147d457600080fd5b50565b6147e0816143f9565b81146147eb57600080fd5b50565b6147f781614423565b811461480257600080fd5b5056fea26469706673582212205b53046b825c193c3cc21ea520ea9816cfff62c68468ac9965d647bd9601dddf64736f6c63430008070033",
  "immutableReferences": {
    "2961": [
      {
        "length": 32,
        "start": 1370
      },
      {
        "length": 32,
        "start": 3084
      }
    ],
    "2964": [
      {
        "length": 32,
        "start": 1607
      },
      {
        "length": 32,
        "start": 3260
      }
    ],
    "2967": [
      {
        "length": 32,
        "start": 1844
      },
      {
        "length": 32,
        "start": 3436
      }
    ]
  },
  "source": "// SPDX-License-Identifier: MIT\npragma solidity >=0.4.22 <0.9.0;\n\nimport {IERC20} from \"@openzeppelin/contracts/token/ERC20/IERC20.sol\";\nimport {IERC20Metadata} from \"@openzeppelin/contracts/token/ERC20/extensions/IERC20Metadata.sol\";\nimport \"./ABDKMath64x64.sol\";\n\ncontract AMM {\n    address public aTokenAddress; // address(0x1f9840a85d5aF5bf1D1762F925BDADdC4201F984);\n    address public bTokenAddress; // address(0xf76D4a441E4ba86A923ce32B89AFF89dBccAA075);\n    address public yTokenAddress; // address(0xaD6D458402F60fD3Bd25163575031ACDce07538D);\n\n    int256 public constant precision = 1000;\n\n    int128 _sigma;\n    int128 _eta;\n\n    int128 _one_minus_sigma;\n    int128 _one_minus_eta;\n    int128 _reverse_sigma;\n    int128 _reverse_eta;\n    int128 _eta_to_sigma;\n    int128 _sigma_to_eta;\n\n    int128 _mu; // constant curve\n    int128 _mme; // maximum margin of error\n\n    uint8 aDecimals;\n    uint8 bDecimals;\n    uint8 yDecimals;\n\n    IERC20 immutable aToken;\n    IERC20 immutable bToken;\n    IERC20 immutable yToken;\n\n    mapping(address => int256) public amounts;\n\n    address owner;\n\n    event Deposit(uint256 aAmount, uint256 bAmount, uint256 yAmount, int256 mu);\n\n    event Swap(\n        uint256 amountIn,\n        uint256 amountOut,\n        address tokenIn,\n        address tokenOut,\n        address indexed sender\n    );\n\n    constructor(\n        address _aToken,\n        address _bToken,\n        address _yToken,\n        int256 sigma,\n        int256 eta,\n        int256 mme\n    ) {\n        aTokenAddress = _aToken;\n        bTokenAddress = _bToken;\n        yTokenAddress = _yToken;\n\n        aToken = IERC20(_aToken);\n        bToken = IERC20(_bToken);\n        yToken = IERC20(_yToken);\n\n        aDecimals = IERC20Metadata(_aToken).decimals();\n        bDecimals = IERC20Metadata(_bToken).decimals();\n        yDecimals = IERC20Metadata(_yToken).decimals();\n\n        _sigma = ABDKMath64x64.divi(sigma, precision);\n        _eta = ABDKMath64x64.divi(eta, precision);\n        _mme = ABDKMath64x64.divi(mme, precision);\n\n        _one_minus_sigma = ABDKMath64x64.sub(ABDKMath64x64.fromInt(1), _sigma);\n        _one_minus_eta = ABDKMath64x64.sub(ABDKMath64x64.fromInt(1), _eta);\n\n        _reverse_sigma = ABDKMath64x64.div(\n            ABDKMath64x64.fromInt(1),\n            _one_minus_sigma\n        );\n        _reverse_eta = ABDKMath64x64.div(\n            ABDKMath64x64.fromInt(1),\n            _one_minus_eta\n        );\n\n        _eta_to_sigma = ABDKMath64x64.div(_one_minus_eta, _one_minus_sigma);\n        _sigma_to_eta = ABDKMath64x64.div(_one_minus_sigma, _one_minus_eta);\n\n        amounts[_aToken] = 0;\n        amounts[_bToken] = 0;\n        amounts[_yToken] = 0;\n        owner = msg.sender;\n    }\n\n    function getPow(int128 x, int128 p) internal pure returns (int128) {\n        return ABDKMath64x64.exp_2(ABDKMath64x64.mul(ABDKMath64x64.log_2(x), p));\n    }\n\n    function getAplusB(int128 a, int128 b) internal view returns (int128) {\n        int128 aexp = getPow(a, _one_minus_sigma);\n        int128 bexp = getPow(b, _one_minus_sigma);\n\n        return getPow(ABDKMath64x64.add(aexp, bexp), _eta_to_sigma);\n    }\n\n    function muFunction() internal view returns (int128) {\n        int128 a = ABDKMath64x64.divi(\n            amounts[aTokenAddress],\n            int256(10**aDecimals)\n        );\n        int128 b = ABDKMath64x64.divi(\n            amounts[bTokenAddress],\n            int256(10**bDecimals)\n        );\n        int128 y = ABDKMath64x64.divi(\n            amounts[yTokenAddress],\n            int256(10**yDecimals)\n        );\n\n        return ABDKMath64x64.add(getAplusB(a, b), getPow(y, _one_minus_eta));\n    }\n\n    function getAtoY(int256 _a, int256 _b)\n        internal\n        view\n        returns (int128 amountOut)\n    {\n        int128 a = ABDKMath64x64.divi(_a, int256(10**aDecimals));\n        int128 b = ABDKMath64x64.divi(_b, int256(10**bDecimals));\n        int128 y = ABDKMath64x64.divi(\n            amounts[yTokenAddress],\n            int256(10**yDecimals)\n        );\n\n        return\n            ABDKMath64x64.sub(\n                y,\n                getPow(ABDKMath64x64.sub(_mu, getAplusB(a, b)), _reverse_eta)\n            );\n    }\n\n    function getYtoA(\n        int256 _y,\n        int256 _a,\n        int256 _b\n    ) internal view returns (int128 amountOut) {\n        int128 a = ABDKMath64x64.divi(_a, int256(10**aDecimals));\n        int128 b = ABDKMath64x64.divi(_b, int256(10**bDecimals));\n        int128 y = ABDKMath64x64.divi(_y, int256(10**yDecimals));\n\n        int128 bexp = getPow(b, _one_minus_sigma);\n        int128 temp = getPow(\n            ABDKMath64x64.sub(_mu, getPow(y, _one_minus_eta)),\n            _sigma_to_eta\n        );\n\n        return\n            ABDKMath64x64.sub(\n                a,\n                getPow(ABDKMath64x64.sub(temp, bexp), _reverse_sigma)\n            );\n    }\n\n    function getAtoB(int256 _a, int256 _b)\n        internal\n        view\n        returns (int128 amountOut)\n    {\n        int128 a = ABDKMath64x64.divi(_a, int256(10**aDecimals));\n        int128 b = ABDKMath64x64.divi(_b, int256(10**bDecimals));\n        int128 y = ABDKMath64x64.divi(\n            amounts[yTokenAddress],\n            int256(10**yDecimals)\n        );\n        int128 temp = getPow(\n            ABDKMath64x64.sub(_mu, getPow(y, _one_minus_eta)),\n            _sigma_to_eta\n        );\n        return\n            ABDKMath64x64.sub(\n                b,\n                getPow(\n                    ABDKMath64x64.sub(temp, getPow(a, _one_minus_sigma)),\n                    _reverse_sigma\n                )\n            );\n    }\n\n    function getAmountsAddToken(address token, uint256 amount)\n        public\n        view\n        returns (\n            int256 addAmountA,\n            int256 addAmountB,\n            int256 addAmountY\n        )\n    {\n        addAmountA = ABDKMath64x64.muli(\n            ABDKMath64x64.divi(amounts[aTokenAddress], amounts[token]),\n            int256(amount)\n        );\n        addAmountB = ABDKMath64x64.muli(\n            ABDKMath64x64.divi(amounts[bTokenAddress], amounts[token]),\n            int256(amount)\n        );\n        addAmountY = ABDKMath64x64.muli(\n            ABDKMath64x64.divi(amounts[yTokenAddress], amounts[token]),\n            int256(amount)\n        );\n    }\n\n    function getAmountOut(\n        int256 amountIn,\n        address tokenIn,\n        address tokenOut\n    ) public view returns (uint256 amountOut) {\n        int128 res = 0;\n        uint8 decimal = 18;\n\n        if (tokenIn == aTokenAddress) {\n            if (tokenOut == bTokenAddress) {\n                res = getAtoB(\n                    amounts[aTokenAddress] + amountIn,\n                    amounts[bTokenAddress]\n                );\n                decimal = bDecimals;\n            } else if (tokenOut == yTokenAddress) {\n                res = getAtoY(\n                    amounts[aTokenAddress] + amountIn,\n                    amounts[bTokenAddress]\n                );\n                decimal = yDecimals;\n            }\n        } else if (tokenIn == bTokenAddress) {\n            if (tokenOut == aTokenAddress) {\n                res = getAtoB(\n                    amounts[bTokenAddress] + amountIn,\n                    amounts[aTokenAddress]\n                );\n                decimal = aDecimals;\n            } else if (tokenOut == yTokenAddress) {\n                res = getAtoY(\n                    amounts[bTokenAddress] + amountIn,\n                    amounts[aTokenAddress]\n                );\n                decimal = yDecimals;\n            }\n        } else if (tokenIn == yTokenAddress) {\n            if (tokenOut == aTokenAddress) {\n                res = getYtoA(\n                    amounts[yTokenAddress] + amountIn,\n                    amounts[aTokenAddress],\n                    amounts[bTokenAddress]\n                );\n                decimal = aDecimals;\n            } else if (tokenOut == bTokenAddress) {\n                res = getYtoA(\n                    amounts[yTokenAddress] + amountIn,\n                    amounts[bTokenAddress],\n                    amounts[aTokenAddress]\n                );\n                decimal = bDecimals;\n            }\n        }\n\n        amountOut = uint256(ABDKMath64x64.muli(res, int256(10**decimal)));\n        require(amountOut > 0, \"INSUFFICIENT_OUT_AMOUNT\");\n\n        return amountOut;\n    }\n\n    function getBalance(address token) public view returns (int256) {\n        return amounts[token];\n    }\n\n    function checkLimit(int256 baseAmount, int256 realAmount)\n        private\n        view\n        returns (bool)\n    {\n        int256 lowerLimit = ABDKMath64x64.muli(\n            ABDKMath64x64.sub(ABDKMath64x64.fromInt(1), _mme),\n            baseAmount\n        );\n        int256 upperLimit = ABDKMath64x64.muli(\n            ABDKMath64x64.add(ABDKMath64x64.fromInt(1), _mme),\n            baseAmount\n        );\n\n        return (lowerLimit < realAmount) && (realAmount < upperLimit);\n    }\n\n    function addLiquidity(\n        uint256 aAmount,\n        uint256 bAmount,\n        uint256 yAmount\n    ) public returns (bool) {\n        require(aAmount > 0, \"INSUFFICIENT_INPUT_AMOUNT_TOKEN_A\");\n        require(bAmount > 0, \"INSUFFICIENT_INPUT_AMOUNT_TOKEN_B\");\n        require(yAmount > 0, \"INSUFFICIENT_INPUT_AMOUNT_TOKEN_Y\");\n\n        require(\n            aToken.allowance(msg.sender, address(this)) >= aAmount,\n            \"INSUFFICIENT_APPROVE_AMOUNT_TOKEN_A\"\n        );\n\n        require(\n            bToken.allowance(msg.sender, address(this)) >= bAmount,\n            \"INSUFFICIENT_APPROVE_AMOUNT_TOKEN_B\"\n        );\n\n        require(\n            yToken.allowance(msg.sender, address(this)) >= yAmount,\n            \"INSUFFICIENT_APPROVE_AMOUNT_TOKEN_Y\"\n        );\n\n        if (msg.sender != owner) {\n            require(\n                amounts[aTokenAddress] > 0 &&\n                    amounts[bTokenAddress] > 0 &&\n                    amounts[yTokenAddress] > 0,\n                \"INSUFFICIENT_LIQUIDITY_AMOUNT\"\n            );\n\n            int128 b_to_a = ABDKMath64x64.divi(\n                amounts[bTokenAddress],\n                amounts[aTokenAddress]\n            );\n            int128 y_to_a = ABDKMath64x64.divi(\n                amounts[yTokenAddress],\n                amounts[aTokenAddress]\n            );\n\n            int256 delta_b = ABDKMath64x64.muli(b_to_a, int256(aAmount));\n            int256 delta_y = ABDKMath64x64.muli(y_to_a, int256(aAmount));\n\n            require(\n                checkLimit(delta_b, int256(bAmount)) &&\n                    checkLimit(delta_y, int256(yAmount)),\n                \"MISMATCH_RATIO\"\n            );\n        }\n\n        aToken.transferFrom(msg.sender, address(this), aAmount);\n        bToken.transferFrom(msg.sender, address(this), bAmount);\n        yToken.transferFrom(msg.sender, address(this), yAmount);\n\n        amounts[aTokenAddress] = amounts[aTokenAddress] + int256(aAmount);\n        amounts[bTokenAddress] = amounts[bTokenAddress] + int256(bAmount);\n        amounts[yTokenAddress] = amounts[yTokenAddress] + int256(yAmount);\n\n        _mu = muFunction();\n        emit Deposit(aAmount, bAmount, yAmount, ABDKMath64x64.muli(_mu, 1000));\n\n        return true;\n    }\n\n    function swapToken(\n        uint256 amountIn,\n        address tokenIn,\n        address tokenOut\n    ) public returns (uint256) {\n        require(amountIn > 0, \"INSUFFICIENT_INPUT_AMOUNT\");\n        IERC20 _tokenIn = IERC20(tokenIn);\n        require(\n            _tokenIn.allowance(msg.sender, address(this)) >= amountIn,\n            \"INSUFFICIENT_APPROVE_AMOUNT\"\n        );\n\n        uint256 amountOut = getAmountOut(int256(amountIn), tokenIn, tokenOut);\n\n        require(\n            amounts[tokenOut] > int256(amountOut),\n            \"INSUFFICIENT_OUTPUT_AMOUNT\"\n        );\n\n        _tokenIn.transferFrom(msg.sender, address(this), amountIn);\n\n        amounts[tokenIn] += int256(amountIn);\n\n        IERC20(tokenOut).transfer(msg.sender, amountOut);\n\n        amounts[tokenOut] -= int256(amountOut);\n\n        emit Swap(amountIn, amountOut, tokenIn, tokenOut, msg.sender);\n\n        return amountOut;\n    }\n}\n",
  "sourcePath": "/home/kevin/work_test/AMM-SmartContract/SmartContracts/contracts/AMM.sol",
  "compiler": {
    "name": "solc",
    "version": "0.8.7+commit.e28d00a7.Emscripten.clang"
  },
  "schemaVersion": "3.4.3",
  "updatedAt": "2021-09-21T18:08:44.100Z",
  "networkType": "ethereum",
  "devdoc": {
    "kind": "dev",
    "methods": {},
    "version": 1
  },
  "userdoc": {
    "kind": "user",
    "methods": {},
    "version": 1
  }
}