{
  "contractName": "AMM",
  "abi": [
    {
      "inputs": [
        {
          "internalType": "int256",
          "name": "sigma",
          "type": "int256"
        },
        {
          "internalType": "int256",
          "name": "eta",
          "type": "int256"
        },
        {
          "internalType": "int256",
          "name": "mme",
          "type": "int256"
        }
      ],
      "stateMutability": "nonpayable",
      "type": "constructor"
    },
    {
      "anonymous": false,
      "inputs": [
        {
          "indexed": false,
          "internalType": "uint256",
          "name": "aAmount",
          "type": "uint256"
        },
        {
          "indexed": false,
          "internalType": "uint256",
          "name": "bAmount",
          "type": "uint256"
        },
        {
          "indexed": false,
          "internalType": "uint256",
          "name": "yAmount",
          "type": "uint256"
        },
        {
          "indexed": false,
          "internalType": "int256",
          "name": "mu",
          "type": "int256"
        }
      ],
      "name": "Deposit",
      "type": "event"
    },
    {
      "anonymous": false,
      "inputs": [
        {
          "indexed": false,
          "internalType": "uint256",
          "name": "amountIn",
          "type": "uint256"
        },
        {
          "indexed": false,
          "internalType": "uint256",
          "name": "amountOut",
          "type": "uint256"
        },
        {
          "indexed": false,
          "internalType": "address",
          "name": "tokenIn",
          "type": "address"
        },
        {
          "indexed": false,
          "internalType": "address",
          "name": "tokenOut",
          "type": "address"
        },
        {
          "indexed": true,
          "internalType": "address",
          "name": "sender",
          "type": "address"
        }
      ],
      "name": "Swap",
      "type": "event"
    },
    {
      "inputs": [],
      "name": "aTokenAddress",
      "outputs": [
        {
          "internalType": "address",
          "name": "",
          "type": "address"
        }
      ],
      "stateMutability": "view",
      "type": "function"
    },
    {
      "inputs": [
        {
          "internalType": "address",
          "name": "",
          "type": "address"
        }
      ],
      "name": "amounts",
      "outputs": [
        {
          "internalType": "int256",
          "name": "",
          "type": "int256"
        }
      ],
      "stateMutability": "view",
      "type": "function"
    },
    {
      "inputs": [],
      "name": "bTokenAddress",
      "outputs": [
        {
          "internalType": "address",
          "name": "",
          "type": "address"
        }
      ],
      "stateMutability": "view",
      "type": "function"
    },
    {
      "inputs": [],
      "name": "precision",
      "outputs": [
        {
          "internalType": "int256",
          "name": "",
          "type": "int256"
        }
      ],
      "stateMutability": "view",
      "type": "function"
    },
    {
      "inputs": [],
      "name": "yTokenAddress",
      "outputs": [
        {
          "internalType": "address",
          "name": "",
          "type": "address"
        }
      ],
      "stateMutability": "view",
      "type": "function"
    },
    {
      "inputs": [
        {
          "internalType": "address",
          "name": "token",
          "type": "address"
        }
      ],
      "name": "getBalance",
      "outputs": [
        {
          "internalType": "int256",
          "name": "",
          "type": "int256"
        }
      ],
      "stateMutability": "view",
      "type": "function"
    },
    {
      "inputs": [
        {
          "internalType": "uint256",
          "name": "aAmount",
          "type": "uint256"
        },
        {
          "internalType": "uint256",
          "name": "bAmount",
          "type": "uint256"
        },
        {
          "internalType": "uint256",
          "name": "yAmount",
          "type": "uint256"
        }
      ],
      "name": "addLiquidity",
      "outputs": [
        {
          "internalType": "bool",
          "name": "",
          "type": "bool"
        }
      ],
      "stateMutability": "nonpayable",
      "type": "function"
    },
    {
      "inputs": [
        {
          "internalType": "uint256",
          "name": "amountIn",
          "type": "uint256"
        },
        {
          "internalType": "address",
          "name": "tokenIn",
          "type": "address"
        },
        {
          "internalType": "address",
          "name": "tokenOut",
          "type": "address"
        }
      ],
      "name": "swap",
      "outputs": [
        {
          "internalType": "uint256",
          "name": "",
          "type": "uint256"
        }
      ],
      "stateMutability": "nonpayable",
      "type": "function"
    }
  ],
  "bytecode": "0x60e06040523480156200001157600080fd5b506040516200504b3803806200504b833981810160405281019062000037919062000c72565b731f9840a85d5af5bf1d1762f925bdaddc4201f98473ffffffffffffffffffffffffffffffffffffffff1660808173ffffffffffffffffffffffffffffffffffffffff1660601b8152505073f76d4a441e4ba86a923ce32b89aff89dbccaa07573ffffffffffffffffffffffffffffffffffffffff1660a08173ffffffffffffffffffffffffffffffffffffffff1660601b8152505073ad6d458402f60fd3bd25163575031acdce07538d73ffffffffffffffffffffffffffffffffffffffff1660c08173ffffffffffffffffffffffffffffffffffffffff1660601b81525050731f9840a85d5af5bf1d1762f925bdaddc4201f98473ffffffffffffffffffffffffffffffffffffffff1663313ce5676040518163ffffffff1660e01b815260040160206040518083038186803b1580156200017357600080fd5b505afa15801562000188573d6000803e3d6000fd5b505050506040513d601f19601f82011682018060405250810190620001ae919062000cce565b600560006101000a81548160ff021916908360ff16021790555073f76d4a441e4ba86a923ce32b89aff89dbccaa07573ffffffffffffffffffffffffffffffffffffffff1663313ce5676040518163ffffffff1660e01b815260040160206040518083038186803b1580156200022357600080fd5b505afa15801562000238573d6000803e3d6000fd5b505050506040513d601f19601f820116820180604052508101906200025e919062000cce565b600560016101000a81548160ff021916908360ff16021790555073ad6d458402f60fd3bd25163575031acdce07538d73ffffffffffffffffffffffffffffffffffffffff1663313ce5676040518163ffffffff1660e01b815260040160206040518083038186803b158015620002d357600080fd5b505afa158015620002e8573d6000803e3d6000fd5b505050506040513d601f19601f820116820180604052508101906200030e919062000cce565b600560026101000a81548160ff021916908360ff16021790555062000341836103e86200083260201b620012391760201c565b6000806101000a8154816fffffffffffffffffffffffffffffffff0219169083600f0b6fffffffffffffffffffffffffffffffff16021790555062000394826103e86200083260201b620012391760201c565b600060106101000a8154816fffffffffffffffffffffffffffffffff0219169083600f0b6fffffffffffffffffffffffffffffffff160217905550620003e8816103e86200083260201b620012391760201c565b600460106101000a8154816fffffffffffffffffffffffffffffffff0219169083600f0b6fffffffffffffffffffffffffffffffff1602179055506200045d6200043e60016200090460201b620012fc1760201c565b60008054906101000a9004600f0b6200095560201b6200134b1760201c565b600160006101000a8154816fffffffffffffffffffffffffffffffff0219169083600f0b6fffffffffffffffffffffffffffffffff160217905550620004d4620004b360016200090460201b620012fc1760201c565b600060109054906101000a9004600f0b6200095560201b6200134b1760201c565b600160106101000a8154816fffffffffffffffffffffffffffffffff0219169083600f0b6fffffffffffffffffffffffffffffffff1602179055506200054b6200052a60016200090460201b620012fc1760201c565b600160009054906101000a9004600f0b620009be60201b620013b21760201c565b600260006101000a8154816fffffffffffffffffffffffffffffffff0219169083600f0b6fffffffffffffffffffffffffffffffff160217905550620005c2620005a160016200090460201b620012fc1760201c565b600160109054906101000a9004600f0b620009be60201b620013b21760201c565b600260106101000a8154816fffffffffffffffffffffffffffffffff0219169083600f0b6fffffffffffffffffffffffffffffffff16021790555062000632600160109054906101000a9004600f0b600160009054906101000a9004600f0b620009be60201b620013b21760201c565b600360006101000a8154816fffffffffffffffffffffffffffffffff0219169083600f0b6fffffffffffffffffffffffffffffffff160217905550620006a2600160009054906101000a9004600f0b600160109054906101000a9004600f0b620009be60201b620013b21760201c565b600360106101000a8154816fffffffffffffffffffffffffffffffff0219169083600f0b6fffffffffffffffffffffffffffffffff160217905550600060066000731f9840a85d5af5bf1d1762f925bdaddc4201f98473ffffffffffffffffffffffffffffffffffffffff1673ffffffffffffffffffffffffffffffffffffffff1681526020019081526020016000208190555060006006600073f76d4a441e4ba86a923ce32b89aff89dbccaa07573ffffffffffffffffffffffffffffffffffffffff1673ffffffffffffffffffffffffffffffffffffffff1681526020019081526020016000208190555060006006600073ad6d458402f60fd3bd25163575031acdce07538d73ffffffffffffffffffffffffffffffffffffffff1673ffffffffffffffffffffffffffffffffffffffff1681526020019081526020016000208190555033600760006101000a81548173ffffffffffffffffffffffffffffffffffffffff021916908373ffffffffffffffffffffffffffffffffffffffff16021790555050505062000dae565b6000808214156200084257600080fd5b6000808412156200085857836000039350600190505b60008312156200086d57826000039250801590505b600062000881858562000a4e60201b60201c565b90508115620008c8576f80000000000000000000000000000000816fffffffffffffffffffffffffffffffff161115620008ba57600080fd5b8060000392505050620008fe565b6f7fffffffffffffffffffffffffffffff816fffffffffffffffffffffffffffffffff161115620008f857600080fd5b80925050505b92915050565b60007fffffffffffffffffffffffffffffffffffffffffffffffff800000000000000082121580156200093f5750677fffffffffffffff8213155b6200094957600080fd5b604082901b9050919050565b60008082600f0b84600f0b0390507fffffffffffffffffffffffffffffffff80000000000000000000000000000000600f0b8112158015620009aa57506f7fffffffffffffffffffffffffffffff600f0b8113155b620009b457600080fd5b8091505092915050565b60008082600f0b1415620009d157600080fd5b600082600f0b604085600f0b901b81620009f057620009ef62000d46565b5b0590507fffffffffffffffffffffffffffffffff80000000000000000000000000000000600f0b811215801562000a3a57506f7fffffffffffffffffffffffffffffff600f0b8113155b62000a4457600080fd5b8091505092915050565b60008082141562000a5e57600080fd5b600077ffffffffffffffffffffffffffffffffffffffffffffffff841162000aa05782604085901b8162000a975762000a9662000d46565b5b04905062000c1c565b600060c09050600060c086901c9050640100000000811062000aca57602081901c90506020820191505b62010000811062000ae357601081901c90506010820191505b610100811062000afb57600881901c90506008820191505b6010811062000b1257600481901c90506004820191505b6004811062000b2957600281901c90506002820191505b6002811062000b39576001820191505b600160bf830360018703901c018260ff0387901b8162000b5e5762000b5d62000d46565b5b0492506fffffffffffffffffffffffffffffffff83111562000b7f57600080fd5b6000608086901c8402905060006fffffffffffffffffffffffffffffffff871685029050600060c089901c9050600060408a901b90508281101562000bc5576001820391505b8281039050608084901b92508281101562000be1576001820391505b8281039050608084901c821462000bfd5762000bfc62000d17565b5b88818162000c105762000c0f62000d46565b5b04870196505050505050505b6fffffffffffffffffffffffffffffffff81111562000c3a57600080fd5b8091505092915050565b60008151905062000c558162000d7a565b92915050565b60008151905062000c6c8162000d94565b92915050565b60008060006060848603121562000c8e5762000c8d62000d75565b5b600062000c9e8682870162000c44565b935050602062000cb18682870162000c44565b925050604062000cc48682870162000c44565b9150509250925092565b60006020828403121562000ce75762000ce662000d75565b5b600062000cf78482850162000c5b565b91505092915050565b6000819050919050565b600060ff82169050919050565b7f4e487b7100000000000000000000000000000000000000000000000000000000600052600160045260246000fd5b7f4e487b7100000000000000000000000000000000000000000000000000000000600052601260045260246000fd5b600080fd5b62000d858162000d00565b811462000d9157600080fd5b50565b62000d9f8162000d0a565b811462000dab57600080fd5b50565b60805160601c60a05160601c60c05160601c61424f62000dfc600039600081816108540152610e2d0152600081816107670152610d7d01526000818161067a0152610ccd015261424f6000f3fe608060405234801561001057600080fd5b50600436106100885760003560e01c8063d3b5dc3b1161005b578063d3b5dc3b1461013b578063dcfc0ced14610159578063e3f3a0d314610177578063f8b2cb4f1461019557610088565b80630ddd2e651461008d5780632b7f0923146100ab578063422f1043146100db57806355a3b2c11461010b575b600080fd5b6100956101c5565b6040516100a2919061385d565b60405180910390f35b6100c560048036038101906100c091906135d7565b6101dd565b6040516100d29190613ab7565b60405180910390f35b6100f560048036038101906100f0919061362a565b6105ad565b6040516101029190613901565b60405180910390f35b61012560048036038101906101209190613550565b6111a2565b604051610132919061391c565b60405180910390f35b6101436111ba565b604051610150919061391c565b60405180910390f35b6101616111c0565b60405161016e919061385d565b60405180910390f35b61017f6111d8565b60405161018c919061385d565b60405180910390f35b6101af60048036038101906101aa9190613550565b6111f0565b6040516101bc919061391c565b60405180910390f35b73f76d4a441e4ba86a923ce32b89aff89dbccaa07581565b6000808411610221576040517f08c379a000000000000000000000000000000000000000000000000000000000815260040161021890613a57565b60405180910390fd5b6000839050848173ffffffffffffffffffffffffffffffffffffffff1663dd62ed3e33306040518363ffffffff1660e01b8152600401610262929190613878565b60206040518083038186803b15801561027a57600080fd5b505afa15801561028e573d6000803e3d6000fd5b505050506040513d601f19601f820116820180604052508101906102b291906135aa565b10156102f3576040517f08c379a00000000000000000000000000000000000000000000000000000000081526004016102ea90613a17565b60405180910390fd5b600061030086868661143c565b905080600660008673ffffffffffffffffffffffffffffffffffffffff1673ffffffffffffffffffffffffffffffffffffffff1681526020019081526020016000205413610383576040517f08c379a000000000000000000000000000000000000000000000000000000000815260040161037a90613a77565b60405180910390fd5b8173ffffffffffffffffffffffffffffffffffffffff166323b872dd3330896040518463ffffffff1660e01b81526004016103c0939291906138a1565b602060405180830381600087803b1580156103da57600080fd5b505af11580156103ee573d6000803e3d6000fd5b505050506040513d601f19601f82011682018060405250810190610412919061357d565b5085600660008773ffffffffffffffffffffffffffffffffffffffff1673ffffffffffffffffffffffffffffffffffffffff16815260200190815260200160002060008282546104629190613b6d565b925050819055508373ffffffffffffffffffffffffffffffffffffffff1663a9059cbb33836040518363ffffffff1660e01b81526004016104a49291906138d8565b602060405180830381600087803b1580156104be57600080fd5b505af11580156104d2573d6000803e3d6000fd5b505050506040513d601f19601f820116820180604052508101906104f6919061357d565b5080600660008673ffffffffffffffffffffffffffffffffffffffff1673ffffffffffffffffffffffffffffffffffffffff16815260200190815260200160002060008282546105469190613d72565b925050819055503373ffffffffffffffffffffffffffffffffffffffff167f4bef092c4d89156b79870894531231803501f7105bf07ea9f24304c70460cc3c878388886040516105999493929190613ad2565b60405180910390a280925050509392505050565b60008084116105f1576040517f08c379a00000000000000000000000000000000000000000000000000000000081526004016105e8906139b7565b60405180910390fd5b60008311610634576040517f08c379a000000000000000000000000000000000000000000000000000000000815260040161062b90613997565b60405180910390fd5b60008211610677576040517f08c379a000000000000000000000000000000000000000000000000000000000815260040161066e906139f7565b60405180910390fd5b837f000000000000000000000000000000000000000000000000000000000000000073ffffffffffffffffffffffffffffffffffffffff1663dd62ed3e33306040518363ffffffff1660e01b81526004016106d3929190613878565b60206040518083038186803b1580156106eb57600080fd5b505afa1580156106ff573d6000803e3d6000fd5b505050506040513d601f19601f8201168201806040525081019061072391906135aa565b1015610764576040517f08c379a000000000000000000000000000000000000000000000000000000000815260040161075b90613937565b60405180910390fd5b827f000000000000000000000000000000000000000000000000000000000000000073ffffffffffffffffffffffffffffffffffffffff1663dd62ed3e33306040518363ffffffff1660e01b81526004016107c0929190613878565b60206040518083038186803b1580156107d857600080fd5b505afa1580156107ec573d6000803e3d6000fd5b505050506040513d601f19601f8201168201806040525081019061081091906135aa565b1015610851576040517f08c379a000000000000000000000000000000000000000000000000000000000815260040161084890613a97565b60405180910390fd5b817f000000000000000000000000000000000000000000000000000000000000000073ffffffffffffffffffffffffffffffffffffffff1663dd62ed3e33306040518363ffffffff1660e01b81526004016108ad929190613878565b60206040518083038186803b1580156108c557600080fd5b505afa1580156108d9573d6000803e3d6000fd5b505050506040513d601f19601f820116820180604052508101906108fd91906135aa565b101561093e576040517f08c379a000000000000000000000000000000000000000000000000000000000815260040161093590613957565b60405180910390fd5b600760009054906101000a900473ffffffffffffffffffffffffffffffffffffffff1673ffffffffffffffffffffffffffffffffffffffff163373ffffffffffffffffffffffffffffffffffffffff1614610ccb57600060066000731f9840a85d5af5bf1d1762f925bdaddc4201f98473ffffffffffffffffffffffffffffffffffffffff1673ffffffffffffffffffffffffffffffffffffffff16815260200190815260200160002054138015610a49575060006006600073f76d4a441e4ba86a923ce32b89aff89dbccaa07573ffffffffffffffffffffffffffffffffffffffff1673ffffffffffffffffffffffffffffffffffffffff16815260200190815260200160002054135b8015610aa8575060006006600073ad6d458402f60fd3bd25163575031acdce07538d73ffffffffffffffffffffffffffffffffffffffff1673ffffffffffffffffffffffffffffffffffffffff16815260200190815260200160002054135b610ae7576040517f08c379a0000000000000000000000000000000000000000000000000000000008152600401610ade906139d7565b60405180910390fd5b6000610b996006600073f76d4a441e4ba86a923ce32b89aff89dbccaa07573ffffffffffffffffffffffffffffffffffffffff1673ffffffffffffffffffffffffffffffffffffffff1681526020019081526020016000205460066000731f9840a85d5af5bf1d1762f925bdaddc4201f98473ffffffffffffffffffffffffffffffffffffffff1673ffffffffffffffffffffffffffffffffffffffff16815260200190815260200160002054611239565b90506000610c4d6006600073ad6d458402f60fd3bd25163575031acdce07538d73ffffffffffffffffffffffffffffffffffffffff1673ffffffffffffffffffffffffffffffffffffffff1681526020019081526020016000205460066000731f9840a85d5af5bf1d1762f925bdaddc4201f98473ffffffffffffffffffffffffffffffffffffffff1673ffffffffffffffffffffffffffffffffffffffff16815260200190815260200160002054611239565b90506000610c5b8388611cd9565b90506000610c698389611cd9565b9050610c758288611e1d565b8015610c875750610c868187611e1d565b5b610cc6576040517f08c379a0000000000000000000000000000000000000000000000000000000008152600401610cbd90613977565b60405180910390fd5b505050505b7f000000000000000000000000000000000000000000000000000000000000000073ffffffffffffffffffffffffffffffffffffffff166323b872dd3330876040518463ffffffff1660e01b8152600401610d28939291906138a1565b602060405180830381600087803b158015610d4257600080fd5b505af1158015610d56573d6000803e3d6000fd5b505050506040513d601f19601f82011682018060405250810190610d7a919061357d565b507f000000000000000000000000000000000000000000000000000000000000000073ffffffffffffffffffffffffffffffffffffffff166323b872dd3330866040518463ffffffff1660e01b8152600401610dd8939291906138a1565b602060405180830381600087803b158015610df257600080fd5b505af1158015610e06573d6000803e3d6000fd5b505050506040513d601f19601f82011682018060405250810190610e2a919061357d565b507f000000000000000000000000000000000000000000000000000000000000000073ffffffffffffffffffffffffffffffffffffffff166323b872dd3330856040518463ffffffff1660e01b8152600401610e88939291906138a1565b602060405180830381600087803b158015610ea257600080fd5b505af1158015610eb6573d6000803e3d6000fd5b505050506040513d601f19601f82011682018060405250810190610eda919061357d565b508360066000731f9840a85d5af5bf1d1762f925bdaddc4201f98473ffffffffffffffffffffffffffffffffffffffff1673ffffffffffffffffffffffffffffffffffffffff16815260200190815260200160002054610f3a9190613b6d565b60066000731f9840a85d5af5bf1d1762f925bdaddc4201f98473ffffffffffffffffffffffffffffffffffffffff1673ffffffffffffffffffffffffffffffffffffffff16815260200190815260200160002081905550826006600073f76d4a441e4ba86a923ce32b89aff89dbccaa07573ffffffffffffffffffffffffffffffffffffffff1673ffffffffffffffffffffffffffffffffffffffff16815260200190815260200160002054610ff09190613b6d565b6006600073f76d4a441e4ba86a923ce32b89aff89dbccaa07573ffffffffffffffffffffffffffffffffffffffff1673ffffffffffffffffffffffffffffffffffffffff16815260200190815260200160002081905550816006600073ad6d458402f60fd3bd25163575031acdce07538d73ffffffffffffffffffffffffffffffffffffffff1673ffffffffffffffffffffffffffffffffffffffff168152602001908152602001600020546110a69190613b6d565b6006600073ad6d458402f60fd3bd25163575031acdce07538d73ffffffffffffffffffffffffffffffffffffffff1673ffffffffffffffffffffffffffffffffffffffff16815260200190815260200160002081905550611105611e94565b600460006101000a8154816fffffffffffffffffffffffffffffffff0219169083600f0b6fffffffffffffffffffffffffffffffff1602179055507f1c70670f6747813675d56793610be0687880b8cdfd4a7908aa8468bd3a5cfdb184848461117f600460009054906101000a9004600f0b6103e8611cd9565b60405161118f9493929190613b17565b60405180910390a1600190509392505050565b60066020528060005260406000206000915090505481565b6103e881565b731f9840a85d5af5bf1d1762f925bdaddc4201f98481565b73ad6d458402f60fd3bd25163575031acdce07538d81565b6000600660008373ffffffffffffffffffffffffffffffffffffffff1673ffffffffffffffffffffffffffffffffffffffff168152602001908152602001600020549050919050565b60008082141561124857600080fd5b60008084121561125d57836000039350600190505b600083121561127157826000039250801590505b600061127d858561203c565b905081156112c1576f80000000000000000000000000000000816fffffffffffffffffffffffffffffffff1611156112b457600080fd5b80600003925050506112f6565b6f7fffffffffffffffffffffffffffffff816fffffffffffffffffffffffffffffffff1611156112f057600080fd5b80925050505b92915050565b60007fffffffffffffffffffffffffffffffffffffffffffffffff800000000000000082121580156113365750677fffffffffffffff8213155b61133f57600080fd5b604082901b9050919050565b60008082600f0b84600f0b0390507fffffffffffffffffffffffffffffffff80000000000000000000000000000000600f0b811215801561139f57506f7fffffffffffffffffffffffffffffff600f0b8113155b6113a857600080fd5b8091505092915050565b60008082600f0b14156113c457600080fd5b600082600f0b604085600f0b901b816113e0576113df613ec3565b5b0590507fffffffffffffffffffffffffffffffff80000000000000000000000000000000600f0b811215801561142957506f7fffffffffffffffffffffffffffffff600f0b8113155b61143257600080fd5b8091505092915050565b60008060009050600060129050731f9840a85d5af5bf1d1762f925bdaddc4201f98473ffffffffffffffffffffffffffffffffffffffff168573ffffffffffffffffffffffffffffffffffffffff1614156116cb5773f76d4a441e4ba86a923ce32b89aff89dbccaa07573ffffffffffffffffffffffffffffffffffffffff168473ffffffffffffffffffffffffffffffffffffffff1614156115ad576115948660066000731f9840a85d5af5bf1d1762f925bdaddc4201f98473ffffffffffffffffffffffffffffffffffffffff1673ffffffffffffffffffffffffffffffffffffffff1681526020019081526020016000205461153b9190613b6d565b6006600073f76d4a441e4ba86a923ce32b89aff89dbccaa07573ffffffffffffffffffffffffffffffffffffffff1673ffffffffffffffffffffffffffffffffffffffff16815260200190815260200160002054612219565b9150600560019054906101000a900460ff1690506116c6565b73ad6d458402f60fd3bd25163575031acdce07538d73ffffffffffffffffffffffffffffffffffffffff168473ffffffffffffffffffffffffffffffffffffffff1614156116c5576116b08660066000731f9840a85d5af5bf1d1762f925bdaddc4201f98473ffffffffffffffffffffffffffffffffffffffff1673ffffffffffffffffffffffffffffffffffffffff168152602001908152602001600020546116579190613b6d565b6006600073f76d4a441e4ba86a923ce32b89aff89dbccaa07573ffffffffffffffffffffffffffffffffffffffff1673ffffffffffffffffffffffffffffffffffffffff16815260200190815260200160002054612384565b9150600560029054906101000a900460ff1690505b5b611c75565b73f76d4a441e4ba86a923ce32b89aff89dbccaa07573ffffffffffffffffffffffffffffffffffffffff168573ffffffffffffffffffffffffffffffffffffffff16141561194d57731f9840a85d5af5bf1d1762f925bdaddc4201f98473ffffffffffffffffffffffffffffffffffffffff168473ffffffffffffffffffffffffffffffffffffffff16141561182f57611816866006600073f76d4a441e4ba86a923ce32b89aff89dbccaa07573ffffffffffffffffffffffffffffffffffffffff1673ffffffffffffffffffffffffffffffffffffffff168152602001908152602001600020546117bd9190613b6d565b60066000731f9840a85d5af5bf1d1762f925bdaddc4201f98473ffffffffffffffffffffffffffffffffffffffff1673ffffffffffffffffffffffffffffffffffffffff16815260200190815260200160002054612219565b9150600560009054906101000a900460ff169050611948565b73ad6d458402f60fd3bd25163575031acdce07538d73ffffffffffffffffffffffffffffffffffffffff168473ffffffffffffffffffffffffffffffffffffffff16141561194757611932866006600073f76d4a441e4ba86a923ce32b89aff89dbccaa07573ffffffffffffffffffffffffffffffffffffffff1673ffffffffffffffffffffffffffffffffffffffff168152602001908152602001600020546118d99190613b6d565b60066000731f9840a85d5af5bf1d1762f925bdaddc4201f98473ffffffffffffffffffffffffffffffffffffffff1673ffffffffffffffffffffffffffffffffffffffff16815260200190815260200160002054612384565b9150600560029054906101000a900460ff1690505b5b611c74565b73ad6d458402f60fd3bd25163575031acdce07538d73ffffffffffffffffffffffffffffffffffffffff168573ffffffffffffffffffffffffffffffffffffffff161415611c7357731f9840a85d5af5bf1d1762f925bdaddc4201f98473ffffffffffffffffffffffffffffffffffffffff168473ffffffffffffffffffffffffffffffffffffffff161415611b0557611aec866006600073ad6d458402f60fd3bd25163575031acdce07538d73ffffffffffffffffffffffffffffffffffffffff1673ffffffffffffffffffffffffffffffffffffffff16815260200190815260200160002054611a3f9190613b6d565b60066000731f9840a85d5af5bf1d1762f925bdaddc4201f98473ffffffffffffffffffffffffffffffffffffffff1673ffffffffffffffffffffffffffffffffffffffff168152602001908152602001600020546006600073f76d4a441e4ba86a923ce32b89aff89dbccaa07573ffffffffffffffffffffffffffffffffffffffff1673ffffffffffffffffffffffffffffffffffffffff168152602001908152602001600020546124a1565b9150600560009054906101000a900460ff169050611c72565b73f76d4a441e4ba86a923ce32b89aff89dbccaa07573ffffffffffffffffffffffffffffffffffffffff168473ffffffffffffffffffffffffffffffffffffffff161415611c7157611c5c866006600073ad6d458402f60fd3bd25163575031acdce07538d73ffffffffffffffffffffffffffffffffffffffff1673ffffffffffffffffffffffffffffffffffffffff16815260200190815260200160002054611baf9190613b6d565b6006600073f76d4a441e4ba86a923ce32b89aff89dbccaa07573ffffffffffffffffffffffffffffffffffffffff1673ffffffffffffffffffffffffffffffffffffffff1681526020019081526020016000205460066000731f9840a85d5af5bf1d1762f925bdaddc4201f98473ffffffffffffffffffffffffffffffffffffffff1673ffffffffffffffffffffffffffffffffffffffff168152602001908152602001600020546124a1565b9150600560019054906101000a900460ff1690505b5b5b5b5b611c8b8282600a611c869190613c54565b611cd9565b925060008311611cd0576040517f08c379a0000000000000000000000000000000000000000000000000000000008152600401611cc790613a37565b60405180910390fd5b50509392505050565b60007fffffffffffffffffffffffffffffffff80000000000000000000000000000000600f0b83600f0b1415611d6a577fffffffffffffffff0000000000000000000000000000000000000000000000018212158015611d52575078010000000000000000000000000000000000000000000000008213155b611d5b57600080fd5b603f82600003901b9050611e17565b60008084600f0b1215611d8257836000039350600190505b6000831215611d9657826000039250801590505b6000611da285856125c0565b90508115611de4577f8000000000000000000000000000000000000000000000000000000000000000811115611dd757600080fd5b8060000392505050611e17565b7f7fffffffffffffffffffffffffffffffffffffffffffffffffffffffffffffff811115611e1157600080fd5b80925050505b92915050565b600080611e4b611e45611e3060016112fc565b600460109054906101000a9004600f0b61134b565b85611cd9565b90506000611e7a611e74611e5f60016112fc565b600460109054906101000a9004600f0b61267b565b86611cd9565b90508382128015611e8a57508084125b9250505092915050565b600080611f0f60066000731f9840a85d5af5bf1d1762f925bdaddc4201f98473ffffffffffffffffffffffffffffffffffffffff1673ffffffffffffffffffffffffffffffffffffffff16815260200190815260200160002054600560009054906101000a900460ff16600a611f0a9190613c54565b611239565b90506000611f8b6006600073f76d4a441e4ba86a923ce32b89aff89dbccaa07573ffffffffffffffffffffffffffffffffffffffff1673ffffffffffffffffffffffffffffffffffffffff16815260200190815260200160002054600560019054906101000a900460ff16600a611f869190613c54565b611239565b905060006120076006600073ad6d458402f60fd3bd25163575031acdce07538d73ffffffffffffffffffffffffffffffffffffffff1673ffffffffffffffffffffffffffffffffffffffff16815260200190815260200160002054600560029054906101000a900460ff16600a6120029190613c54565b611239565b905061203461201684846126e2565b61202f83600160109054906101000a9004600f0b612749565b61267b565b935050505090565b60008082141561204b57600080fd5b600077ffffffffffffffffffffffffffffffffffffffffffffffff84116120885782604085901b816120805761207f613ec3565b5b0490506121f2565b600060c09050600060c086901c905064010000000081106120b157602081901c90506020820191505b6201000081106120c957601081901c90506010820191505b61010081106120e057600881901c90506008820191505b601081106120f657600481901c90506004820191505b6004811061210c57600281901c90506002820191505b6002811061211b576001820191505b600160bf830360018703901c018260ff0387901b8161213d5761213c613ec3565b5b0492506fffffffffffffffffffffffffffffffff83111561215d57600080fd5b6000608086901c8402905060006fffffffffffffffffffffffffffffffff871685029050600060c089901c9050600060408a901b9050828110156121a2576001820391505b8281039050608084901b9250828110156121bd576001820391505b8281039050608084901c82146121d6576121d5613e65565b5b8881816121e6576121e5613ec3565b5b04870196505050505050505b6fffffffffffffffffffffffffffffffff81111561220f57600080fd5b8091505092915050565b60008061224184600560009054906101000a900460ff16600a61223c9190613c54565b611239565b9050600061226a84600560019054906101000a900460ff16600a6122659190613c54565b611239565b905060006122e66006600073ad6d458402f60fd3bd25163575031acdce07538d73ffffffffffffffffffffffffffffffffffffffff1673ffffffffffffffffffffffffffffffffffffffff16815260200190815260200160002054600560029054906101000a900460ff16600a6122e19190613c54565b611239565b9050600061233361231e600460009054906101000a9004600f0b61231985600160109054906101000a9004600f0b612749565b61134b565b600360109054906101000a9004600f0b612749565b90506123788361237361235e8461235989600160009054906101000a9004600f0b612749565b61134b565b600260009054906101000a9004600f0b612749565b61134b565b94505050505092915050565b6000806123ac84600560009054906101000a900460ff16600a6123a79190613c54565b611239565b905060006123d584600560019054906101000a900460ff16600a6123d09190613c54565b611239565b905060006124516006600073ad6d458402f60fd3bd25163575031acdce07538d73ffffffffffffffffffffffffffffffffffffffff1673ffffffffffffffffffffffffffffffffffffffff16815260200190815260200160002054600560029054906101000a900460ff16600a61244c9190613c54565b611239565b90506124968161249161247c600460009054906101000a9004600f0b61247788886126e2565b61134b565b600260109054906101000a9004600f0b612749565b61134b565b935050505092915050565b6000806124c984600560009054906101000a900460ff16600a6124c49190613c54565b611239565b905060006124f284600560019054906101000a900460ff16600a6124ed9190613c54565b611239565b9050600061251b87600560029054906101000a900460ff16600a6125169190613c54565b611239565b9050600061253883600160009054906101000a9004600f0b612749565b90506000612585612570600460009054906101000a9004600f0b61256b86600160109054906101000a9004600f0b612749565b61134b565b600360109054906101000a9004600f0b612749565b90506125b2856125ad612598848661134b565b600260009054906101000a9004600f0b612749565b61134b565b955050505050509392505050565b6000808214156125d35760009050612675565b600083600f0b12156125e457600080fd5b600060406fffffffffffffffffffffffffffffffff841685600f0b02901c90506000608084901c85600f0b02905077ffffffffffffffffffffffffffffffffffffffffffffffff81111561263757600080fd5b604081901b9050817fffffffffffffffffffffffffffffffffffffffffffffffffffffffffffffffff0381111561266d57600080fd5b818101925050505b92915050565b60008082600f0b84600f0b0190507fffffffffffffffffffffffffffffffff80000000000000000000000000000000600f0b81121580156126cf57506f7fffffffffffffffffffffffffffffff600f0b8113155b6126d857600080fd5b8091505092915050565b6000806126fe84600160009054906101000a9004600f0b612749565b9050600061271b84600160009054906101000a9004600f0b612749565b905061273f61272a838361267b565b600360009054906101000a9004600f0b612749565b9250505092915050565b600061276561276061275a8561276d565b84612891565b6128fc565b905092915050565b60008082600f0b1361277e57600080fd5b60008083600f0b90506801000000000000000081126127a557604081901d90506040820191505b64010000000081126127bf57602081901d90506020820191505b6201000081126127d757601081901d90506010820191505b61010081126127ee57600881901d90506008820191505b6010811261280457600481901d90506004820191505b6004811261281a57600281901d90506002820191505b60028112612829576001820191505b60006040808403901b9050600083607f0386600f0b901b9050600067800000000000000090505b6000811315612884578182029150600060ff83901c905080607f0183901c92508082028401935050600181901d9050612850565b5081945050505050919050565b600080604083600f0b85600f0b02901d90507fffffffffffffffffffffffffffffffff80000000000000000000000000000000600f0b81121580156128e957506f7fffffffffffffffffffffffffffffff600f0b8113155b6128f257600080fd5b8091505092915050565b60006840000000000000000082600f0b1261291657600080fd5b7fffffffffffffffffffffffffffffffffffffffffffffffc0000000000000000082600f0b121561294a57600090506134f7565b60006f80000000000000000000000000000000905060006780000000000000008416600f0b131561299057608070016a09e667f3bcc908b2fb1366ea957d3e8202901c90505b60006740000000000000008416600f0b13156129c15760807001306fe0a31b7152de8d5a46305c85edec8202901c90505b60006720000000000000008416600f0b13156129f25760807001172b83c7d517adcdf7c8c50eb14a791f8202901c90505b60006710000000000000008416600f0b1315612a2357608070010b5586cf9890f6298b92b71842a983638202901c90505b60006708000000000000008416600f0b1315612a545760807001059b0d31585743ae7c548eb68ca417fd8202901c90505b60006704000000000000008416600f0b1315612a85576080700102c9a3e778060ee6f7caca4f7a29bde88202901c90505b60006702000000000000008416600f0b1315612ab657608070010163da9fb33356d84a66ae336dcdfa3f8202901c90505b60006701000000000000008416600f0b1315612ae7576080700100b1afa5abcbed6129ab13ec11dc95438202901c90505b600066800000000000008416600f0b1315612b1757608070010058c86da1c09ea1ff19d294cf2f679b8202901c90505b600066400000000000008416600f0b1315612b475760807001002c605e2e8cec506d21bfc89a23a00f8202901c90505b600066200000000000008416600f0b1315612b77576080700100162f3904051fa128bca9c55c31e5df8202901c90505b600066100000000000008416600f0b1315612ba75760807001000b175effdc76ba38e31671ca9397258202901c90505b600066080000000000008416600f0b1315612bd7576080700100058ba01fb9f96d6cacd4b180917c3d8202901c90505b600066040000000000008416600f0b1315612c0757608070010002c5cc37da9491d0985c348c68e7b38202901c90505b600066020000000000008416600f0b1315612c375760807001000162e525ee054754457d59952920268202901c90505b600066010000000000008416600f0b1315612c6757608070010000b17255775c040618bf4a4ade83fc8202901c90505b6000658000000000008416600f0b1315612c965760807001000058b91b5bc9ae2eed81e9b7d4cfab8202901c90505b6000654000000000008416600f0b1315612cc5576080700100002c5c89d5ec6ca4d7c8acc017b7c98202901c90505b6000652000000000008416600f0b1315612cf457608070010000162e43f4f831060e02d839a9d16d8202901c90505b6000651000000000008416600f0b1315612d23576080700100000b1721bcfc99d9f890ea069117638202901c90505b6000650800000000008416600f0b1315612d5257608070010000058b90cf1e6d97f9ca14dbcc16288202901c90505b6000650400000000008416600f0b1315612d815760807001000002c5c863b73f016468f6bac5ca2b8202901c90505b6000650200000000008416600f0b1315612db0576080700100000162e430e5a18f6119e3c02282a58202901c90505b6000650100000000008416600f0b1315612ddf5760807001000000b1721835514b86e6d96efd1bfe8202901c90505b60006480000000008416600f0b1315612e0d576080700100000058b90c0b48c6be5df846c5b2ef8202901c90505b60006440000000008416600f0b1315612e3b57608070010000002c5c8601cc6b9e94213c72737a8202901c90505b60006420000000008416600f0b1315612e695760807001000000162e42fff037df38aa2b219f068202901c90505b60006410000000008416600f0b1315612e9757608070010000000b17217fba9c739aa5819f44f98202901c90505b60006408000000008416600f0b1315612ec55760807001000000058b90bfcdee5acd3c1cedc8238202901c90505b60006404000000008416600f0b1315612ef3576080700100000002c5c85fe31f35a6a30da1be508202901c90505b60006402000000008416600f0b1315612f2157608070010000000162e42ff0999ce3541b9fffcf8202901c90505b60006401000000008416600f0b1315612f4f576080700100000000b17217f80f4ef5aadda455548202901c90505b600063800000008416600f0b1315612f7c57608070010000000058b90bfbf8479bd5a81b51ad8202901c90505b600063400000008416600f0b1315612fa95760807001000000002c5c85fdf84bd62ae30a74cc8202901c90505b600063200000008416600f0b1315612fd6576080700100000000162e42fefb2fed257559bdaa8202901c90505b600063100000008416600f0b13156130035760807001000000000b17217f7d5a7716bba4a9ae8202901c90505b600063080000008416600f0b1315613030576080700100000000058b90bfbe9ddbac5e109cce8202901c90505b600063040000008416600f0b131561305d57608070010000000002c5c85fdf4b15de6f17eb0d8202901c90505b600063020000008416600f0b131561308a5760807001000000000162e42fefa494f1478fde058202901c90505b600063010000008416600f0b13156130b757608070010000000000b17217f7d20cf927c8e94c8202901c90505b6000628000008416600f0b13156130e35760807001000000000058b90bfbe8f71cb4e4b33d8202901c90505b6000624000008416600f0b131561310f576080700100000000002c5c85fdf477b662b269458202901c90505b6000622000008416600f0b131561313b57608070010000000000162e42fefa3ae53369388c8202901c90505b6000621000008416600f0b1315613167576080700100000000000b17217f7d1d351a389d408202901c90505b6000620800008416600f0b131561319357608070010000000000058b90bfbe8e8b2d3d4ede8202901c90505b6000620400008416600f0b13156131bf5760807001000000000002c5c85fdf4741bea6e77e8202901c90505b6000620200008416600f0b13156131eb576080700100000000000162e42fefa39fe95583c28202901c90505b6000620100008416600f0b13156132175760807001000000000000b17217f7d1cfb72b45e18202901c90505b60006180008416600f0b1315613242576080700100000000000058b90bfbe8e7cc35c3f08202901c90505b60006140008416600f0b131561326d57608070010000000000002c5c85fdf473e242ea388202901c90505b60006120008416600f0b13156132985760807001000000000000162e42fefa39f02b772c8202901c90505b60006110008416600f0b13156132c357608070010000000000000b17217f7d1cf7d83c1a8202901c90505b60006108008416600f0b13156132ee5760807001000000000000058b90bfbe8e7bdcbe2e8202901c90505b60006104008416600f0b1315613319576080700100000000000002c5c85fdf473dea871f8202901c90505b60006102008416600f0b131561334457608070010000000000000162e42fefa39ef44d918202901c90505b60006101008416600f0b131561336f576080700100000000000000b17217f7d1cf79e9498202901c90505b600060808416600f0b131561339957608070010000000000000058b90bfbe8e7bce5448202901c90505b600060408416600f0b13156133c35760807001000000000000002c5c85fdf473de6eca8202901c90505b600060208416600f0b13156133ed576080700100000000000000162e42fefa39ef366f8202901c90505b600060108416600f0b13156134175760807001000000000000000b17217f7d1cf79afa8202901c90505b600060088416600f0b1315613441576080700100000000000000058b90bfbe8e7bcd6d8202901c90505b600060048416600f0b131561346b57608070010000000000000002c5c85fdf473de6b28202901c90505b600060028416600f0b13156134955760807001000000000000000162e42fefa39ef3588202901c90505b600060018416600f0b13156134bf57608070010000000000000000b17217f7d1cf79ab8202901c90505b604083600f0b901d603f03600f0b81901c90506f7fffffffffffffffffffffffffffffff600f0b8111156134f257600080fd5b809150505b919050565b60008135905061350b816141d4565b92915050565b600081519050613520816141eb565b92915050565b60008135905061353581614202565b92915050565b60008151905061354a81614202565b92915050565b60006020828403121561356657613565613ef2565b5b6000613574848285016134fc565b91505092915050565b60006020828403121561359357613592613ef2565b5b60006135a184828501613511565b91505092915050565b6000602082840312156135c0576135bf613ef2565b5b60006135ce8482850161353b565b91505092915050565b6000806000606084860312156135f0576135ef613ef2565b5b60006135fe86828701613526565b935050602061360f868287016134fc565b9250506040613620868287016134fc565b9150509250925092565b60008060006060848603121561364357613642613ef2565b5b600061365186828701613526565b935050602061366286828701613526565b925050604061367386828701613526565b9150509250925092565b61368681613e06565b82525050565b61369581613e18565b82525050565b6136a481613e24565b82525050565b60006136b7602383613b5c565b91506136c282613f04565b604082019050919050565b60006136da602383613b5c565b91506136e582613f53565b604082019050919050565b60006136fd600e83613b5c565b915061370882613fa2565b602082019050919050565b6000613720602183613b5c565b915061372b82613fcb565b604082019050919050565b6000613743602183613b5c565b915061374e8261401a565b604082019050919050565b6000613766601d83613b5c565b915061377182614069565b602082019050919050565b6000613789602183613b5c565b915061379482614092565b604082019050919050565b60006137ac601b83613b5c565b91506137b7826140e1565b602082019050919050565b60006137cf601783613b5c565b91506137da8261410a565b602082019050919050565b60006137f2601983613b5c565b91506137fd82614133565b602082019050919050565b6000613815601a83613b5c565b91506138208261415c565b602082019050919050565b6000613838602383613b5c565b915061384382614185565b604082019050919050565b61385781613e4e565b82525050565b6000602082019050613872600083018461367d565b92915050565b600060408201905061388d600083018561367d565b61389a602083018461367d565b9392505050565b60006060820190506138b6600083018661367d565b6138c3602083018561367d565b6138d0604083018461384e565b949350505050565b60006040820190506138ed600083018561367d565b6138fa602083018461384e565b9392505050565b6000602082019050613916600083018461368c565b92915050565b6000602082019050613931600083018461369b565b92915050565b60006020820190508181036000830152613950816136aa565b9050919050565b60006020820190508181036000830152613970816136cd565b9050919050565b60006020820190508181036000830152613990816136f0565b9050919050565b600060208201905081810360008301526139b081613713565b9050919050565b600060208201905081810360008301526139d081613736565b9050919050565b600060208201905081810360008301526139f081613759565b9050919050565b60006020820190508181036000830152613a108161377c565b9050919050565b60006020820190508181036000830152613a308161379f565b9050919050565b60006020820190508181036000830152613a50816137c2565b9050919050565b60006020820190508181036000830152613a70816137e5565b9050919050565b60006020820190508181036000830152613a9081613808565b9050919050565b60006020820190508181036000830152613ab08161382b565b9050919050565b6000602082019050613acc600083018461384e565b92915050565b6000608082019050613ae7600083018761384e565b613af4602083018661384e565b613b01604083018561367d565b613b0e606083018461367d565b95945050505050565b6000608082019050613b2c600083018761384e565b613b39602083018661384e565b613b46604083018561384e565b613b53606083018461369b565b95945050505050565b600082825260208201905092915050565b6000613b7882613e24565b9150613b8383613e24565b9250817f7fffffffffffffffffffffffffffffffffffffffffffffffffffffffffffffff03831360008312151615613bbe57613bbd613e94565b5b817f8000000000000000000000000000000000000000000000000000000000000000038312600083121615613bf657613bf5613e94565b5b828201905092915050565b6000808291508390505b6001851115613c4b57808604811115613c2757613c26613e94565b5b6001851615613c365780820291505b8081029050613c4485613ef7565b9450613c0b565b94509492505050565b6000613c5f82613e4e565b9150613c6a83613e58565b9250613c977fffffffffffffffffffffffffffffffffffffffffffffffffffffffffffffffff8484613c9f565b905092915050565b600082613caf5760019050613d6b565b81613cbd5760009050613d6b565b8160018114613cd35760028114613cdd57613d0c565b6001915050613d6b565b60ff841115613cef57613cee613e94565b5b8360020a915084821115613d0657613d05613e94565b5b50613d6b565b5060208310610133831016604e8410600b8410161715613d415782820a905083811115613d3c57613d3b613e94565b5b613d6b565b613d4e8484846001613c01565b92509050818404811115613d6557613d64613e94565b5b81810290505b9392505050565b6000613d7d82613e24565b9150613d8883613e24565b9250827f800000000000000000000000000000000000000000000000000000000000000001821260008412151615613dc357613dc2613e94565b5b827f7fffffffffffffffffffffffffffffffffffffffffffffffffffffffffffffff018213600084121615613dfb57613dfa613e94565b5b828203905092915050565b6000613e1182613e2e565b9050919050565b60008115159050919050565b6000819050919050565b600073ffffffffffffffffffffffffffffffffffffffff82169050919050565b6000819050919050565b600060ff82169050919050565b7f4e487b7100000000000000000000000000000000000000000000000000000000600052600160045260246000fd5b7f4e487b7100000000000000000000000000000000000000000000000000000000600052601160045260246000fd5b7f4e487b7100000000000000000000000000000000000000000000000000000000600052601260045260246000fd5b600080fd5b60008160011c9050919050565b7f494e53554646494349454e545f415050524f56455f414d4f554e545f544f4b4560008201527f4e5f410000000000000000000000000000000000000000000000000000000000602082015250565b7f494e53554646494349454e545f415050524f56455f414d4f554e545f544f4b4560008201527f4e5f590000000000000000000000000000000000000000000000000000000000602082015250565b7f4d49534d415443485f524154494f000000000000000000000000000000000000600082015250565b7f494e53554646494349454e545f494e5055545f414d4f554e545f544f4b454e5f60008201527f4200000000000000000000000000000000000000000000000000000000000000602082015250565b7f494e53554646494349454e545f494e5055545f414d4f554e545f544f4b454e5f60008201527f4100000000000000000000000000000000000000000000000000000000000000602082015250565b7f494e53554646494349454e545f4c49515549444954595f414d4f554e54000000600082015250565b7f494e53554646494349454e545f494e5055545f414d4f554e545f544f4b454e5f60008201527f5900000000000000000000000000000000000000000000000000000000000000602082015250565b7f494e53554646494349454e545f415050524f56455f414d4f554e540000000000600082015250565b7f494e53554646494349454e545f4f55545f414d4f554e54000000000000000000600082015250565b7f494e53554646494349454e545f494e5055545f414d4f554e5400000000000000600082015250565b7f494e53554646494349454e545f4f55545055545f414d4f554e54000000000000600082015250565b7f494e53554646494349454e545f415050524f56455f414d4f554e545f544f4b4560008201527f4e5f420000000000000000000000000000000000000000000000000000000000602082015250565b6141dd81613e06565b81146141e857600080fd5b50565b6141f481613e18565b81146141ff57600080fd5b50565b61420b81613e4e565b811461421657600080fd5b5056fea2646970667358221220409e0f04546cc73ec4323fec70736fdcddace6769aadf0551c3fd2ea586a6d9b64736f6c63430008070033",
  "immutableReferences": {
    "2973": [
      {
        "length": 32,
        "start": 1658
      },
      {
        "length": 32,
        "start": 3277
      }
    ],
    "2976": [
      {
        "length": 32,
        "start": 1895
      },
      {
        "length": 32,
        "start": 3453
      }
    ],
    "2979": [
      {
        "length": 32,
        "start": 2132
      },
      {
        "length": 32,
        "start": 3629
      }
    ]
  },
  "source": "// SPDX-License-Identifier: MIT\npragma solidity >=0.4.22 <0.9.0;\n\nimport {IERC20} from \"@openzeppelin/contracts/token/ERC20/IERC20.sol\";\nimport {IERC20Metadata} from \"@openzeppelin/contracts/token/ERC20/extensions/IERC20Metadata.sol\";\nimport \"./ABDKMath64x64.sol\";\n\ncontract AMM {\n    address public constant aTokenAddress =\n        address(0x1f9840a85d5aF5bf1D1762F925BDADdC4201F984);\n    address public constant bTokenAddress =\n        address(0xf76D4a441E4ba86A923ce32B89AFF89dBccAA075);\n    address public constant yTokenAddress =\n        address(0xaD6D458402F60fD3Bd25163575031ACDce07538D);\n\n    int256 public constant precision = 1000;\n\n    int128 _sigma;\n    int128 _eta;\n\n    int128 _one_minus_sigma;\n    int128 _one_minus_eta;\n    int128 _reverse_sigma;\n    int128 _reverse_eta;\n    int128 _eta_to_sigma;\n    int128 _sigma_to_eta;\n\n    int128 _mu; // constant curve\n    int128 _mme; // maximum margin of error\n\n    uint8 aDecimals;\n    uint8 bDecimals;\n    uint8 yDecimals;\n\n    IERC20 immutable aToken;\n    IERC20 immutable bToken;\n    IERC20 immutable yToken;\n\n    mapping(address => int256) public amounts;\n\n    address owner;\n\n    event Deposit(uint256 aAmount, uint256 bAmount, uint256 yAmount, int256 mu);\n\n    event Swap(\n        uint256 amountIn,\n        uint256 amountOut,\n        address tokenIn,\n        address tokenOut,\n        address indexed sender\n    );\n\n    constructor(int256 sigma, int256 eta, int256 mme) {\n        aToken = IERC20(aTokenAddress);\n        bToken = IERC20(bTokenAddress);\n        yToken = IERC20(yTokenAddress);\n\n        aDecimals = IERC20Metadata(aTokenAddress).decimals();\n        bDecimals = IERC20Metadata(bTokenAddress).decimals();\n        yDecimals = IERC20Metadata(yTokenAddress).decimals();\n\n        _sigma = ABDKMath64x64.divi(sigma, precision);\n        _eta = ABDKMath64x64.divi(eta, precision);\n        _mme = ABDKMath64x64.divi(mme, precision);\n\n        _one_minus_sigma = ABDKMath64x64.sub(ABDKMath64x64.fromInt(1), _sigma);\n        _one_minus_eta = ABDKMath64x64.sub(ABDKMath64x64.fromInt(1), _eta);\n\n        _reverse_sigma = ABDKMath64x64.div(\n            ABDKMath64x64.fromInt(1),\n            _one_minus_sigma\n        );\n        _reverse_eta = ABDKMath64x64.div(\n            ABDKMath64x64.fromInt(1),\n            _one_minus_eta\n        );\n\n        _eta_to_sigma = ABDKMath64x64.div(_one_minus_eta, _one_minus_sigma);\n        _sigma_to_eta = ABDKMath64x64.div(_one_minus_sigma, _one_minus_eta);\n\n        amounts[aTokenAddress] = 0;\n        amounts[bTokenAddress] = 0;\n        amounts[yTokenAddress] = 0;\n        owner = msg.sender;\n    }\n\n    function getPow(int128 x, int128 p) internal pure returns (int128) {\n        return\n            ABDKMath64x64.exp_2(ABDKMath64x64.mul(ABDKMath64x64.log_2(x), p));\n    }\n\n    function getAplusB(int128 a, int128 b) internal view returns (int128) {\n        int128 aexp = getPow(a, _one_minus_sigma);\n        int128 bexp = getPow(b, _one_minus_sigma);\n\n        return getPow(ABDKMath64x64.add(aexp, bexp), _eta_to_sigma);\n    }\n\n    function muFunction() internal view returns (int128) {\n        int128 a = ABDKMath64x64.divi(amounts[aTokenAddress], int256(10**aDecimals));\n        int128 b = ABDKMath64x64.divi(amounts[bTokenAddress], int256(10**bDecimals));\n        int128 y = ABDKMath64x64.divi(amounts[yTokenAddress], int256(10**yDecimals));\n\n        return ABDKMath64x64.add(getAplusB(a, b), getPow(y, _one_minus_eta));\n    }\n\n    function getAtoY(int256 _a, int256 _b)\n        internal\n        view\n        returns (int128 amountOut)\n    {\n        int128 a = ABDKMath64x64.divi(_a, int256(10**aDecimals));\n        int128 b = ABDKMath64x64.divi(_b, int256(10**bDecimals));\n        int128 y = ABDKMath64x64.divi(\n            amounts[yTokenAddress],\n            int256(10**yDecimals)\n        );\n\n        return\n            ABDKMath64x64.sub(\n                y,\n                getPow(ABDKMath64x64.sub(_mu, getAplusB(a, b)), _reverse_eta)\n            );\n    }\n\n    function getYtoA(\n        int256 _y,\n        int256 _a,\n        int256 _b\n    ) internal view returns (int128 amountOut) {\n        int128 a = ABDKMath64x64.divi(_a, int256(10**aDecimals));\n        int128 b = ABDKMath64x64.divi(_b, int256(10**bDecimals));\n        int128 y = ABDKMath64x64.divi(_y, int256(10**yDecimals));\n\n        int128 bexp = getPow(b, _one_minus_sigma);\n        int128 temp = getPow(\n            ABDKMath64x64.sub(_mu, getPow(y, _one_minus_eta)),\n            _sigma_to_eta\n        );\n\n        return\n            ABDKMath64x64.sub(\n                a,\n                getPow(ABDKMath64x64.sub(temp, bexp), _reverse_sigma)\n            );\n    }\n\n    function getAtoB(int256 _a, int256 _b)\n        internal\n        view\n        returns (int128 amountOut)\n    {\n        int128 a = ABDKMath64x64.divi(_a, int256(10**aDecimals));\n        int128 b = ABDKMath64x64.divi(_b, int256(10**bDecimals));\n        int128 y = ABDKMath64x64.divi(\n            amounts[yTokenAddress],\n            int256(10**yDecimals)\n        );\n        int128 temp = getPow(\n            ABDKMath64x64.sub(_mu, getPow(y, _one_minus_eta)),\n            _sigma_to_eta\n        );\n        return\n            ABDKMath64x64.sub(\n                b,\n                getPow(\n                    ABDKMath64x64.sub(temp, getPow(a, _one_minus_sigma)),\n                    _reverse_sigma\n                )\n            );\n    }\n\n    function getAmountOut(\n        int256 amountIn,\n        address tokenIn,\n        address tokenOut\n    ) internal view returns (uint256 amountOut) {\n        int128 res = 0;\n        uint8 decimal = 18;\n\n        if (tokenIn == aTokenAddress) {\n            if (tokenOut == bTokenAddress) {\n                res = getAtoB(\n                    amounts[aTokenAddress] + amountIn,\n                    amounts[bTokenAddress]\n                );\n                decimal = bDecimals;\n            } else if (tokenOut == yTokenAddress) {\n                res = getAtoY(\n                    amounts[aTokenAddress] + amountIn,\n                    amounts[bTokenAddress]\n                );\n                decimal = yDecimals;\n            }\n        } else if (tokenIn == bTokenAddress) {\n            if (tokenOut == aTokenAddress) {\n                res = getAtoB(\n                    amounts[bTokenAddress] + amountIn,\n                    amounts[aTokenAddress]\n                );\n                decimal = aDecimals;\n            } else if (tokenOut == yTokenAddress) {\n                res = getAtoY(\n                    amounts[bTokenAddress] + amountIn,\n                    amounts[aTokenAddress]\n                );\n                decimal = yDecimals;\n            }\n        } else if (tokenIn == yTokenAddress) {\n            if (tokenOut == aTokenAddress) {\n                res = getYtoA(\n                    amounts[yTokenAddress] + amountIn,\n                    amounts[aTokenAddress],\n                    amounts[bTokenAddress]\n                );\n                decimal = aDecimals;\n            } else if (tokenOut == bTokenAddress) {\n                res = getYtoA(\n                    amounts[yTokenAddress] + amountIn,\n                    amounts[bTokenAddress],\n                    amounts[aTokenAddress]\n                );\n                decimal = bDecimals;\n            }\n        }\n\n        amountOut = uint256(ABDKMath64x64.muli(res, int256(10**decimal)));\n        require(amountOut > 0, \"INSUFFICIENT_OUT_AMOUNT\");\n\n        return amountOut;\n    }\n\n    function getBalance(address token) public view returns (int256) {\n        return amounts[token];\n    }\n\n\n    function checkLimit(int baseAmount, int realAmount) private view returns (bool) {\n      int lowerLimit = ABDKMath64x64.muli(ABDKMath64x64.sub(ABDKMath64x64.fromInt(1), _mme), baseAmount);\n      int upperLimit = ABDKMath64x64.muli(ABDKMath64x64.add(ABDKMath64x64.fromInt(1), _mme), baseAmount);\n\n      return (lowerLimit < realAmount) && (realAmount < upperLimit);\n    }\n\n    function addLiquidity(uint256 aAmount, uint256 bAmount, uint256 yAmount) public returns (bool) {\n        require(aAmount > 0, \"INSUFFICIENT_INPUT_AMOUNT_TOKEN_A\");\n        require(bAmount > 0, \"INSUFFICIENT_INPUT_AMOUNT_TOKEN_B\");\n        require(yAmount > 0, \"INSUFFICIENT_INPUT_AMOUNT_TOKEN_Y\");\n\n        require(\n            aToken.allowance(msg.sender, address(this)) >= aAmount,\n            \"INSUFFICIENT_APPROVE_AMOUNT_TOKEN_A\"\n        );\n\n        require(\n            bToken.allowance(msg.sender, address(this)) >= bAmount,\n            \"INSUFFICIENT_APPROVE_AMOUNT_TOKEN_B\"\n        );\n\n        require(\n            yToken.allowance(msg.sender, address(this)) >= yAmount,\n            \"INSUFFICIENT_APPROVE_AMOUNT_TOKEN_Y\"\n        );\n\n        if (msg.sender != owner) {\n          require(\n            amounts[aTokenAddress] > 0 && amounts[bTokenAddress] > 0 && amounts[yTokenAddress] > 0,\n            \"INSUFFICIENT_LIQUIDITY_AMOUNT\"\n          );\n\n          int128 b_to_a = ABDKMath64x64.divi(amounts[bTokenAddress], amounts[aTokenAddress]);\n          int128 y_to_a = ABDKMath64x64.divi(amounts[yTokenAddress], amounts[aTokenAddress]);\n\n          int delta_b = ABDKMath64x64.muli(b_to_a, int(aAmount));\n          int delta_y = ABDKMath64x64.muli(y_to_a, int(aAmount));\n\n          require(\n            checkLimit(delta_b, int(bAmount)) && checkLimit(delta_y, int(yAmount)),\n            \"MISMATCH_RATIO\"\n          );\n        }\n\n        aToken.transferFrom(msg.sender, address(this), aAmount);\n        bToken.transferFrom(msg.sender, address(this), bAmount);\n        yToken.transferFrom(msg.sender, address(this), yAmount);\n\n        amounts[aTokenAddress] = amounts[aTokenAddress] + int256(aAmount);\n        amounts[bTokenAddress] = amounts[bTokenAddress] + int256(bAmount);\n        amounts[yTokenAddress] = amounts[yTokenAddress] + int256(yAmount);\n\n        _mu = muFunction();\n        emit Deposit(aAmount, bAmount, yAmount, ABDKMath64x64.muli(_mu, 1000));\n        \n        return true;\n    }\n\n    function swap(\n        uint256 amountIn,\n        address tokenIn,\n        address tokenOut\n    ) public returns (uint256) {\n        require(amountIn > 0, \"INSUFFICIENT_INPUT_AMOUNT\");\n        IERC20 _tokenIn = IERC20(tokenIn);\n        require(\n            _tokenIn.allowance(msg.sender, address(this)) >= amountIn,\n            \"INSUFFICIENT_APPROVE_AMOUNT\"\n        );\n\n        uint256 amountOut = getAmountOut(int256(amountIn), tokenIn, tokenOut);\n\n        require(\n            amounts[tokenOut] > int256(amountOut),\n            \"INSUFFICIENT_OUTPUT_AMOUNT\"\n        );\n\n        _tokenIn.transferFrom(msg.sender, address(this), amountIn);\n\n        amounts[tokenIn] += int256(amountIn);\n\n        IERC20(tokenOut).transfer(msg.sender, amountOut);\n\n        amounts[tokenOut] -= int256(amountOut);\n\n        emit Swap(amountIn, amountOut, tokenIn, tokenOut, msg.sender);\n\n        return amountOut;\n    }\n}\n",
  "sourcePath": "/home/kevin/work_test/AMM-SmartContract/SmartContracts/contracts/AMM.sol",
  "compiler": {
    "name": "solc",
    "version": "0.8.7+commit.e28d00a7.Emscripten.clang"
  },
  "schemaVersion": "3.4.3",
  "updatedAt": "2021-09-21T09:41:03.289Z",
  "devdoc": {
    "kind": "dev",
    "methods": {},
    "version": 1
  },
  "userdoc": {
    "kind": "user",
    "methods": {},
    "version": 1
  }
}