{
  "contractName": "AMM",
  "abi": [
    {
      "inputs": [
        {
          "internalType": "int256",
          "name": "sigma",
          "type": "int256"
        },
        {
          "internalType": "int256",
          "name": "eta",
          "type": "int256"
        }
      ],
      "stateMutability": "nonpayable",
      "type": "constructor"
    },
    {
      "anonymous": false,
      "inputs": [
        {
          "indexed": false,
          "internalType": "uint256",
          "name": "amount",
          "type": "uint256"
        },
        {
          "indexed": false,
          "internalType": "address",
          "name": "token",
          "type": "address"
        },
        {
          "indexed": false,
          "internalType": "int256",
          "name": "mu",
          "type": "int256"
        }
      ],
      "name": "Deposit",
      "type": "event"
    },
    {
      "anonymous": false,
      "inputs": [
        {
          "indexed": false,
          "internalType": "uint256",
          "name": "amountIn",
          "type": "uint256"
        },
        {
          "indexed": false,
          "internalType": "uint256",
          "name": "amountOut",
          "type": "uint256"
        },
        {
          "indexed": false,
          "internalType": "address",
          "name": "tokenIn",
          "type": "address"
        },
        {
          "indexed": false,
          "internalType": "address",
          "name": "tokenOut",
          "type": "address"
        },
        {
          "indexed": true,
          "internalType": "address",
          "name": "sender",
          "type": "address"
        }
      ],
      "name": "Swap",
      "type": "event"
    },
    {
      "inputs": [],
      "name": "aTokenAddress",
      "outputs": [
        {
          "internalType": "address",
          "name": "",
          "type": "address"
        }
      ],
      "stateMutability": "view",
      "type": "function"
    },
    {
      "inputs": [
        {
          "internalType": "address",
          "name": "",
          "type": "address"
        }
      ],
      "name": "amounts",
      "outputs": [
        {
          "internalType": "int256",
          "name": "",
          "type": "int256"
        }
      ],
      "stateMutability": "view",
      "type": "function"
    },
    {
      "inputs": [],
      "name": "bTokenAddress",
      "outputs": [
        {
          "internalType": "address",
          "name": "",
          "type": "address"
        }
      ],
      "stateMutability": "view",
      "type": "function"
    },
    {
      "inputs": [],
      "name": "precision",
      "outputs": [
        {
          "internalType": "int256",
          "name": "",
          "type": "int256"
        }
      ],
      "stateMutability": "view",
      "type": "function"
    },
    {
      "inputs": [],
      "name": "yTokenAddress",
      "outputs": [
        {
          "internalType": "address",
          "name": "",
          "type": "address"
        }
      ],
      "stateMutability": "view",
      "type": "function"
    },
    {
      "inputs": [
        {
          "internalType": "address",
          "name": "token",
          "type": "address"
        }
      ],
      "name": "getBalance",
      "outputs": [
        {
          "internalType": "int256",
          "name": "",
          "type": "int256"
        }
      ],
      "stateMutability": "view",
      "type": "function"
    },
    {
      "inputs": [
        {
          "internalType": "address",
          "name": "token",
          "type": "address"
        },
        {
          "internalType": "uint256",
          "name": "amount",
          "type": "uint256"
        }
      ],
      "name": "deposit",
      "outputs": [
        {
          "internalType": "bool",
          "name": "",
          "type": "bool"
        }
      ],
      "stateMutability": "nonpayable",
      "type": "function"
    },
    {
      "inputs": [
        {
          "internalType": "uint256",
          "name": "amountIn",
          "type": "uint256"
        },
        {
          "internalType": "address",
          "name": "tokenIn",
          "type": "address"
        },
        {
          "internalType": "address",
          "name": "tokenOut",
          "type": "address"
        }
      ],
      "name": "swap",
      "outputs": [
        {
          "internalType": "uint256",
          "name": "",
          "type": "uint256"
        }
      ],
      "stateMutability": "nonpayable",
      "type": "function"
    }
  ],
  "bytecode": "0x60e06040523480156200001157600080fd5b50604051620043c4380380620043c4833981810160405281019062000037919062000c1d565b731f9840a85d5af5bf1d1762f925bdaddc4201f98473ffffffffffffffffffffffffffffffffffffffff1660808173ffffffffffffffffffffffffffffffffffffffff1660601b8152505073f76d4a441e4ba86a923ce32b89aff89dbccaa07573ffffffffffffffffffffffffffffffffffffffff1660a08173ffffffffffffffffffffffffffffffffffffffff1660601b8152505073ad6d458402f60fd3bd25163575031acdce07538d73ffffffffffffffffffffffffffffffffffffffff1660c08173ffffffffffffffffffffffffffffffffffffffff1660601b81525050731f9840a85d5af5bf1d1762f925bdaddc4201f98473ffffffffffffffffffffffffffffffffffffffff1663313ce5676040518163ffffffff1660e01b815260040160206040518083038186803b1580156200017357600080fd5b505afa15801562000188573d6000803e3d6000fd5b505050506040513d601f19601f82011682018060405250810190620001ae919062000c64565b600460106101000a81548160ff021916908360ff16021790555073f76d4a441e4ba86a923ce32b89aff89dbccaa07573ffffffffffffffffffffffffffffffffffffffff1663313ce5676040518163ffffffff1660e01b815260040160206040518083038186803b1580156200022357600080fd5b505afa15801562000238573d6000803e3d6000fd5b505050506040513d601f19601f820116820180604052508101906200025e919062000c64565b600460116101000a81548160ff021916908360ff16021790555073ad6d458402f60fd3bd25163575031acdce07538d73ffffffffffffffffffffffffffffffffffffffff1663313ce5676040518163ffffffff1660e01b815260040160206040518083038186803b158015620002d357600080fd5b505afa158015620002e8573d6000803e3d6000fd5b505050506040513d601f19601f820116820180604052508101906200030e919062000c64565b600460126101000a81548160ff021916908360ff16021790555062000341826103e8620007dd60201b62000b471760201c565b6000806101000a8154816fffffffffffffffffffffffffffffffff0219169083600f0b6fffffffffffffffffffffffffffffffff16021790555062000394816103e8620007dd60201b62000b471760201c565b600060106101000a8154816fffffffffffffffffffffffffffffffff0219169083600f0b6fffffffffffffffffffffffffffffffff16021790555062000409620003ea6001620008af60201b62000c0a1760201c565b60008054906101000a9004600f0b6200090060201b62000c591760201c565b600160006101000a8154816fffffffffffffffffffffffffffffffff0219169083600f0b6fffffffffffffffffffffffffffffffff160217905550620004806200045f6001620008af60201b62000c0a1760201c565b600060109054906101000a9004600f0b6200090060201b62000c591760201c565b600160106101000a8154816fffffffffffffffffffffffffffffffff0219169083600f0b6fffffffffffffffffffffffffffffffff160217905550620004f7620004d66001620008af60201b62000c0a1760201c565b600160009054906101000a9004600f0b6200096960201b62000cc01760201c565b600260006101000a8154816fffffffffffffffffffffffffffffffff0219169083600f0b6fffffffffffffffffffffffffffffffff1602179055506200056e6200054d6001620008af60201b62000c0a1760201c565b600160109054906101000a9004600f0b6200096960201b62000cc01760201c565b600260106101000a8154816fffffffffffffffffffffffffffffffff0219169083600f0b6fffffffffffffffffffffffffffffffff160217905550620005de600160109054906101000a9004600f0b600160009054906101000a9004600f0b6200096960201b62000cc01760201c565b600360006101000a8154816fffffffffffffffffffffffffffffffff0219169083600f0b6fffffffffffffffffffffffffffffffff1602179055506200064e600160009054906101000a9004600f0b600160109054906101000a9004600f0b6200096960201b62000cc01760201c565b600360106101000a8154816fffffffffffffffffffffffffffffffff0219169083600f0b6fffffffffffffffffffffffffffffffff160217905550600060056000731f9840a85d5af5bf1d1762f925bdaddc4201f98473ffffffffffffffffffffffffffffffffffffffff1673ffffffffffffffffffffffffffffffffffffffff1681526020019081526020016000208190555060006005600073f76d4a441e4ba86a923ce32b89aff89dbccaa07573ffffffffffffffffffffffffffffffffffffffff1673ffffffffffffffffffffffffffffffffffffffff1681526020019081526020016000208190555060006005600073ad6d458402f60fd3bd25163575031acdce07538d73ffffffffffffffffffffffffffffffffffffffff1673ffffffffffffffffffffffffffffffffffffffff1681526020019081526020016000208190555033600660006101000a81548173ffffffffffffffffffffffffffffffffffffffff021916908373ffffffffffffffffffffffffffffffffffffffff160217905550505062000d44565b600080821415620007ed57600080fd5b6000808412156200080357836000039350600190505b60008312156200081857826000039250801590505b60006200082c8585620009f960201b60201c565b9050811562000873576f80000000000000000000000000000000816fffffffffffffffffffffffffffffffff1611156200086557600080fd5b8060000392505050620008a9565b6f7fffffffffffffffffffffffffffffff816fffffffffffffffffffffffffffffffff161115620008a357600080fd5b80925050505b92915050565b60007fffffffffffffffffffffffffffffffffffffffffffffffff80000000000000008212158015620008ea5750677fffffffffffffff8213155b620008f457600080fd5b604082901b9050919050565b60008082600f0b84600f0b0390507fffffffffffffffffffffffffffffffff80000000000000000000000000000000600f0b81121580156200095557506f7fffffffffffffffffffffffffffffff600f0b8113155b6200095f57600080fd5b8091505092915050565b60008082600f0b14156200097c57600080fd5b600082600f0b604085600f0b901b816200099b576200099a62000cdc565b5b0590507fffffffffffffffffffffffffffffffff80000000000000000000000000000000600f0b8112158015620009e557506f7fffffffffffffffffffffffffffffff600f0b8113155b620009ef57600080fd5b8091505092915050565b60008082141562000a0957600080fd5b600077ffffffffffffffffffffffffffffffffffffffffffffffff841162000a4b5782604085901b8162000a425762000a4162000cdc565b5b04905062000bc7565b600060c09050600060c086901c9050640100000000811062000a7557602081901c90506020820191505b62010000811062000a8e57601081901c90506010820191505b610100811062000aa657600881901c90506008820191505b6010811062000abd57600481901c90506004820191505b6004811062000ad457600281901c90506002820191505b6002811062000ae4576001820191505b600160bf830360018703901c018260ff0387901b8162000b095762000b0862000cdc565b5b0492506fffffffffffffffffffffffffffffffff83111562000b2a57600080fd5b6000608086901c8402905060006fffffffffffffffffffffffffffffffff871685029050600060c089901c9050600060408a901b90508281101562000b70576001820391505b8281039050608084901b92508281101562000b8c576001820391505b8281039050608084901c821462000ba85762000ba762000cad565b5b88818162000bbb5762000bba62000cdc565b5b04870196505050505050505b6fffffffffffffffffffffffffffffffff81111562000be557600080fd5b8091505092915050565b60008151905062000c008162000d10565b92915050565b60008151905062000c178162000d2a565b92915050565b6000806040838503121562000c375762000c3662000d0b565b5b600062000c478582860162000bef565b925050602062000c5a8582860162000bef565b9150509250929050565b60006020828403121562000c7d5762000c7c62000d0b565b5b600062000c8d8482850162000c06565b91505092915050565b6000819050919050565b600060ff82169050919050565b7f4e487b7100000000000000000000000000000000000000000000000000000000600052600160045260246000fd5b7f4e487b7100000000000000000000000000000000000000000000000000000000600052601260045260246000fd5b600080fd5b62000d1b8162000c96565b811462000d2757600080fd5b50565b62000d358162000ca0565b811462000d4157600080fd5b50565b60805160601c60a05160601c60c05160601c61365062000d746000396000505060005050600050506136506000f3fe608060405234801561001057600080fd5b50600436106100885760003560e01c8063d3b5dc3b1161005b578063d3b5dc3b1461013b578063dcfc0ced14610159578063e3f3a0d314610177578063f8b2cb4f1461019557610088565b80630ddd2e651461008d5780632b7f0923146100ab57806347e7ef24146100db57806355a3b2c11461010b575b600080fd5b6100956101c5565b6040516100a29190612f06565b60405180910390f35b6100c560048036038101906100c09190612db9565b6101dd565b6040516100d29190613080565b60405180910390f35b6100f560048036038101906100f09190612d1f565b6105ad565b6040516101029190612faa565b60405180910390f35b61012560048036038101906101209190612cf2565b610ab0565b6040516101329190612fc5565b60405180910390f35b610143610ac8565b6040516101509190612fc5565b60405180910390f35b610161610ace565b60405161016e9190612f06565b60405180910390f35b61017f610ae6565b60405161018c9190612f06565b60405180910390f35b6101af60048036038101906101aa9190612cf2565b610afe565b6040516101bc9190612fc5565b60405180910390f35b73f76d4a441e4ba86a923ce32b89aff89dbccaa07581565b6000808411610221576040517f08c379a000000000000000000000000000000000000000000000000000000000815260040161021890613020565b60405180910390fd5b6000839050848173ffffffffffffffffffffffffffffffffffffffff1663dd62ed3e33306040518363ffffffff1660e01b8152600401610262929190612f21565b60206040518083038186803b15801561027a57600080fd5b505afa15801561028e573d6000803e3d6000fd5b505050506040513d601f19601f820116820180604052508101906102b29190612d8c565b10156102f3576040517f08c379a00000000000000000000000000000000000000000000000000000000081526004016102ea90612fe0565b60405180910390fd5b6000610300868686610d4a565b905080600560008673ffffffffffffffffffffffffffffffffffffffff1673ffffffffffffffffffffffffffffffffffffffff1681526020019081526020016000205413610383576040517f08c379a000000000000000000000000000000000000000000000000000000000815260040161037a90613060565b60405180910390fd5b8173ffffffffffffffffffffffffffffffffffffffff166323b872dd3330896040518463ffffffff1660e01b81526004016103c093929190612f4a565b602060405180830381600087803b1580156103da57600080fd5b505af11580156103ee573d6000803e3d6000fd5b505050506040513d601f19601f820116820180604052508101906104129190612d5f565b5085600560008773ffffffffffffffffffffffffffffffffffffffff1673ffffffffffffffffffffffffffffffffffffffff1681526020019081526020016000206000828254610462919061315f565b925050819055508373ffffffffffffffffffffffffffffffffffffffff1663a9059cbb33836040518363ffffffff1660e01b81526004016104a4929190612f81565b602060405180830381600087803b1580156104be57600080fd5b505af11580156104d2573d6000803e3d6000fd5b505050506040513d601f19601f820116820180604052508101906104f69190612d5f565b5080600560008673ffffffffffffffffffffffffffffffffffffffff1673ffffffffffffffffffffffffffffffffffffffff16815260200190815260200160002060008282546105469190613364565b925050819055503373ffffffffffffffffffffffffffffffffffffffff167f4bef092c4d89156b79870894531231803501f7105bf07ea9f24304c70460cc3c878388886040516105999493929190613109565b60405180910390a280925050509392505050565b60003373ffffffffffffffffffffffffffffffffffffffff16600660009054906101000a900473ffffffffffffffffffffffffffffffffffffffff1673ffffffffffffffffffffffffffffffffffffffff161461063f576040517f08c379a000000000000000000000000000000000000000000000000000000000815260040161063690613040565b60405180910390fd5b60008211610682576040517f08c379a000000000000000000000000000000000000000000000000000000000815260040161067990613020565b60405180910390fd5b6000839050828173ffffffffffffffffffffffffffffffffffffffff1663dd62ed3e600660009054906101000a900473ffffffffffffffffffffffffffffffffffffffff16306040518363ffffffff1660e01b81526004016106e5929190612f21565b60206040518083038186803b1580156106fd57600080fd5b505afa158015610711573d6000803e3d6000fd5b505050506040513d601f19601f820116820180604052508101906107359190612d8c565b1015610776576040517f08c379a000000000000000000000000000000000000000000000000000000000815260040161076d90612fe0565b60405180910390fd5b8073ffffffffffffffffffffffffffffffffffffffff166323b872dd3330866040518463ffffffff1660e01b81526004016107b393929190612f4a565b602060405180830381600087803b1580156107cd57600080fd5b505af11580156107e1573d6000803e3d6000fd5b505050506040513d601f19601f820116820180604052508101906108059190612d5f565b5082600560008673ffffffffffffffffffffffffffffffffffffffff1673ffffffffffffffffffffffffffffffffffffffff16815260200190815260200160002054610851919061315f565b600560008673ffffffffffffffffffffffffffffffffffffffff1673ffffffffffffffffffffffffffffffffffffffff16815260200190815260200160002081905550600060056000731f9840a85d5af5bf1d1762f925bdaddc4201f98473ffffffffffffffffffffffffffffffffffffffff1673ffffffffffffffffffffffffffffffffffffffff16815260200190815260200160002054905060006005600073f76d4a441e4ba86a923ce32b89aff89dbccaa07573ffffffffffffffffffffffffffffffffffffffff1673ffffffffffffffffffffffffffffffffffffffff16815260200190815260200160002054905060006005600073ad6d458402f60fd3bd25163575031acdce07538d73ffffffffffffffffffffffffffffffffffffffff1673ffffffffffffffffffffffffffffffffffffffff1681526020019081526020016000205490506000831380156109ac5750600082135b80156109b85750600081135b15610a65576109c88383836115e7565b600460006101000a8154816fffffffffffffffffffffffffffffffff0219169083600f0b6fffffffffffffffffffffffffffffffff1602179055507fd778d84255d1b73e8206f8b933689456acbbac9b48c1d13448aa204215969c548688610a41600460009054906101000a9004600f0b6103e861169a565b604051610a509392919061309b565b60405180910390a16001945050505050610aaa565b7fd778d84255d1b73e8206f8b933689456acbbac9b48c1d13448aa204215969c5486886000604051610a99939291906130d2565b60405180910390a160009450505050505b92915050565b60056020528060005260406000206000915090505481565b6103e881565b731f9840a85d5af5bf1d1762f925bdaddc4201f98481565b73ad6d458402f60fd3bd25163575031acdce07538d81565b6000600560008373ffffffffffffffffffffffffffffffffffffffff1673ffffffffffffffffffffffffffffffffffffffff168152602001908152602001600020549050919050565b600080821415610b5657600080fd5b600080841215610b6b57836000039350600190505b6000831215610b7f57826000039250801590505b6000610b8b85856117de565b90508115610bcf576f80000000000000000000000000000000816fffffffffffffffffffffffffffffffff161115610bc257600080fd5b8060000392505050610c04565b6f7fffffffffffffffffffffffffffffff816fffffffffffffffffffffffffffffffff161115610bfe57600080fd5b80925050505b92915050565b60007fffffffffffffffffffffffffffffffffffffffffffffffff80000000000000008212158015610c445750677fffffffffffffff8213155b610c4d57600080fd5b604082901b9050919050565b60008082600f0b84600f0b0390507fffffffffffffffffffffffffffffffff80000000000000000000000000000000600f0b8112158015610cad57506f7fffffffffffffffffffffffffffffff600f0b8113155b610cb657600080fd5b8091505092915050565b60008082600f0b1415610cd257600080fd5b600082600f0b604085600f0b901b81610cee57610ced6134c7565b5b0590507fffffffffffffffffffffffffffffffff80000000000000000000000000000000600f0b8112158015610d3757506f7fffffffffffffffffffffffffffffff600f0b8113155b610d4057600080fd5b8091505092915050565b60008060009050600060129050731f9840a85d5af5bf1d1762f925bdaddc4201f98473ffffffffffffffffffffffffffffffffffffffff168573ffffffffffffffffffffffffffffffffffffffff161415610fd95773f76d4a441e4ba86a923ce32b89aff89dbccaa07573ffffffffffffffffffffffffffffffffffffffff168473ffffffffffffffffffffffffffffffffffffffff161415610ebb57610ea28660056000731f9840a85d5af5bf1d1762f925bdaddc4201f98473ffffffffffffffffffffffffffffffffffffffff1673ffffffffffffffffffffffffffffffffffffffff16815260200190815260200160002054610e49919061315f565b6005600073f76d4a441e4ba86a923ce32b89aff89dbccaa07573ffffffffffffffffffffffffffffffffffffffff1673ffffffffffffffffffffffffffffffffffffffff168152602001908152602001600020546119bb565b9150600460119054906101000a900460ff169050610fd4565b73ad6d458402f60fd3bd25163575031acdce07538d73ffffffffffffffffffffffffffffffffffffffff168473ffffffffffffffffffffffffffffffffffffffff161415610fd357610fbe8660056000731f9840a85d5af5bf1d1762f925bdaddc4201f98473ffffffffffffffffffffffffffffffffffffffff1673ffffffffffffffffffffffffffffffffffffffff16815260200190815260200160002054610f65919061315f565b6005600073f76d4a441e4ba86a923ce32b89aff89dbccaa07573ffffffffffffffffffffffffffffffffffffffff1673ffffffffffffffffffffffffffffffffffffffff16815260200190815260200160002054611b26565b9150600460129054906101000a900460ff1690505b5b611583565b73f76d4a441e4ba86a923ce32b89aff89dbccaa07573ffffffffffffffffffffffffffffffffffffffff168573ffffffffffffffffffffffffffffffffffffffff16141561125b57731f9840a85d5af5bf1d1762f925bdaddc4201f98473ffffffffffffffffffffffffffffffffffffffff168473ffffffffffffffffffffffffffffffffffffffff16141561113d57611124866005600073f76d4a441e4ba86a923ce32b89aff89dbccaa07573ffffffffffffffffffffffffffffffffffffffff1673ffffffffffffffffffffffffffffffffffffffff168152602001908152602001600020546110cb919061315f565b60056000731f9840a85d5af5bf1d1762f925bdaddc4201f98473ffffffffffffffffffffffffffffffffffffffff1673ffffffffffffffffffffffffffffffffffffffff168152602001908152602001600020546119bb565b9150600460109054906101000a900460ff169050611256565b73ad6d458402f60fd3bd25163575031acdce07538d73ffffffffffffffffffffffffffffffffffffffff168473ffffffffffffffffffffffffffffffffffffffff16141561125557611240866005600073f76d4a441e4ba86a923ce32b89aff89dbccaa07573ffffffffffffffffffffffffffffffffffffffff1673ffffffffffffffffffffffffffffffffffffffff168152602001908152602001600020546111e7919061315f565b60056000731f9840a85d5af5bf1d1762f925bdaddc4201f98473ffffffffffffffffffffffffffffffffffffffff1673ffffffffffffffffffffffffffffffffffffffff16815260200190815260200160002054611b26565b9150600460129054906101000a900460ff1690505b5b611582565b73ad6d458402f60fd3bd25163575031acdce07538d73ffffffffffffffffffffffffffffffffffffffff168573ffffffffffffffffffffffffffffffffffffffff16141561158157731f9840a85d5af5bf1d1762f925bdaddc4201f98473ffffffffffffffffffffffffffffffffffffffff168473ffffffffffffffffffffffffffffffffffffffff161415611413576113fa866005600073ad6d458402f60fd3bd25163575031acdce07538d73ffffffffffffffffffffffffffffffffffffffff1673ffffffffffffffffffffffffffffffffffffffff1681526020019081526020016000205461134d919061315f565b60056000731f9840a85d5af5bf1d1762f925bdaddc4201f98473ffffffffffffffffffffffffffffffffffffffff1673ffffffffffffffffffffffffffffffffffffffff168152602001908152602001600020546005600073f76d4a441e4ba86a923ce32b89aff89dbccaa07573ffffffffffffffffffffffffffffffffffffffff1673ffffffffffffffffffffffffffffffffffffffff16815260200190815260200160002054611c43565b9150600460109054906101000a900460ff169050611580565b73f76d4a441e4ba86a923ce32b89aff89dbccaa07573ffffffffffffffffffffffffffffffffffffffff168473ffffffffffffffffffffffffffffffffffffffff16141561157f5761156a866005600073ad6d458402f60fd3bd25163575031acdce07538d73ffffffffffffffffffffffffffffffffffffffff1673ffffffffffffffffffffffffffffffffffffffff168152602001908152602001600020546114bd919061315f565b6005600073f76d4a441e4ba86a923ce32b89aff89dbccaa07573ffffffffffffffffffffffffffffffffffffffff1673ffffffffffffffffffffffffffffffffffffffff1681526020019081526020016000205460056000731f9840a85d5af5bf1d1762f925bdaddc4201f98473ffffffffffffffffffffffffffffffffffffffff1673ffffffffffffffffffffffffffffffffffffffff16815260200190815260200160002054611c43565b9150600460119054906101000a900460ff1690505b5b5b5b5b6115998282600a6115949190613246565b61169a565b9250600083116115de576040517f08c379a00000000000000000000000000000000000000000000000000000000081526004016115d590613000565b60405180910390fd5b50509392505050565b60008061160f85600460109054906101000a900460ff16600a61160a9190613246565b610b47565b9050600061163885600460119054906101000a900460ff16600a6116339190613246565b610b47565b9050600061166185600460129054906101000a900460ff16600a61165c9190613246565b610b47565b905061168e6116708484611d62565b61168983600160109054906101000a9004600f0b611dc9565b611ded565b93505050509392505050565b60007fffffffffffffffffffffffffffffffff80000000000000000000000000000000600f0b83600f0b141561172b577fffffffffffffffff0000000000000000000000000000000000000000000000018212158015611713575078010000000000000000000000000000000000000000000000008213155b61171c57600080fd5b603f82600003901b90506117d8565b60008084600f0b121561174357836000039350600190505b600083121561175757826000039250801590505b60006117638585611e54565b905081156117a5577f800000000000000000000000000000000000000000000000000000000000000081111561179857600080fd5b80600003925050506117d8565b7f7fffffffffffffffffffffffffffffffffffffffffffffffffffffffffffffff8111156117d257600080fd5b80925050505b92915050565b6000808214156117ed57600080fd5b600077ffffffffffffffffffffffffffffffffffffffffffffffff841161182a5782604085901b81611822576118216134c7565b5b049050611994565b600060c09050600060c086901c9050640100000000811061185357602081901c90506020820191505b62010000811061186b57601081901c90506010820191505b610100811061188257600881901c90506008820191505b6010811061189857600481901c90506004820191505b600481106118ae57600281901c90506002820191505b600281106118bd576001820191505b600160bf830360018703901c018260ff0387901b816118df576118de6134c7565b5b0492506fffffffffffffffffffffffffffffffff8311156118ff57600080fd5b6000608086901c8402905060006fffffffffffffffffffffffffffffffff871685029050600060c089901c9050600060408a901b905082811015611944576001820391505b8281039050608084901b92508281101561195f576001820391505b8281039050608084901c821461197857611977613469565b5b888181611988576119876134c7565b5b04870196505050505050505b6fffffffffffffffffffffffffffffffff8111156119b157600080fd5b8091505092915050565b6000806119e384600460109054906101000a900460ff16600a6119de9190613246565b610b47565b90506000611a0c84600460119054906101000a900460ff16600a611a079190613246565b610b47565b90506000611a886005600073ad6d458402f60fd3bd25163575031acdce07538d73ffffffffffffffffffffffffffffffffffffffff1673ffffffffffffffffffffffffffffffffffffffff16815260200190815260200160002054600460129054906101000a900460ff16600a611a839190613246565b610b47565b90506000611ad5611ac0600460009054906101000a9004600f0b611abb85600160109054906101000a9004600f0b611dc9565b610c59565b600360109054906101000a9004600f0b611dc9565b9050611b1a83611b15611b0084611afb89600160009054906101000a9004600f0b611dc9565b610c59565b600260009054906101000a9004600f0b611dc9565b610c59565b94505050505092915050565b600080611b4e84600460109054906101000a900460ff16600a611b499190613246565b610b47565b90506000611b7784600460119054906101000a900460ff16600a611b729190613246565b610b47565b90506000611bf36005600073ad6d458402f60fd3bd25163575031acdce07538d73ffffffffffffffffffffffffffffffffffffffff1673ffffffffffffffffffffffffffffffffffffffff16815260200190815260200160002054600460129054906101000a900460ff16600a611bee9190613246565b610b47565b9050611c3881611c33611c1e600460009054906101000a9004600f0b611c198888611d62565b610c59565b600260109054906101000a9004600f0b611dc9565b610c59565b935050505092915050565b600080611c6b84600460109054906101000a900460ff16600a611c669190613246565b610b47565b90506000611c9484600460119054906101000a900460ff16600a611c8f9190613246565b610b47565b90506000611cbd87600460129054906101000a900460ff16600a611cb89190613246565b610b47565b90506000611cda83600160009054906101000a9004600f0b611dc9565b90506000611d27611d12600460009054906101000a9004600f0b611d0d86600160109054906101000a9004600f0b611dc9565b610c59565b600360109054906101000a9004600f0b611dc9565b9050611d5485611d4f611d3a8486610c59565b600260009054906101000a9004600f0b611dc9565b610c59565b955050505050509392505050565b600080611d7e84600160009054906101000a9004600f0b611dc9565b90506000611d9b84600160009054906101000a9004600f0b611dc9565b9050611dbf611daa8383611ded565b600360009054906101000a9004600f0b611dc9565b9250505092915050565b6000611de5611de0611dda85611f0f565b84612033565b61209e565b905092915050565b60008082600f0b84600f0b0190507fffffffffffffffffffffffffffffffff80000000000000000000000000000000600f0b8112158015611e4157506f7fffffffffffffffffffffffffffffff600f0b8113155b611e4a57600080fd5b8091505092915050565b600080821415611e675760009050611f09565b600083600f0b1215611e7857600080fd5b600060406fffffffffffffffffffffffffffffffff841685600f0b02901c90506000608084901c85600f0b02905077ffffffffffffffffffffffffffffffffffffffffffffffff811115611ecb57600080fd5b604081901b9050817fffffffffffffffffffffffffffffffffffffffffffffffffffffffffffffffff03811115611f0157600080fd5b818101925050505b92915050565b60008082600f0b13611f2057600080fd5b60008083600f0b9050680100000000000000008112611f4757604081901d90506040820191505b6401000000008112611f6157602081901d90506020820191505b620100008112611f7957601081901d90506010820191505b6101008112611f9057600881901d90506008820191505b60108112611fa657600481901d90506004820191505b60048112611fbc57600281901d90506002820191505b60028112611fcb576001820191505b60006040808403901b9050600083607f0386600f0b901b9050600067800000000000000090505b6000811315612026578182029150600060ff83901c905080607f0183901c92508082028401935050600181901d9050611ff2565b5081945050505050919050565b600080604083600f0b85600f0b02901d90507fffffffffffffffffffffffffffffffff80000000000000000000000000000000600f0b811215801561208b57506f7fffffffffffffffffffffffffffffff600f0b8113155b61209457600080fd5b8091505092915050565b60006840000000000000000082600f0b126120b857600080fd5b7fffffffffffffffffffffffffffffffffffffffffffffffc0000000000000000082600f0b12156120ec5760009050612c99565b60006f80000000000000000000000000000000905060006780000000000000008416600f0b131561213257608070016a09e667f3bcc908b2fb1366ea957d3e8202901c90505b60006740000000000000008416600f0b13156121635760807001306fe0a31b7152de8d5a46305c85edec8202901c90505b60006720000000000000008416600f0b13156121945760807001172b83c7d517adcdf7c8c50eb14a791f8202901c90505b60006710000000000000008416600f0b13156121c557608070010b5586cf9890f6298b92b71842a983638202901c90505b60006708000000000000008416600f0b13156121f65760807001059b0d31585743ae7c548eb68ca417fd8202901c90505b60006704000000000000008416600f0b1315612227576080700102c9a3e778060ee6f7caca4f7a29bde88202901c90505b60006702000000000000008416600f0b131561225857608070010163da9fb33356d84a66ae336dcdfa3f8202901c90505b60006701000000000000008416600f0b1315612289576080700100b1afa5abcbed6129ab13ec11dc95438202901c90505b600066800000000000008416600f0b13156122b957608070010058c86da1c09ea1ff19d294cf2f679b8202901c90505b600066400000000000008416600f0b13156122e95760807001002c605e2e8cec506d21bfc89a23a00f8202901c90505b600066200000000000008416600f0b1315612319576080700100162f3904051fa128bca9c55c31e5df8202901c90505b600066100000000000008416600f0b13156123495760807001000b175effdc76ba38e31671ca9397258202901c90505b600066080000000000008416600f0b1315612379576080700100058ba01fb9f96d6cacd4b180917c3d8202901c90505b600066040000000000008416600f0b13156123a957608070010002c5cc37da9491d0985c348c68e7b38202901c90505b600066020000000000008416600f0b13156123d95760807001000162e525ee054754457d59952920268202901c90505b600066010000000000008416600f0b131561240957608070010000b17255775c040618bf4a4ade83fc8202901c90505b6000658000000000008416600f0b13156124385760807001000058b91b5bc9ae2eed81e9b7d4cfab8202901c90505b6000654000000000008416600f0b1315612467576080700100002c5c89d5ec6ca4d7c8acc017b7c98202901c90505b6000652000000000008416600f0b131561249657608070010000162e43f4f831060e02d839a9d16d8202901c90505b6000651000000000008416600f0b13156124c5576080700100000b1721bcfc99d9f890ea069117638202901c90505b6000650800000000008416600f0b13156124f457608070010000058b90cf1e6d97f9ca14dbcc16288202901c90505b6000650400000000008416600f0b13156125235760807001000002c5c863b73f016468f6bac5ca2b8202901c90505b6000650200000000008416600f0b1315612552576080700100000162e430e5a18f6119e3c02282a58202901c90505b6000650100000000008416600f0b13156125815760807001000000b1721835514b86e6d96efd1bfe8202901c90505b60006480000000008416600f0b13156125af576080700100000058b90c0b48c6be5df846c5b2ef8202901c90505b60006440000000008416600f0b13156125dd57608070010000002c5c8601cc6b9e94213c72737a8202901c90505b60006420000000008416600f0b131561260b5760807001000000162e42fff037df38aa2b219f068202901c90505b60006410000000008416600f0b131561263957608070010000000b17217fba9c739aa5819f44f98202901c90505b60006408000000008416600f0b13156126675760807001000000058b90bfcdee5acd3c1cedc8238202901c90505b60006404000000008416600f0b1315612695576080700100000002c5c85fe31f35a6a30da1be508202901c90505b60006402000000008416600f0b13156126c357608070010000000162e42ff0999ce3541b9fffcf8202901c90505b60006401000000008416600f0b13156126f1576080700100000000b17217f80f4ef5aadda455548202901c90505b600063800000008416600f0b131561271e57608070010000000058b90bfbf8479bd5a81b51ad8202901c90505b600063400000008416600f0b131561274b5760807001000000002c5c85fdf84bd62ae30a74cc8202901c90505b600063200000008416600f0b1315612778576080700100000000162e42fefb2fed257559bdaa8202901c90505b600063100000008416600f0b13156127a55760807001000000000b17217f7d5a7716bba4a9ae8202901c90505b600063080000008416600f0b13156127d2576080700100000000058b90bfbe9ddbac5e109cce8202901c90505b600063040000008416600f0b13156127ff57608070010000000002c5c85fdf4b15de6f17eb0d8202901c90505b600063020000008416600f0b131561282c5760807001000000000162e42fefa494f1478fde058202901c90505b600063010000008416600f0b131561285957608070010000000000b17217f7d20cf927c8e94c8202901c90505b6000628000008416600f0b13156128855760807001000000000058b90bfbe8f71cb4e4b33d8202901c90505b6000624000008416600f0b13156128b1576080700100000000002c5c85fdf477b662b269458202901c90505b6000622000008416600f0b13156128dd57608070010000000000162e42fefa3ae53369388c8202901c90505b6000621000008416600f0b1315612909576080700100000000000b17217f7d1d351a389d408202901c90505b6000620800008416600f0b131561293557608070010000000000058b90bfbe8e8b2d3d4ede8202901c90505b6000620400008416600f0b13156129615760807001000000000002c5c85fdf4741bea6e77e8202901c90505b6000620200008416600f0b131561298d576080700100000000000162e42fefa39fe95583c28202901c90505b6000620100008416600f0b13156129b95760807001000000000000b17217f7d1cfb72b45e18202901c90505b60006180008416600f0b13156129e4576080700100000000000058b90bfbe8e7cc35c3f08202901c90505b60006140008416600f0b1315612a0f57608070010000000000002c5c85fdf473e242ea388202901c90505b60006120008416600f0b1315612a3a5760807001000000000000162e42fefa39f02b772c8202901c90505b60006110008416600f0b1315612a6557608070010000000000000b17217f7d1cf7d83c1a8202901c90505b60006108008416600f0b1315612a905760807001000000000000058b90bfbe8e7bdcbe2e8202901c90505b60006104008416600f0b1315612abb576080700100000000000002c5c85fdf473dea871f8202901c90505b60006102008416600f0b1315612ae657608070010000000000000162e42fefa39ef44d918202901c90505b60006101008416600f0b1315612b11576080700100000000000000b17217f7d1cf79e9498202901c90505b600060808416600f0b1315612b3b57608070010000000000000058b90bfbe8e7bce5448202901c90505b600060408416600f0b1315612b655760807001000000000000002c5c85fdf473de6eca8202901c90505b600060208416600f0b1315612b8f576080700100000000000000162e42fefa39ef366f8202901c90505b600060108416600f0b1315612bb95760807001000000000000000b17217f7d1cf79afa8202901c90505b600060088416600f0b1315612be3576080700100000000000000058b90bfbe8e7bcd6d8202901c90505b600060048416600f0b1315612c0d57608070010000000000000002c5c85fdf473de6b28202901c90505b600060028416600f0b1315612c375760807001000000000000000162e42fefa39ef3588202901c90505b600060018416600f0b1315612c6157608070010000000000000000b17217f7d1cf79ab8202901c90505b604083600f0b901d603f03600f0b81901c90506f7fffffffffffffffffffffffffffffff600f0b811115612c9457600080fd5b809150505b919050565b600081359050612cad816135d5565b92915050565b600081519050612cc2816135ec565b92915050565b600081359050612cd781613603565b92915050565b600081519050612cec81613603565b92915050565b600060208284031215612d0857612d076134f6565b5b6000612d1684828501612c9e565b91505092915050565b60008060408385031215612d3657612d356134f6565b5b6000612d4485828601612c9e565b9250506020612d5585828601612cc8565b9150509250929050565b600060208284031215612d7557612d746134f6565b5b6000612d8384828501612cb3565b91505092915050565b600060208284031215612da257612da16134f6565b5b6000612db084828501612cdd565b91505092915050565b600080600060608486031215612dd257612dd16134f6565b5b6000612de086828701612cc8565b9350506020612df186828701612c9e565b9250506040612e0286828701612c9e565b9150509250925092565b612e15816133f8565b82525050565b612e248161340a565b82525050565b612e3381613416565b82525050565b612e4281613457565b82525050565b6000612e55601b8361314e565b9150612e6082613508565b602082019050919050565b6000612e7860178361314e565b9150612e8382613531565b602082019050919050565b6000612e9b60198361314e565b9150612ea68261355a565b602082019050919050565b6000612ebe601a8361314e565b9150612ec982613583565b602082019050919050565b6000612ee1601a8361314e565b9150612eec826135ac565b602082019050919050565b612f0081613440565b82525050565b6000602082019050612f1b6000830184612e0c565b92915050565b6000604082019050612f366000830185612e0c565b612f436020830184612e0c565b9392505050565b6000606082019050612f5f6000830186612e0c565b612f6c6020830185612e0c565b612f796040830184612ef7565b949350505050565b6000604082019050612f966000830185612e0c565b612fa36020830184612ef7565b9392505050565b6000602082019050612fbf6000830184612e1b565b92915050565b6000602082019050612fda6000830184612e2a565b92915050565b60006020820190508181036000830152612ff981612e48565b9050919050565b6000602082019050818103600083015261301981612e6b565b9050919050565b6000602082019050818103600083015261303981612e8e565b9050919050565b6000602082019050818103600083015261305981612eb1565b9050919050565b6000602082019050818103600083015261307981612ed4565b9050919050565b60006020820190506130956000830184612ef7565b92915050565b60006060820190506130b06000830186612ef7565b6130bd6020830185612e0c565b6130ca6040830184612e2a565b949350505050565b60006060820190506130e76000830186612ef7565b6130f46020830185612e0c565b6131016040830184612e39565b949350505050565b600060808201905061311e6000830187612ef7565b61312b6020830186612ef7565b6131386040830185612e0c565b6131456060830184612e0c565b95945050505050565b600082825260208201905092915050565b600061316a82613416565b915061317583613416565b9250817f7fffffffffffffffffffffffffffffffffffffffffffffffffffffffffffffff038313600083121516156131b0576131af613498565b5b817f80000000000000000000000000000000000000000000000000000000000000000383126000831216156131e8576131e7613498565b5b828201905092915050565b6000808291508390505b600185111561323d5780860481111561321957613218613498565b5b60018516156132285780820291505b8081029050613236856134fb565b94506131fd565b94509492505050565b600061325182613440565b915061325c8361344a565b92506132897fffffffffffffffffffffffffffffffffffffffffffffffffffffffffffffffff8484613291565b905092915050565b6000826132a1576001905061335d565b816132af576000905061335d565b81600181146132c557600281146132cf576132fe565b600191505061335d565b60ff8411156132e1576132e0613498565b5b8360020a9150848211156132f8576132f7613498565b5b5061335d565b5060208310610133831016604e8410600b84101617156133335782820a90508381111561332e5761332d613498565b5b61335d565b61334084848460016131f3565b9250905081840481111561335757613356613498565b5b81810290505b9392505050565b600061336f82613416565b915061337a83613416565b9250827f8000000000000000000000000000000000000000000000000000000000000000018212600084121516156133b5576133b4613498565b5b827f7fffffffffffffffffffffffffffffffffffffffffffffffffffffffffffffff0182136000841216156133ed576133ec613498565b5b828203905092915050565b600061340382613420565b9050919050565b60008115159050919050565b6000819050919050565b600073ffffffffffffffffffffffffffffffffffffffff82169050919050565b6000819050919050565b600060ff82169050919050565b600061346282613416565b9050919050565b7f4e487b7100000000000000000000000000000000000000000000000000000000600052600160045260246000fd5b7f4e487b7100000000000000000000000000000000000000000000000000000000600052601160045260246000fd5b7f4e487b7100000000000000000000000000000000000000000000000000000000600052601260045260246000fd5b600080fd5b60008160011c9050919050565b7f494e53554646494349454e545f415050524f56455f414d4f554e540000000000600082015250565b7f494e53554646494349454e545f4f55545f414d4f554e54000000000000000000600082015250565b7f494e53554646494349454e545f494e5055545f414d4f554e5400000000000000600082015250565b7f414d4d206f776e6572206f6e6c792063616e206465706f736974000000000000600082015250565b7f494e53554646494349454e545f4f55545055545f414d4f554e54000000000000600082015250565b6135de816133f8565b81146135e957600080fd5b50565b6135f58161340a565b811461360057600080fd5b50565b61360c81613440565b811461361757600080fd5b5056fea2646970667358221220b228605b1c69c357fdc93fa87263ab44a3d0af63dc5695addc730206d2945f4f64736f6c63430008070033",
  "immutableReferences": {},
  "source": "// SPDX-License-Identifier: MIT\npragma solidity >=0.4.22 <0.9.0;\n\nimport {IERC20} from \"@openzeppelin/contracts/token/ERC20/IERC20.sol\";\nimport {IERC20Metadata} from \"@openzeppelin/contracts/token/ERC20/extensions/IERC20Metadata.sol\";\nimport \"./ABDKMath64x64.sol\";\n\ncontract AMM {\n    address public constant aTokenAddress =\n        address(0x1f9840a85d5aF5bf1D1762F925BDADdC4201F984);\n    address public constant bTokenAddress =\n        address(0xf76D4a441E4ba86A923ce32B89AFF89dBccAA075);\n    address public constant yTokenAddress =\n        address(0xaD6D458402F60fD3Bd25163575031ACDce07538D);\n\n    int256 public constant precision = 1000;\n\n    int128 _sigma;\n    int128 _eta;\n\n    int128 _one_minus_sigma;\n    int128 _one_minus_eta;\n    int128 _reverse_sigma;\n    int128 _reverse_eta;\n    int128 _eta_to_sigma;\n    int128 _sigma_to_eta;\n\n    int128 _mu; // constant curve\n\n    uint8 aDecimals;\n    uint8 bDecimals;\n    uint8 yDecimals;\n\n    IERC20 immutable aToken;\n    IERC20 immutable bToken;\n    IERC20 immutable yToken;\n\n    mapping(address => int256) public amounts;\n\n    address owner;\n\n    event Deposit(uint256 amount, address token, int256 mu);\n\n    event Swap(\n        uint256 amountIn,\n        uint256 amountOut,\n        address tokenIn,\n        address tokenOut,\n        address indexed sender\n    );\n\n    constructor(int256 sigma, int256 eta) {\n        aToken = IERC20(aTokenAddress);\n        bToken = IERC20(bTokenAddress);\n        yToken = IERC20(yTokenAddress);\n\n        aDecimals = IERC20Metadata(aTokenAddress).decimals();\n        bDecimals = IERC20Metadata(bTokenAddress).decimals();\n        yDecimals = IERC20Metadata(yTokenAddress).decimals();\n\n        _sigma = ABDKMath64x64.divi(sigma, precision);\n        _eta = ABDKMath64x64.divi(eta, precision);\n\n        _one_minus_sigma = ABDKMath64x64.sub(ABDKMath64x64.fromInt(1), _sigma);\n        _one_minus_eta = ABDKMath64x64.sub(ABDKMath64x64.fromInt(1), _eta);\n\n        _reverse_sigma = ABDKMath64x64.div(\n            ABDKMath64x64.fromInt(1),\n            _one_minus_sigma\n        );\n        _reverse_eta = ABDKMath64x64.div(\n            ABDKMath64x64.fromInt(1),\n            _one_minus_eta\n        );\n\n        _eta_to_sigma = ABDKMath64x64.div(_one_minus_eta, _one_minus_sigma);\n        _sigma_to_eta = ABDKMath64x64.div(_one_minus_sigma, _one_minus_eta);\n\n        amounts[aTokenAddress] = 0;\n        amounts[bTokenAddress] = 0;\n        amounts[yTokenAddress] = 0;\n        owner = msg.sender;\n    }\n\n    function getPow(int128 x, int128 p) internal pure returns (int128) {\n        return\n            ABDKMath64x64.exp_2(ABDKMath64x64.mul(ABDKMath64x64.log_2(x), p));\n    }\n\n    function getAplusB(int128 a, int128 b) internal view returns (int128) {\n        int128 aexp = getPow(a, _one_minus_sigma);\n        int128 bexp = getPow(b, _one_minus_sigma);\n\n        return getPow(ABDKMath64x64.add(aexp, bexp), _eta_to_sigma);\n    }\n\n    function muFunction(\n        int256 _a,\n        int256 _b,\n        int256 _y\n    ) internal view returns (int128) {\n        int128 a = ABDKMath64x64.divi(_a, int256(10**aDecimals));\n        int128 b = ABDKMath64x64.divi(_b, int256(10**bDecimals));\n        int128 y = ABDKMath64x64.divi(_y, int256(10**yDecimals));\n\n        return ABDKMath64x64.add(getAplusB(a, b), getPow(y, _one_minus_eta));\n    }\n\n    function getAtoY(int256 _a, int256 _b)\n        internal\n        view\n        returns (int128 amountOut)\n    {\n        int128 a = ABDKMath64x64.divi(_a, int256(10**aDecimals));\n        int128 b = ABDKMath64x64.divi(_b, int256(10**bDecimals));\n        int128 y = ABDKMath64x64.divi(\n            amounts[yTokenAddress],\n            int256(10**yDecimals)\n        );\n\n        return\n            ABDKMath64x64.sub(\n                y,\n                getPow(ABDKMath64x64.sub(_mu, getAplusB(a, b)), _reverse_eta)\n            );\n    }\n\n    function getYtoA(\n        int256 _y,\n        int256 _a,\n        int256 _b\n    ) internal view returns (int128 amountOut) {\n        int128 a = ABDKMath64x64.divi(_a, int256(10**aDecimals));\n        int128 b = ABDKMath64x64.divi(_b, int256(10**bDecimals));\n        int128 y = ABDKMath64x64.divi(_y, int256(10**yDecimals));\n\n        int128 bexp = getPow(b, _one_minus_sigma);\n        int128 temp = getPow(\n            ABDKMath64x64.sub(_mu, getPow(y, _one_minus_eta)),\n            _sigma_to_eta\n        );\n\n        return\n            ABDKMath64x64.sub(\n                a,\n                getPow(ABDKMath64x64.sub(temp, bexp), _reverse_sigma)\n            );\n    }\n\n    function getAtoB(int256 _a, int256 _b)\n        internal\n        view\n        returns (int128 amountOut)\n    {\n        int128 a = ABDKMath64x64.divi(_a, int256(10**aDecimals));\n        int128 b = ABDKMath64x64.divi(_b, int256(10**bDecimals));\n        int128 y = ABDKMath64x64.divi(\n            amounts[yTokenAddress],\n            int256(10**yDecimals)\n        );\n        int128 temp = getPow(\n            ABDKMath64x64.sub(_mu, getPow(y, _one_minus_eta)),\n            _sigma_to_eta\n        );\n        return\n            ABDKMath64x64.sub(\n                b,\n                getPow(\n                    ABDKMath64x64.sub(temp, getPow(a, _one_minus_sigma)),\n                    _reverse_sigma\n                )\n            );\n    }\n\n    function getAmountOut(\n        int256 amountIn,\n        address tokenIn,\n        address tokenOut\n    ) internal view returns (uint256 amountOut) {\n        int128 res = 0;\n        uint8 decimal = 18;\n\n        if (tokenIn == aTokenAddress) {\n            if (tokenOut == bTokenAddress) {\n                res = getAtoB(\n                    amounts[aTokenAddress] + amountIn,\n                    amounts[bTokenAddress]\n                );\n                decimal = bDecimals;\n            } else if (tokenOut == yTokenAddress) {\n                res = getAtoY(\n                    amounts[aTokenAddress] + amountIn,\n                    amounts[bTokenAddress]\n                );\n                decimal = yDecimals;\n            }\n        } else if (tokenIn == bTokenAddress) {\n            if (tokenOut == aTokenAddress) {\n                res = getAtoB(\n                    amounts[bTokenAddress] + amountIn,\n                    amounts[aTokenAddress]\n                );\n                decimal = aDecimals;\n            } else if (tokenOut == yTokenAddress) {\n                res = getAtoY(\n                    amounts[bTokenAddress] + amountIn,\n                    amounts[aTokenAddress]\n                );\n                decimal = yDecimals;\n            }\n        } else if (tokenIn == yTokenAddress) {\n            if (tokenOut == aTokenAddress) {\n                res = getYtoA(\n                    amounts[yTokenAddress] + amountIn,\n                    amounts[aTokenAddress],\n                    amounts[bTokenAddress]\n                );\n                decimal = aDecimals;\n            } else if (tokenOut == bTokenAddress) {\n                res = getYtoA(\n                    amounts[yTokenAddress] + amountIn,\n                    amounts[bTokenAddress],\n                    amounts[aTokenAddress]\n                );\n                decimal = bDecimals;\n            }\n        }\n\n        amountOut = uint256(ABDKMath64x64.muli(res, int256(10**decimal)));\n        require(amountOut > 0, \"INSUFFICIENT_OUT_AMOUNT\");\n\n        return amountOut;\n    }\n\n    function getBalance(address token) public view returns (int256) {\n        return amounts[token];\n    }\n\n    function deposit(address token, uint256 amount) public returns (bool) {\n        require(owner == msg.sender, \"AMM owner only can deposit\");\n        require(amount > 0, \"INSUFFICIENT_INPUT_AMOUNT\");\n        IERC20 _token = IERC20(token);\n\n        require(\n            _token.allowance(owner, address(this)) >= amount,\n            \"INSUFFICIENT_APPROVE_AMOUNT\"\n        );\n\n        _token.transferFrom(msg.sender, address(this), amount);\n\n        amounts[token] = amounts[token] + int256(amount);\n\n        int256 aAmount = amounts[aTokenAddress];\n        int256 bAmount = amounts[bTokenAddress];\n        int256 yAmount = amounts[yTokenAddress];\n\n        if (aAmount > 0 && bAmount > 0 && yAmount > 0) {\n            _mu = muFunction(aAmount, bAmount, yAmount);\n            emit Deposit(amount, token, ABDKMath64x64.muli(_mu, 1000));\n            return true;\n        } else {\n            emit Deposit(amount, token, 0);\n        }\n\n        return false;\n    }\n\n    function swap(\n        uint256 amountIn,\n        address tokenIn,\n        address tokenOut\n    ) public returns (uint256) {\n        require(amountIn > 0, \"INSUFFICIENT_INPUT_AMOUNT\");\n        IERC20 _tokenIn = IERC20(tokenIn);\n        require(\n            _tokenIn.allowance(msg.sender, address(this)) >= amountIn,\n            \"INSUFFICIENT_APPROVE_AMOUNT\"\n        );\n\n        uint256 amountOut = getAmountOut(int256(amountIn), tokenIn, tokenOut);\n\n        require(\n            amounts[tokenOut] > int256(amountOut),\n            \"INSUFFICIENT_OUTPUT_AMOUNT\"\n        );\n\n        _tokenIn.transferFrom(msg.sender, address(this), amountIn);\n\n        amounts[tokenIn] += int256(amountIn);\n\n        IERC20(tokenOut).transfer(msg.sender, amountOut);\n\n        amounts[tokenOut] -= int256(amountOut);\n\n        emit Swap(amountIn, amountOut, tokenIn, tokenOut, msg.sender);\n\n        return amountOut;\n    }\n}\n",
  "sourcePath": "/home/kevin/work_test/AMM-SmartContract/SmartContracts/contracts/AMM.sol",
  "compiler": {
    "name": "solc",
    "version": "0.8.7+commit.e28d00a7.Emscripten.clang"
  },
  "schemaVersion": "3.4.3",
  "updatedAt": "2021-09-20T11:16:05.252Z",
  "devdoc": {
    "kind": "dev",
    "methods": {},
    "version": 1
  },
  "userdoc": {
    "kind": "user",
    "methods": {},
    "version": 1
  }
}