{
  "contractName": "NestedAMMPool",
  "abi": [
    {
      "inputs": [],
      "stateMutability": "nonpayable",
      "type": "constructor"
    },
    {
      "anonymous": false,
      "inputs": [
        {
          "indexed": true,
          "internalType": "address",
          "name": "owner",
          "type": "address"
        },
        {
          "indexed": true,
          "internalType": "address",
          "name": "spender",
          "type": "address"
        },
        {
          "indexed": false,
          "internalType": "uint256",
          "name": "value",
          "type": "uint256"
        }
      ],
      "name": "Approval",
      "type": "event"
    },
    {
      "anonymous": false,
      "inputs": [
        {
          "indexed": false,
          "internalType": "uint256",
          "name": "amountA",
          "type": "uint256"
        },
        {
          "indexed": false,
          "internalType": "uint256",
          "name": "amountB",
          "type": "uint256"
        },
        {
          "indexed": false,
          "internalType": "uint256",
          "name": "amountY",
          "type": "uint256"
        },
        {
          "indexed": false,
          "internalType": "uint256",
          "name": "muLast",
          "type": "uint256"
        }
      ],
      "name": "Deposit",
      "type": "event"
    },
    {
      "anonymous": false,
      "inputs": [
        {
          "indexed": false,
          "internalType": "uint256",
          "name": "amountIn",
          "type": "uint256"
        },
        {
          "indexed": false,
          "internalType": "uint256",
          "name": "amountOut",
          "type": "uint256"
        },
        {
          "indexed": false,
          "internalType": "address",
          "name": "tokenIn",
          "type": "address"
        },
        {
          "indexed": false,
          "internalType": "address",
          "name": "tokenOut",
          "type": "address"
        },
        {
          "indexed": true,
          "internalType": "address",
          "name": "sender",
          "type": "address"
        }
      ],
      "name": "Swap",
      "type": "event"
    },
    {
      "anonymous": false,
      "inputs": [
        {
          "indexed": true,
          "internalType": "address",
          "name": "from",
          "type": "address"
        },
        {
          "indexed": true,
          "internalType": "address",
          "name": "to",
          "type": "address"
        },
        {
          "indexed": false,
          "internalType": "uint256",
          "name": "value",
          "type": "uint256"
        }
      ],
      "name": "Transfer",
      "type": "event"
    },
    {
      "anonymous": false,
      "inputs": [
        {
          "indexed": false,
          "internalType": "uint256",
          "name": "amountA",
          "type": "uint256"
        },
        {
          "indexed": false,
          "internalType": "uint256",
          "name": "amountB",
          "type": "uint256"
        },
        {
          "indexed": false,
          "internalType": "uint256",
          "name": "amountY",
          "type": "uint256"
        },
        {
          "indexed": false,
          "internalType": "uint256",
          "name": "muLast",
          "type": "uint256"
        }
      ],
      "name": "Withdraw",
      "type": "event"
    },
    {
      "inputs": [],
      "name": "MINIMUM_LIQUIDITY",
      "outputs": [
        {
          "internalType": "uint256",
          "name": "",
          "type": "uint256"
        }
      ],
      "stateMutability": "view",
      "type": "function"
    },
    {
      "inputs": [
        {
          "internalType": "address",
          "name": "owner",
          "type": "address"
        },
        {
          "internalType": "address",
          "name": "spender",
          "type": "address"
        }
      ],
      "name": "allowance",
      "outputs": [
        {
          "internalType": "uint256",
          "name": "",
          "type": "uint256"
        }
      ],
      "stateMutability": "view",
      "type": "function"
    },
    {
      "inputs": [
        {
          "internalType": "address",
          "name": "spender",
          "type": "address"
        },
        {
          "internalType": "uint256",
          "name": "amount",
          "type": "uint256"
        }
      ],
      "name": "approve",
      "outputs": [
        {
          "internalType": "bool",
          "name": "",
          "type": "bool"
        }
      ],
      "stateMutability": "nonpayable",
      "type": "function"
    },
    {
      "inputs": [
        {
          "internalType": "address",
          "name": "account",
          "type": "address"
        }
      ],
      "name": "balanceOf",
      "outputs": [
        {
          "internalType": "uint256",
          "name": "",
          "type": "uint256"
        }
      ],
      "stateMutability": "view",
      "type": "function"
    },
    {
      "inputs": [],
      "name": "decimals",
      "outputs": [
        {
          "internalType": "uint8",
          "name": "",
          "type": "uint8"
        }
      ],
      "stateMutability": "view",
      "type": "function"
    },
    {
      "inputs": [
        {
          "internalType": "address",
          "name": "spender",
          "type": "address"
        },
        {
          "internalType": "uint256",
          "name": "subtractedValue",
          "type": "uint256"
        }
      ],
      "name": "decreaseAllowance",
      "outputs": [
        {
          "internalType": "bool",
          "name": "",
          "type": "bool"
        }
      ],
      "stateMutability": "nonpayable",
      "type": "function"
    },
    {
      "inputs": [],
      "name": "factory",
      "outputs": [
        {
          "internalType": "address",
          "name": "",
          "type": "address"
        }
      ],
      "stateMutability": "view",
      "type": "function"
    },
    {
      "inputs": [
        {
          "internalType": "address",
          "name": "spender",
          "type": "address"
        },
        {
          "internalType": "uint256",
          "name": "addedValue",
          "type": "uint256"
        }
      ],
      "name": "increaseAllowance",
      "outputs": [
        {
          "internalType": "bool",
          "name": "",
          "type": "bool"
        }
      ],
      "stateMutability": "nonpayable",
      "type": "function"
    },
    {
      "inputs": [],
      "name": "name",
      "outputs": [
        {
          "internalType": "string",
          "name": "",
          "type": "string"
        }
      ],
      "stateMutability": "view",
      "type": "function"
    },
    {
      "inputs": [],
      "name": "precision",
      "outputs": [
        {
          "internalType": "uint256",
          "name": "",
          "type": "uint256"
        }
      ],
      "stateMutability": "view",
      "type": "function"
    },
    {
      "inputs": [
        {
          "internalType": "address",
          "name": "",
          "type": "address"
        }
      ],
      "name": "reserves",
      "outputs": [
        {
          "internalType": "uint256",
          "name": "",
          "type": "uint256"
        }
      ],
      "stateMutability": "view",
      "type": "function"
    },
    {
      "inputs": [],
      "name": "symbol",
      "outputs": [
        {
          "internalType": "string",
          "name": "",
          "type": "string"
        }
      ],
      "stateMutability": "view",
      "type": "function"
    },
    {
      "inputs": [],
      "name": "tokenA",
      "outputs": [
        {
          "internalType": "address",
          "name": "",
          "type": "address"
        }
      ],
      "stateMutability": "view",
      "type": "function"
    },
    {
      "inputs": [],
      "name": "tokenB",
      "outputs": [
        {
          "internalType": "address",
          "name": "",
          "type": "address"
        }
      ],
      "stateMutability": "view",
      "type": "function"
    },
    {
      "inputs": [],
      "name": "tokenY",
      "outputs": [
        {
          "internalType": "address",
          "name": "",
          "type": "address"
        }
      ],
      "stateMutability": "view",
      "type": "function"
    },
    {
      "inputs": [],
      "name": "totalSupply",
      "outputs": [
        {
          "internalType": "uint256",
          "name": "",
          "type": "uint256"
        }
      ],
      "stateMutability": "view",
      "type": "function"
    },
    {
      "inputs": [
        {
          "internalType": "address",
          "name": "recipient",
          "type": "address"
        },
        {
          "internalType": "uint256",
          "name": "amount",
          "type": "uint256"
        }
      ],
      "name": "transfer",
      "outputs": [
        {
          "internalType": "bool",
          "name": "",
          "type": "bool"
        }
      ],
      "stateMutability": "nonpayable",
      "type": "function"
    },
    {
      "inputs": [
        {
          "internalType": "address",
          "name": "sender",
          "type": "address"
        },
        {
          "internalType": "address",
          "name": "recipient",
          "type": "address"
        },
        {
          "internalType": "uint256",
          "name": "amount",
          "type": "uint256"
        }
      ],
      "name": "transferFrom",
      "outputs": [
        {
          "internalType": "bool",
          "name": "",
          "type": "bool"
        }
      ],
      "stateMutability": "nonpayable",
      "type": "function"
    },
    {
      "inputs": [
        {
          "internalType": "address",
          "name": "_tokenA",
          "type": "address"
        },
        {
          "internalType": "address",
          "name": "_tokenB",
          "type": "address"
        },
        {
          "internalType": "address",
          "name": "_tokenY",
          "type": "address"
        }
      ],
      "name": "initialize",
      "outputs": [],
      "stateMutability": "nonpayable",
      "type": "function"
    },
    {
      "inputs": [
        {
          "internalType": "address",
          "name": "token",
          "type": "address"
        },
        {
          "internalType": "uint256",
          "name": "amount",
          "type": "uint256"
        }
      ],
      "name": "getAmountsAddToken",
      "outputs": [
        {
          "internalType": "uint256",
          "name": "addAmountA",
          "type": "uint256"
        },
        {
          "internalType": "uint256",
          "name": "addAmountB",
          "type": "uint256"
        },
        {
          "internalType": "uint256",
          "name": "addAmountY",
          "type": "uint256"
        }
      ],
      "stateMutability": "view",
      "type": "function"
    },
    {
      "inputs": [
        {
          "internalType": "address",
          "name": "tokenIn",
          "type": "address"
        },
        {
          "internalType": "address",
          "name": "tokenOut",
          "type": "address"
        }
      ],
      "name": "getPrice",
      "outputs": [
        {
          "internalType": "uint256",
          "name": "price",
          "type": "uint256"
        }
      ],
      "stateMutability": "view",
      "type": "function"
    },
    {
      "inputs": [
        {
          "internalType": "uint256",
          "name": "amountIn",
          "type": "uint256"
        },
        {
          "internalType": "address",
          "name": "tokenIn",
          "type": "address"
        },
        {
          "internalType": "address",
          "name": "tokenOut",
          "type": "address"
        }
      ],
      "name": "getAmountOut",
      "outputs": [
        {
          "internalType": "uint256",
          "name": "amountOut",
          "type": "uint256"
        }
      ],
      "stateMutability": "view",
      "type": "function"
    },
    {
      "inputs": [
        {
          "internalType": "uint256",
          "name": "amountA",
          "type": "uint256"
        },
        {
          "internalType": "uint256",
          "name": "amountB",
          "type": "uint256"
        },
        {
          "internalType": "uint256",
          "name": "amountY",
          "type": "uint256"
        }
      ],
      "name": "addLiquidity",
      "outputs": [
        {
          "internalType": "uint256",
          "name": "liquidity",
          "type": "uint256"
        }
      ],
      "stateMutability": "nonpayable",
      "type": "function"
    },
    {
      "inputs": [
        {
          "internalType": "uint256",
          "name": "amount",
          "type": "uint256"
        }
      ],
      "name": "removeLiquidity",
      "outputs": [
        {
          "internalType": "uint256",
          "name": "delta_a",
          "type": "uint256"
        },
        {
          "internalType": "uint256",
          "name": "delta_b",
          "type": "uint256"
        },
        {
          "internalType": "uint256",
          "name": "delta_y",
          "type": "uint256"
        }
      ],
      "stateMutability": "nonpayable",
      "type": "function"
    },
    {
      "inputs": [
        {
          "internalType": "uint256",
          "name": "amountIn",
          "type": "uint256"
        },
        {
          "internalType": "address",
          "name": "tokenIn",
          "type": "address"
        },
        {
          "internalType": "address",
          "name": "tokenOut",
          "type": "address"
        },
        {
          "internalType": "address",
          "name": "recipient",
          "type": "address"
        },
        {
          "internalType": "uint256",
          "name": "slippage",
          "type": "uint256"
        }
      ],
      "name": "swapToken",
      "outputs": [
        {
          "internalType": "uint256",
          "name": "amountOut",
          "type": "uint256"
        }
      ],
      "stateMutability": "nonpayable",
      "type": "function"
    }
  ],
  "bytecode": "0x60806040526001600f553480156200001657600080fd5b50604051806040016040528060088152602001672628102a37b5b2b760c11b8152506040518060400160405280600381526020016213141560ea1b81525081600390805190602001906200006c9291906200063c565b508051620000829060049060208401906200063c565b5050506200009f60c86103e8620003b860201b620018f71760201c565b600960006101000a8154816001600160801b030219169083600f0b6001600160801b03160217905550620000e36103206103e8620003b860201b620018f71760201c565b600960106101000a8154816001600160801b030219169083600f0b6001600160801b031602179055506200012660056103e8620003b860201b620018f71760201c565b600e60006101000a8154816001600160801b030219169083600f0b6001600160801b03160217905550620001826200016a6001620003fa60201b620019351760201c565b600954600f0b6200042d602090811b6200196817901c565b600a60006101000a8154816001600160801b030219169083600f0b6001600160801b03160217905550620001e7620001c66001620003fa60201b620019351760201c565b600960109054906101000a9004600f0b6200042d60201b620019681760201c565b600a60106101000a8154816001600160801b030219169083600f0b6001600160801b03160217905550620002436200022b6001620003fa60201b620019351760201c565b600a54600f0b62000463602090811b6200199c17901c565b600b60006101000a8154816001600160801b030219169083600f0b6001600160801b03160217905550620002a8620002876001620003fa60201b620019351760201c565b600a60109054906101000a9004600f0b6200046360201b6200199c1760201c565b600b80546001600160801b03908116600160801b600f94850b92909216820217909155600a54620002ec92918104820b910b62000463602090811b6200199c17901c565b600c80546001600160801b0319166001600160801b03600f93840b16179055600a54620003329181810b91600160801b9004900b62000463602090811b6200199c17901c565b600c80546001600160801b03908116600160801b600f94850b929092168202179091556009546200037b926200022b928204810b91900b6200042d602090811b6200196817901c565b600d8054600f9290920b6001600160801b03166001600160801b0319909216919091179055600580546001600160a01b031916331790556200074b565b600081620003c557600080fd5b6000620003d38484620004c1565b905060016001607f1b036001600160801b0382161115620003f357600080fd5b9392505050565b600060016001603f1b031982121580156200041c575060016001603f1b038213155b6200042657600080fd5b5060401b90565b6000600f82810b9084900b0360016001607f1b0319811280159062000459575060016001607f1b038113155b620003f357600080fd5b600081600f0b600014156200047757600080fd5b600082600f0b604085600f0b901b8162000495576200049562000735565b05905060016001607f1b0319811280159062000459575060016001607f1b03811315620003f357600080fd5b600081620004ce57600080fd5b60006001600160c01b038411620004fe5782604085901b81620004f557620004f562000735565b04905062000627565b60c084811c640100000000811062000518576020918201911c5b6201000081106200052b576010918201911c5b61010081106200053d576008918201911c5b601081106200054e576004918201911c5b600481106200055f576002918201911c5b600281106200056f576001820191505b60bf820360018603901c6001018260ff0387901b8162000593576200059362000735565b0492506001600160801b03831115620005ab57600080fd5b608085901c83026001600160801b038616840260c088901c604089901b82811015620005d8576001820391505b608084901b92900382811015620005f0576001820391505b829003608084901c82146200060957620006096200071f565b8881816200061b576200061b62000735565b04870196505050505050505b6001600160801b03811115620003f357600080fd5b8280546200064a90620006e2565b90600052602060002090601f0160209004810192826200066e5760008555620006b9565b82601f106200068957805160ff1916838001178555620006b9565b82800160010185558215620006b9579182015b82811115620006b95782518255916020019190600101906200069c565b50620006c7929150620006cb565b5090565b5b80821115620006c75760008155600101620006cc565b600181811c90821680620006f757607f821691505b602082108114156200071957634e487b7160e01b600052602260045260246000fd5b50919050565b634e487b7160e01b600052600160045260246000fd5b634e487b7160e01b600052601260045260246000fd5b613c3c806200075b6000396000f3fe608060405234801561001057600080fd5b50600436106101735760003560e01c806370a08231116100de578063b7d19fc411610097578063c45a015511610071578063c45a015514610353578063d3b5dc3b14610335578063d66bd52414610366578063dd62ed3e1461038657600080fd5b8063b7d19fc414610322578063ba9a7a5614610335578063c0c53b8b1461033e57600080fd5b806370a08231146102a557806395d89b41146102ce5780639c8f9f23146102d6578063a457c2d7146102e9578063a9059cbb146102fc578063ac41865a1461030f57600080fd5b80632ad4db29116101305780632ad4db2914610237578063313ce5671461024a5780633950935114610259578063422f10431461026c5780635e1e63251461027f5780635f64b55b1461029257600080fd5b806306fdde0314610178578063095ea7b3146101965780630eeadf07146101b95780630fc63d10146101e757806318160ddd1461021257806323b872dd14610224575b600080fd5b6101806103bf565b60405161018d9190613965565b60405180910390f35b6101a96101a43660046137ed565b610451565b604051901515815260200161018d565b6101cc6101c73660046137ed565b610468565b6040805193845260208401929092529082015260600161018d565b6006546101fa906001600160a01b031681565b6040516001600160a01b03909116815260200161018d565b6002545b60405190815260200161018d565b6101a96102323660046137ac565b61051f565b61021661024536600461387b565b6105ce565b6040516012815260200161018d565b6101a96102673660046137ed565b610918565b61021661027a3660046138d6565b610954565b61021661028d366004613854565b610ea6565b6007546101fa906001600160a01b031681565b6102166102b33660046136ee565b6001600160a01b031660009081526020819052604090205490565b6101806113d6565b6101cc6102e436600461383b565b6113e5565b6101a96102f73660046137ed565b61165c565b6101a961030a3660046137ed565b6116f5565b61021661031d366004613728565b611702565b6008546101fa906001600160a01b031681565b6102166103e881565b61035161034c366004613761565b611846565b005b6005546101fa906001600160a01b031681565b6102166103743660046136ee565b60106020526000908152604090205481565b610216610394366004613728565b6001600160a01b03918216600090815260016020908152604080832093909416825291909152205490565b6060600380546103ce90613b71565b80601f01602080910402602001604051908101604052809291908181526020018280546103fa90613b71565b80156104475780601f1061041c57610100808354040283529160200191610447565b820191906000526020600020905b81548152906001019060200180831161042a57829003601f168201915b5050505050905090565b600061045e3384846119f4565b5060015b92915050565b6006546001600160a01b039081166000908152601060205260408082205492851682528120549091829182916104a8916104a291906118f7565b85611b19565b6007546001600160a01b039081166000908152601060205260408082205492891682529020549194506104df916104a291906118f7565b6008546001600160a01b03908116600090815260106020526040808220549289168252902054919350610516916104a291906118f7565b90509250925092565b600061052c848484611b81565b6001600160a01b0384166000908152600160209081526040808320338452909152902054828110156105b65760405162461bcd60e51b815260206004820152602860248201527f45524332303a207472616e7366657220616d6f756e74206578636565647320616044820152676c6c6f77616e636560c01b60648201526084015b60405180910390fd5b6105c385338584036119f4565b506001949350505050565b6000600f546001146105f25760405162461bcd60e51b81526004016105ad90613998565b6000600f8190556106038686611702565b9050600087116106515760405162461bcd60e51b8152602060048201526019602482015278125394d551919250d251539517d25394155517d05353d55395603a1b60448201526064016105ad565b61065c878787610ea6565b915060008761067384670de0b6b3a7640000613aec565b61067d91906139dc565b90506106958282610690876103e86118f7565b611d51565b6106e15760405162461bcd60e51b815260206004820152601960248201527f4e4f545f454e4f5547485f534c4950504147455f4c4556454c0000000000000060448201526064016105ad565b6001600160a01b03861660009081526010602052604090205483106107485760405162461bcd60e51b815260206004820152601a60248201527f494e53554646494349454e545f4f55545055545f414d4f554e5400000000000060448201526064016105ad565b6040516323b872dd60e01b81526001600160a01b038816906323b872dd9061077890339030908d90600401613941565b602060405180830381600087803b15801561079257600080fd5b505af11580156107a6573d6000803e3d6000fd5b505050506040513d601f19601f820116820180604052508101906107ca9190613819565b506001600160a01b0387166000908152601060205260409020546107ef9089906139c4565b6001600160a01b03808916600090815260106020526040808220939093559088168152205461081f908490613b0b565b6001600160a01b038781166000818152601060205260409081902093909355915163a9059cbb60e01b815290871660048201526024810185905263a9059cbb90604401602060405180830381600087803b15801561087c57600080fd5b505af1158015610890573d6000803e3d6000fd5b505050506040513d601f19601f820116820180604052508101906108b49190613819565b5060408051898152602081018590526001600160a01b038981168284015288166060820152905133917f4bef092c4d89156b79870894531231803501f7105bf07ea9f24304c70460cc3c919081900360800190a250506001600f5595945050505050565b3360008181526001602090815260408083206001600160a01b0387168452909152812054909161045e91859061094f9086906139c4565b6119f4565b6000600f546001146109785760405162461bcd60e51b81526004016105ad90613998565b6000600f55831580159061098c5750600083115b80156109985750600082115b6109e05760405162461bcd60e51b8152602060048201526019602482015278125394d551919250d251539517d25394155517d05353d55395603a1b60448201526064016105ad565b600254610a775760055460408051622fcfcb60e31b815290516000926001600160a01b03169163017e7e58916004808301926020929190829003018186803b158015610a2b57600080fd5b505afa158015610a3f573d6000803e3d6000fd5b505050506040513d601f19601f82011682018060405250810190610a63919061370b565b9050610a71816103e8611daa565b50610bb8565b6006546001600160a01b031660009081526010602052604090205415801590610ab957506007546001600160a01b031660009081526010602052604090205415155b8015610ade57506008546001600160a01b031660009081526010602052604090205415155b610b2a5760405162461bcd60e51b815260206004820152601d60248201527f494e53554646494349454e545f4c49515549444954595f414d4f554e5400000060448201526064016105ad565b6008546000908190610b45906001600160a01b031685610468565b50600e549193509150610b5e9083908890600f0b611d51565b8015610b785750600e54610b789082908790600f0b611d51565b610bb55760405162461bcd60e51b815260206004820152600e60248201526d4d49534d415443485f524154494f60901b60448201526064016105ad565b50505b6006546040516323b872dd60e01b81526001600160a01b03909116906323b872dd90610bec90339030908990600401613941565b602060405180830381600087803b158015610c0657600080fd5b505af1158015610c1a573d6000803e3d6000fd5b505050506040513d601f19601f82011682018060405250810190610c3e9190613819565b506007546040516323b872dd60e01b81526001600160a01b03909116906323b872dd90610c7390339030908890600401613941565b602060405180830381600087803b158015610c8d57600080fd5b505af1158015610ca1573d6000803e3d6000fd5b505050506040513d601f19601f82011682018060405250810190610cc59190613819565b506008546040516323b872dd60e01b81526001600160a01b03909116906323b872dd90610cfa90339030908790600401613941565b602060405180830381600087803b158015610d1457600080fd5b505af1158015610d28573d6000803e3d6000fd5b505050506040513d601f19601f82011682018060405250810190610d4c9190613819565b506006546001600160a01b0316600090815260106020526040902054610d739085906139c4565b6006546001600160a01b039081166000908152601060205260408082209390935560075490911681522054610da99084906139c4565b6007546001600160a01b039081166000908152601060205260408082209390935560085490911681522054610ddf9083906139c4565b6008546001600160a01b0316600090815260106020526040902055610e043383611daa565b610e0c611e89565b600d60106101000a8154816001600160801b030219169083600f0b6001600160801b031602179055507f9b776d199f09c774f5b205c9bc2ac6f40d508c347aaea919867eeaf06ebef0e9848484610e77600d60109054906101000a9004600f0b6402540be400611b19565b60408051948552602085019390935291830152606082015260800160405180910390a1506001600f5592915050565b60065460009081906012906001600160a01b0386811691161415611068576007546001600160a01b0385811691161415610fb3576006546001600160a01b0316600090815260106020526040902054610f2490610f049088906139c4565b6007546001600160a01b0316600090815260106020526040902054612007565b9150600760009054906101000a90046001600160a01b03166001600160a01b031663313ce5676040518163ffffffff1660e01b815260040160206040518083038186803b158015610f7457600080fd5b505afa158015610f88573d6000803e3d6000fd5b505050506040513d601f19601f82011682018060405250810190610fac9190613902565b905061130b565b6008546001600160a01b0385811691161415611063576006546001600160a01b031660009081526010602052604090205461101390610ff39088906139c4565b6007546001600160a01b031660009081526010602052604090205461218f565b9150600860009054906101000a90046001600160a01b03166001600160a01b031663313ce5676040518163ffffffff1660e01b815260040160206040518083038186803b158015610f7457600080fd5b61130b565b6007546001600160a01b038681169116141561118e576006546001600160a01b038581169116141561112e576007546001600160a01b03166000908152601060205260409020546110de906110be9088906139c4565b6006546001600160a01b0316600090815260106020526040902054612007565b9150600660009054906101000a90046001600160a01b03166001600160a01b031663313ce5676040518163ffffffff1660e01b815260040160206040518083038186803b158015610f7457600080fd5b6008546001600160a01b0385811691161415611063576007546001600160a01b03166000908152601060205260409020546110139061116e9088906139c4565b6006546001600160a01b031660009081526010602052604090205461218f565b6008546001600160a01b038681169116141561130b576006546001600160a01b0385811691161415611212576008546001600160a01b03166000908152601060205260409020546110de906111e49088906139c4565b6006546001600160a01b039081166000908152601060205260408082205460075490931682529020546122c9565b6007546001600160a01b038581169116141561130b576008546001600160a01b0316600090815260106020526040902054611280906112529088906139c4565b6007546001600160a01b039081166000908152601060205260408082205460065490931682529020546122c9565b9150600760009054906101000a90046001600160a01b03166001600160a01b031663313ce5676040518163ffffffff1660e01b815260040160206040518083038186803b1580156112d057600080fd5b505afa1580156112e4573d6000803e3d6000fd5b505050506040513d601f19601f820116820180604052508101906113089190613902565b90505b60038160ff16106113485761134182611325600384613b22565b61133090600a613a41565b61133c906103e5613aec565b611b19565b925061137d565b61137a6113728361136d61135d856003613b22565b61136890600a613a41565b612434565b61199c565b6103e5611b19565b92505b600083116113cd5760405162461bcd60e51b815260206004820152601760248201527f494e53554646494349454e545f4f55545f414d4f554e5400000000000000000060448201526064016105ad565b50509392505050565b6060600480546103ce90613b71565b6000806000600f5460011461140c5760405162461bcd60e51b81526004016105ad90613998565b6000600f558361145e5760405162461bcd60e51b815260206004820152601c60248201527f494e53554646494349454e545f57495448445241575f414d4f554e540000000060448201526064016105ad565b6114936114738561146e60025490565b6118f7565b6008546001600160a01b0316600090815260106020526040902054611b19565b6008549091506114ac906001600160a01b031682610468565b5090935091506114bd33308661051f565b506114c8308561244b565b6006546114df906001600160a01b03163385612591565b6007546114f6906001600160a01b03163384612591565b60085461150d906001600160a01b03163383612591565b6006546001600160a01b0316600090815260106020526040902054611533908490613b0b565b6006546001600160a01b039081166000908152601060205260408082209390935560075490911681522054611569908390613b0b565b6007546001600160a01b03908116600090815260106020526040808220939093556008549091168152205461159f908290613b0b565b6008546001600160a01b03166000908152601060205260409020556115c2611e89565b600d60106101000a8154816001600160801b030219169083600f0b6001600160801b031602179055507fb088a38065873c9d2da855cf4a2e4aa012b28e45ead53c5b9edbcf71614cfb2383838361162d600d60109054906101000a9004600f0b6402540be400611b19565b60408051948552602085019390935291830152606082015260800160405180910390a16001600f559193909250565b3360009081526001602090815260408083206001600160a01b0386168452909152812054828110156116de5760405162461bcd60e51b815260206004820152602560248201527f45524332303a2064656372656173656420616c6c6f77616e63652062656c6f77604482015264207a65726f60d81b60648201526084016105ad565b6116eb33858584036119f4565b5060019392505050565b600061045e338484611b81565b60065460009081906001600160a01b0384811691161415611765576007546001600160a01b03858116911614156117425761173b6126d3565b905061182c565b6008546001600160a01b03858116911614156117605761173b6127a4565b61182c565b6007546001600160a01b03848116911614156117c7576006546001600160a01b03858116911614156117a65761173b61179e6001611935565b61136d6126d3565b6008546001600160a01b03858116911614156117605761173b61179e6127a4565b6008546001600160a01b038481169116141561182c576006546001600160a01b03858116911614156118085761173b6118006001611935565b61136d6127a4565b6007546001600160a01b038581169116141561182c576118296118006126d3565b90505b61183e81670de0b6b3a7640000611b19565b949350505050565b6005546001600160a01b031633146118985760405162461bcd60e51b81526020600482015260156024820152742732b9ba32b21020a6a69d102327a92124a22222a760591b60448201526064016105ad565b600680546001600160a01b039485166001600160a01b0319918216811790925560078054948616948216851790556008805493909516921682179093556000928352601060205260408084208490559183528183208390558252812055565b60008161190357600080fd5b600061190f848461291d565b905060016001607f1b036001600160801b038216111561192e57600080fd5b9392505050565b6000677fffffffffffffff1982121580156119585750677fffffffffffffff8213155b61196157600080fd5b5060401b90565b6000600f82810b9084900b0360016001607f1b03198112801590611993575060016001607f1b038113155b61192e57600080fd5b600081600f0b600014156119af57600080fd5b600082600f0b604085600f0b901b816119ca576119ca613bd8565b05905060016001607f1b03198112801590611993575060016001607f1b0381131561192e57600080fd5b6001600160a01b038316611a565760405162461bcd60e51b8152602060048201526024808201527f45524332303a20617070726f76652066726f6d20746865207a65726f206164646044820152637265737360e01b60648201526084016105ad565b6001600160a01b038216611ab75760405162461bcd60e51b815260206004820152602260248201527f45524332303a20617070726f766520746f20746865207a65726f206164647265604482015261737360f01b60648201526084016105ad565b6001600160a01b0383811660008181526001602090815260408083209487168084529482529182902085905590518481527f8c5be1e5ebec7d5bd14f71427d1e84f3dd0314c0f7b2291e5b200ac8c7c3b92591015b60405180910390a3505050565b600081611b2857506000610462565b600083600f0b1215611b3957600080fd5b600f83900b6001600160801b038316810260401c90608084901c026001600160c01b03811115611b6857600080fd5b60401b8119811115611b7957600080fd5b019392505050565b6001600160a01b038316611be55760405162461bcd60e51b815260206004820152602560248201527f45524332303a207472616e736665722066726f6d20746865207a65726f206164604482015264647265737360d81b60648201526084016105ad565b6001600160a01b038216611c475760405162461bcd60e51b815260206004820152602360248201527f45524332303a207472616e7366657220746f20746865207a65726f206164647260448201526265737360e81b60648201526084016105ad565b6001600160a01b03831660009081526020819052604090205481811015611cbf5760405162461bcd60e51b815260206004820152602660248201527f45524332303a207472616e7366657220616d6f756e7420657863656564732062604482015265616c616e636560d01b60648201526084016105ad565b6001600160a01b03808516600090815260208190526040808220858503905591851681529081208054849290611cf69084906139c4565b92505081905550826001600160a01b0316846001600160a01b03167fddf252ad1be2c89b69c2b068fc378daa952ba7f163c4a11628f55a4df523b3ef84604051611d4291815260200190565b60405180910390a35b50505050565b600080611d70611d6a611d646001611935565b85611968565b86611b19565b90506000611d90611d8a611d846001611935565b86612a7f565b87611b19565b90508482108015611da057508085105b9695505050505050565b6001600160a01b038216611e005760405162461bcd60e51b815260206004820152601f60248201527f45524332303a206d696e7420746f20746865207a65726f20616464726573730060448201526064016105ad565b8060026000828254611e1291906139c4565b90915550506001600160a01b03821660009081526020819052604081208054839290611e3f9084906139c4565b90915550506040518181526001600160a01b038316906000907fddf252ad1be2c89b69c2b068fc378daa952ba7f163c4a11628f55a4df523b3ef9060200160405180910390a35050565b6006546001600160a01b0316600081815260106020908152604080832054815163313ce56760e01b8152915193948594611f25949293919263313ce5679260048082019391829003018186803b158015611ee257600080fd5b505afa158015611ef6573d6000803e3d6000fd5b505050506040513d601f19601f82011682018060405250810190611f1a9190613902565b61146e90600a613a41565b6007546001600160a01b0316600081815260106020908152604080832054815163313ce56760e01b815291519596509294611f7c949263313ce5679260048082019391829003018186803b158015611ee257600080fd5b6008546001600160a01b0316600081815260106020908152604080832054815163313ce56760e01b815291519596509294611fd3949263313ce5679260048082019391829003018186803b158015611ee257600080fd5b9050611fff611fe28484612ab2565b600a54611ffa908490600160801b9004600f0b612b02565b612a7f565b935050505090565b60008061205c84600660009054906101000a90046001600160a01b03166001600160a01b031663313ce5676040518163ffffffff1660e01b815260040160206040518083038186803b158015611ee257600080fd5b905060006120b284600760009054906101000a90046001600160a01b03166001600160a01b031663313ce5676040518163ffffffff1660e01b815260040160206040518083038186803b158015611ee257600080fd5b6008546001600160a01b0316600081815260106020908152604080832054815163313ce56760e01b815291519596509294612109949263313ce5679260048082019391829003018186803b158015611ee257600080fd5b90506000612153612141600d60109054906101000a9004600f0b61213c85600a60109054906101000a9004600f0b612b02565b611968565b600c54600160801b9004600f0b612b02565b90506121848361213c6121798461213c89600a60009054906101000a9004600f0b612b02565b600b54600f0b612b02565b979650505050505050565b6000806121e484600660009054906101000a90046001600160a01b03166001600160a01b031663313ce5676040518163ffffffff1660e01b815260040160206040518083038186803b158015611ee257600080fd5b9050600061223a84600760009054906101000a90046001600160a01b03166001600160a01b031663313ce5676040518163ffffffff1660e01b815260040160206040518083038186803b158015611ee257600080fd5b6008546001600160a01b0316600081815260106020908152604080832054815163313ce56760e01b815291519596509294612291949263313ce5679260048082019391829003018186803b158015611ee257600080fd5b9050611da08161213c6122b7600d60109054906101000a9004600f0b61213c8888612ab2565b600b54600160801b9004600f0b612b02565b60008061231e84600660009054906101000a90046001600160a01b03166001600160a01b031663313ce5676040518163ffffffff1660e01b815260040160206040518083038186803b158015611ee257600080fd5b9050600061237484600760009054906101000a90046001600160a01b03166001600160a01b031663313ce5676040518163ffffffff1660e01b815260040160206040518083038186803b158015611ee257600080fd5b905060006123ca87600860009054906101000a90046001600160a01b03166001600160a01b031663313ce5676040518163ffffffff1660e01b815260040160206040518083038186803b158015611ee257600080fd5b600a549091506000906123e1908490600f0b612b02565b90506000612414612141600d60109054906101000a9004600f0b61213c86600a60109054906101000a9004600f0b612b02565b90506124278561213c6121798486611968565b9998505050505050505050565b6000677fffffffffffffff82111561196157600080fd5b6001600160a01b0382166124ab5760405162461bcd60e51b815260206004820152602160248201527f45524332303a206275726e2066726f6d20746865207a65726f206164647265736044820152607360f81b60648201526084016105ad565b6001600160a01b0382166000908152602081905260409020548181101561251f5760405162461bcd60e51b815260206004820152602260248201527f45524332303a206275726e20616d6f756e7420657863656564732062616c616e604482015261636560f01b60648201526084016105ad565b6001600160a01b038316600090815260208190526040812083830390556002805484929061254e908490613b0b565b90915550506040518281526000906001600160a01b038516907fddf252ad1be2c89b69c2b068fc378daa952ba7f163c4a11628f55a4df523b3ef90602001611b0c565b604080518082018252601981527f7472616e7366657228616464726573732c75696e74323536290000000000000060209182015281516001600160a01b0385811660248301526044808301869052845180840390910181526064909201845291810180516001600160e01b031663a9059cbb60e01b1790529151600092839287169161261d9190613925565b6000604051808303816000865af19150503d806000811461265a576040519150601f19603f3d011682016040523d82523d6000602084013e61265f565b606091505b50915091508180156126895750805115806126895750808060200190518101906126899190613819565b6126cc5760405162461bcd60e51b81526020600482015260146024820152731053534e881514905394d1915497d1905253115160621b60448201526064016105ad565b5050505050565b6006546001600160a01b0316600081815260106020908152604080832054815163313ce56760e01b815291519394859461272c949293919263313ce5679260048082019391829003018186803b158015611ee257600080fd5b6007546001600160a01b0316600081815260106020908152604080832054815163313ce56760e01b815291519596509294612783949263313ce5679260048082019391829003018186803b158015611ee257600080fd5b905061279d612792838361199c565b600954600f0b612b02565b9250505090565b6006546001600160a01b0316600081815260106020908152604080832054815163313ce56760e01b81529151939485946127fd949293919263313ce5679260048082019391829003018186803b158015611ee257600080fd5b6007546001600160a01b0316600081815260106020908152604080832054815163313ce56760e01b815291519596509294612854949263313ce5679260048082019391829003018186803b158015611ee257600080fd5b6008546001600160a01b0316600081815260106020908152604080832054815163313ce56760e01b8152915195965092946128ab949263313ce5679260048082019391829003018186803b158015611ee257600080fd5b905060006128b9838561199c565b905060006128e96128de6128cd6001611935565b600a54611ffa908690600f0b612b02565b600d54600f0b612b02565b905061291361290d6128fb878661199c565b600954600160801b9004600f0b612b02565b82612b1e565b9550505050505090565b60008161292957600080fd5b60006001600160c01b0384116129545782604085901b8161294c5761294c613bd8565b049050612a6b565b60c084811c640100000000811061296d576020918201911c5b62010000811061297f576010918201911c5b6101008110612990576008918201911c5b601081106129a0576004918201911c5b600481106129b0576002918201911c5b600281106129bf576001820191505b60bf820360018603901c6001018260ff0387901b816129e0576129e0613bd8565b0492506001600160801b038311156129f757600080fd5b608085901c83026001600160801b038616840260c088901c604089901b82811015612a23576001820391505b608084901b92900382811015612a3a576001820391505b829003608084901c8214612a5057612a50613bac565b888181612a5f57612a5f613bd8565b04870196505050505050505b6001600160801b0381111561192e57600080fd5b6000600f83810b9083900b0160016001607f1b03198112801590611993575060016001607f1b0381131561192e57600080fd5b600a546000908190612ac8908590600f0b612b02565b600a54909150600090612adf908590600f0b612b02565b9050612af9612aee8383612a7f565b600c54600f0b612b02565b95945050505050565b600061192e612b19612b1385612b54565b84612b1e565b612c34565b6000600f83810b9083900b0260401d60016001607f1b03198112801590611993575060016001607f1b0381131561192e57600080fd5b60008082600f0b13612b6557600080fd5b6000600f83900b680100000000000000008112612b84576040918201911d5b6401000000008112612b98576020918201911d5b620100008112612baa576010918201911d5b6101008112612bbb576008918201911d5b60108112612bcb576004918201911d5b60048112612bdb576002918201911d5b60028112612bea576001820191505b603f19820160401b600f85900b607f8490031b6001603f1b5b6000811315612c295790800260ff81901c8281029390930192607f011c9060011d612c03565b509095945050505050565b60006840000000000000000082600f0b12612c4e57600080fd5b683fffffffffffffffff1982600f0b1215612c6b57506000919050565b6001607f1b60006001603f1b8416600f0b1315612c995770016a09e667f3bcc908b2fb1366ea957d3e0260801c5b60008367400000000000000016600f0b1315612cc6577001306fe0a31b7152de8d5a46305c85edec0260801c5b60008367200000000000000016600f0b1315612cf3577001172b83c7d517adcdf7c8c50eb14a791f0260801c5b60008367100000000000000016600f0b1315612d205770010b5586cf9890f6298b92b71842a983630260801c5b60008367080000000000000016600f0b1315612d4d577001059b0d31585743ae7c548eb68ca417fd0260801c5b60008367040000000000000016600f0b1315612d7a57700102c9a3e778060ee6f7caca4f7a29bde80260801c5b60008367020000000000000016600f0b1315612da75770010163da9fb33356d84a66ae336dcdfa3f0260801c5b60008367010000000000000016600f0b1315612dd457700100b1afa5abcbed6129ab13ec11dc95430260801c5b600083668000000000000016600f0b1315612e005770010058c86da1c09ea1ff19d294cf2f679b0260801c5b600083664000000000000016600f0b1315612e2c577001002c605e2e8cec506d21bfc89a23a00f0260801c5b600083662000000000000016600f0b1315612e5857700100162f3904051fa128bca9c55c31e5df0260801c5b600083661000000000000016600f0b1315612e84577001000b175effdc76ba38e31671ca9397250260801c5b600083660800000000000016600f0b1315612eb057700100058ba01fb9f96d6cacd4b180917c3d0260801c5b600083660400000000000016600f0b1315612edc5770010002c5cc37da9491d0985c348c68e7b30260801c5b600083660200000000000016600f0b1315612f08577001000162e525ee054754457d59952920260260801c5b600083660100000000000016600f0b1315612f345770010000b17255775c040618bf4a4ade83fc0260801c5b6000836580000000000016600f0b1315612f5f577001000058b91b5bc9ae2eed81e9b7d4cfab0260801c5b6000836540000000000016600f0b1315612f8a57700100002c5c89d5ec6ca4d7c8acc017b7c90260801c5b6000836520000000000016600f0b1315612fb55770010000162e43f4f831060e02d839a9d16d0260801c5b6000836510000000000016600f0b1315612fe057700100000b1721bcfc99d9f890ea069117630260801c5b6000836508000000000016600f0b131561300b5770010000058b90cf1e6d97f9ca14dbcc16280260801c5b6000836504000000000016600f0b1315613036577001000002c5c863b73f016468f6bac5ca2b0260801c5b6000836502000000000016600f0b131561306157700100000162e430e5a18f6119e3c02282a50260801c5b6000836501000000000016600f0b131561308c577001000000b1721835514b86e6d96efd1bfe0260801c5b60008364800000000016600f0b13156130b657700100000058b90c0b48c6be5df846c5b2ef0260801c5b60008364400000000016600f0b13156130e05770010000002c5c8601cc6b9e94213c72737a0260801c5b60008364200000000016600f0b131561310a577001000000162e42fff037df38aa2b219f060260801c5b60008364100000000016600f0b13156131345770010000000b17217fba9c739aa5819f44f90260801c5b60008364080000000016600f0b131561315e577001000000058b90bfcdee5acd3c1cedc8230260801c5b60008364040000000016600f0b131561318857700100000002c5c85fe31f35a6a30da1be500260801c5b60008364020000000016600f0b13156131b25770010000000162e42ff0999ce3541b9fffcf0260801c5b60008364010000000016600f0b13156131dc57700100000000b17217f80f4ef5aadda455540260801c5b600083638000000016600f0b13156132055770010000000058b90bfbf8479bd5a81b51ad0260801c5b600083634000000016600f0b131561322e577001000000002c5c85fdf84bd62ae30a74cc0260801c5b600083632000000016600f0b131561325757700100000000162e42fefb2fed257559bdaa0260801c5b600083631000000016600f0b1315613280577001000000000b17217f7d5a7716bba4a9ae0260801c5b600083630800000016600f0b13156132a957700100000000058b90bfbe9ddbac5e109cce0260801c5b600083630400000016600f0b13156132d25770010000000002c5c85fdf4b15de6f17eb0d0260801c5b600083630200000016600f0b13156132fb577001000000000162e42fefa494f1478fde050260801c5b600083630100000016600f0b13156133245770010000000000b17217f7d20cf927c8e94c0260801c5b6000836280000016600f0b131561334c577001000000000058b90bfbe8f71cb4e4b33d0260801c5b6000836240000016600f0b131561337457700100000000002c5c85fdf477b662b269450260801c5b6000836220000016600f0b131561339c5770010000000000162e42fefa3ae53369388c0260801c5b6000836210000016600f0b13156133c457700100000000000b17217f7d1d351a389d400260801c5b6000836208000016600f0b13156133ec5770010000000000058b90bfbe8e8b2d3d4ede0260801c5b6000836204000016600f0b1315613414577001000000000002c5c85fdf4741bea6e77e0260801c5b6000836202000016600f0b131561343c57700100000000000162e42fefa39fe95583c20260801c5b6000836201000016600f0b1315613464577001000000000000b17217f7d1cfb72b45e10260801c5b60008361800016600f0b131561348b57700100000000000058b90bfbe8e7cc35c3f00260801c5b60008361400016600f0b13156134b25770010000000000002c5c85fdf473e242ea380260801c5b60008361200016600f0b13156134d9577001000000000000162e42fefa39f02b772c0260801c5b60008361100016600f0b13156135005770010000000000000b17217f7d1cf7d83c1a0260801c5b60008361080016600f0b1315613527577001000000000000058b90bfbe8e7bdcbe2e0260801c5b60008361040016600f0b131561354e57700100000000000002c5c85fdf473dea871f0260801c5b60008361020016600f0b13156135755770010000000000000162e42fefa39ef44d910260801c5b60008361010016600f0b131561359c57700100000000000000b17217f7d1cf79e9490260801c5b600083608016600f0b13156135c25770010000000000000058b90bfbe8e7bce5440260801c5b600083604016600f0b13156135e8577001000000000000002c5c85fdf473de6eca0260801c5b600083602016600f0b131561360e57700100000000000000162e42fefa39ef366f0260801c5b600083601016600f0b1315613634577001000000000000000b17217f7d1cf79afa0260801c5b600083600816600f0b131561365a57700100000000000000058b90bfbe8e7bcd6d0260801c5b600083600416600f0b13156136805770010000000000000002c5c85fdf473de6b20260801c5b600083600216600f0b13156136a6577001000000000000000162e42fefa39ef3580260801c5b600083600116600f0b13156136cc5770010000000000000000b17217f7d1cf79ab0260801c5b600f83810b60401d603f03900b1c60016001607f1b0381111561046257600080fd5b60006020828403121561370057600080fd5b813561192e81613bee565b60006020828403121561371d57600080fd5b815161192e81613bee565b6000806040838503121561373b57600080fd5b823561374681613bee565b9150602083013561375681613bee565b809150509250929050565b60008060006060848603121561377657600080fd5b833561378181613bee565b9250602084013561379181613bee565b915060408401356137a181613bee565b809150509250925092565b6000806000606084860312156137c157600080fd5b83356137cc81613bee565b925060208401356137dc81613bee565b929592945050506040919091013590565b6000806040838503121561380057600080fd5b823561380b81613bee565b946020939093013593505050565b60006020828403121561382b57600080fd5b8151801515811461192e57600080fd5b60006020828403121561384d57600080fd5b5035919050565b60008060006060848603121561386957600080fd5b83359250602084013561379181613bee565b600080600080600060a0868803121561389357600080fd5b8535945060208601356138a581613bee565b935060408601356138b581613bee565b925060608601356138c581613bee565b949793965091946080013592915050565b6000806000606084860312156138eb57600080fd5b505081359360208301359350604090920135919050565b60006020828403121561391457600080fd5b815160ff8116811461192e57600080fd5b60008251613937818460208701613b45565b9190910192915050565b6001600160a01b039384168152919092166020820152604081019190915260600190565b6020815260008251806020840152613984816040850160208701613b45565b601f01601f19169190910160400192915050565b60208082526012908201527113995cdd1959081053534e881313d0d2d15160721b604082015260600190565b600082198211156139d7576139d7613bc2565b500190565b6000826139f957634e487b7160e01b600052601260045260246000fd5b500490565b600181815b80851115613a39578160001904821115613a1f57613a1f613bc2565b80851615613a2c57918102915b93841c9390800290613a03565b509250929050565b600061192e60ff841683600082613a5a57506001610462565b81613a6757506000610462565b8160018114613a7d5760028114613a8757613aa3565b6001915050610462565b60ff841115613a9857613a98613bc2565b50506001821b610462565b5060208310610133831016604e8410600b8410161715613ac6575081810a610462565b613ad083836139fe565b8060001904821115613ae457613ae4613bc2565b029392505050565b6000816000190483118215151615613b0657613b06613bc2565b500290565b600082821015613b1d57613b1d613bc2565b500390565b600060ff821660ff841680821015613b3c57613b3c613bc2565b90039392505050565b60005b83811015613b60578181015183820152602001613b48565b83811115611d4b5750506000910152565b600181811c90821680613b8557607f821691505b60208210811415613ba657634e487b7160e01b600052602260045260246000fd5b50919050565b634e487b7160e01b600052600160045260246000fd5b634e487b7160e01b600052601160045260246000fd5b634e487b7160e01b600052601260045260246000fd5b6001600160a01b0381168114613c0357600080fd5b5056fea2646970667358221220335fdfd1453c5ecd18268b838f16bbca50f53062adfd29ad985ce30e413520af64736f6c63430008070033",
  "immutableReferences": {},
  "source": "// SPDX-License-Identifier: MIT\npragma solidity >=0.4.22 <0.9.0;\n\nimport {IERC20} from \"@openzeppelin/contracts/token/ERC20/IERC20.sol\";\nimport {IERC20Metadata} from \"@openzeppelin/contracts/token/ERC20/extensions/IERC20Metadata.sol\";\nimport \"@openzeppelin/contracts/token/ERC20/ERC20.sol\";\nimport \"./NestedAMMFactory.sol\";\nimport \"./ABDKMath64x64.sol\";\n\n\ncontract NestedAMMPool is IERC20, ERC20 {\n    uint public constant precision = 1000;\n    uint public constant MINIMUM_LIQUIDITY = 10**3;\n    bytes4 private constant SELECTOR = bytes4(keccak256(bytes('transfer(address,uint256)')));\n\n    address public factory;\n    address public tokenA;\n    address public tokenB;\n    address public tokenY;\n\n    int128 sigma;\n    int128 eta;\n\n    int128 one_minus_sigma;\n    int128 one_minus_eta;\n    int128 reverse_sigma;\n    int128 reverse_eta;\n    int128 eta_to_sigma;\n    int128 sigma_to_eta;\n    int128 eta_minus_sigma;\n\n    int128 mu; // constant curve\n    int128 mme; // maximum margin of error\n\n    uint private unlocked = 1;\n\n    mapping(address => uint) public reserves;\n\n    modifier lock() {\n        require(unlocked == 1, 'Nested AMM: LOCKED');\n        unlocked = 0;\n        _;\n        unlocked = 1;\n    }\n\n    function _safeTransfer(\n        address token,\n        address to,\n        uint value\n    ) private {\n        (bool success, bytes memory data) = token.call(\n            abi.encodeWithSelector(SELECTOR, to, value)\n        );\n        require(\n            success && (data.length == 0 || abi.decode(data, (bool))),\n            \"AMM: TRANSFER_FAILED\"\n        );\n    }\n\n    event Deposit(uint amountA, uint amountB, uint amountY, uint muLast);\n\n    event Withdraw(\n        uint amountA,\n        uint amountB,\n        uint amountY,\n        uint muLast\n    );\n\n    event Swap(\n        uint amountIn,\n        uint amountOut,\n        address tokenIn,\n        address tokenOut,\n        address indexed sender\n    );\n\n    constructor() ERC20(\"LP Token\", \"LPT\") {\n        sigma = ABDKMath64x64.divu(200, precision);\n        eta = ABDKMath64x64.divu(800, precision);\n        mme = ABDKMath64x64.divu(5, precision);\n\n        one_minus_sigma = ABDKMath64x64.sub(ABDKMath64x64.fromInt(1), sigma);\n        one_minus_eta = ABDKMath64x64.sub(ABDKMath64x64.fromInt(1), eta);\n\n        reverse_sigma = ABDKMath64x64.div(\n            ABDKMath64x64.fromInt(1),\n            one_minus_sigma\n        );\n        reverse_eta = ABDKMath64x64.div(\n            ABDKMath64x64.fromInt(1),\n            one_minus_eta\n        );\n\n        eta_to_sigma = ABDKMath64x64.div(one_minus_eta, one_minus_sigma);\n        sigma_to_eta = ABDKMath64x64.div(one_minus_sigma, one_minus_eta);\n\n        eta_minus_sigma = ABDKMath64x64.div(\n            ABDKMath64x64.sub(eta, sigma),\n            one_minus_sigma\n        );\n\n        factory = msg.sender;\n    }\n\n    function initialize(address _tokenA, address _tokenB, address _tokenY) external {\n        require(msg.sender == factory, 'Nested AMM: FORBIDDEN'); // sufficient check\n        tokenA = _tokenA;\n        tokenB = _tokenB;\n        tokenY = _tokenY;\n\n        reserves[_tokenA] = 0;\n        reserves[_tokenB] = 0;\n        reserves[_tokenY] = 0;\n    }\n\n    function getPow(int128 x, int128 p) private pure returns (int128) {\n        return\n            ABDKMath64x64.exp_2(ABDKMath64x64.mul(ABDKMath64x64.log_2(x), p));\n    }\n\n    function getAplusB(int128 a, int128 b) private view returns (int128) {\n        int128 aexp = getPow(a, one_minus_sigma);\n        int128 bexp = getPow(b, one_minus_sigma);\n\n        return getPow(ABDKMath64x64.add(aexp, bexp), eta_to_sigma);\n    }\n\n    function muFunction() private view returns (int128) {\n        int128 a = ABDKMath64x64.divu(\n            reserves[tokenA],\n            10**IERC20Metadata(tokenA).decimals()\n        );\n        int128 b = ABDKMath64x64.divu(\n            reserves[tokenB],\n            10**IERC20Metadata(tokenB).decimals()\n        );\n        int128 y = ABDKMath64x64.divu(\n            reserves[tokenY],\n            10**IERC20Metadata(tokenY).decimals()\n        );\n\n        return ABDKMath64x64.add(getAplusB(a, b), getPow(y, one_minus_eta));\n    }\n\n    function getAtoYAmount(uint _a, uint _b)\n        private\n        view\n        returns (int128 amountOut)\n    {\n        int128 a = ABDKMath64x64.divu(_a, 10**IERC20Metadata(tokenA).decimals());\n        int128 b = ABDKMath64x64.divu(_b, 10**IERC20Metadata(tokenB).decimals());\n        int128 y = ABDKMath64x64.divu(\n            reserves[tokenY],\n            10**IERC20Metadata(tokenY).decimals()\n        );\n\n        return\n            ABDKMath64x64.sub(\n                y,\n                getPow(ABDKMath64x64.sub(mu, getAplusB(a, b)), reverse_eta)\n            );\n    }\n\n    function getYtoAAmount(\n        uint _y,\n        uint _a,\n        uint _b\n    ) private view returns (int128 amountOut) {\n        int128 a = ABDKMath64x64.divu(_a, 10**IERC20Metadata(tokenA).decimals());\n        int128 b = ABDKMath64x64.divu(_b, 10**IERC20Metadata(tokenB).decimals());\n        int128 y = ABDKMath64x64.divu(_y, 10**IERC20Metadata(tokenY).decimals());\n\n        int128 bexp = getPow(b, one_minus_sigma);\n        int128 temp = getPow(\n            ABDKMath64x64.sub(mu, getPow(y, one_minus_eta)),\n            sigma_to_eta\n        );\n\n        return\n            ABDKMath64x64.sub(\n                a,\n                getPow(ABDKMath64x64.sub(temp, bexp), reverse_sigma)\n            );\n    }\n\n    function getAtoBAmount(uint _a, uint _b)\n        private\n        view\n        returns (int128 amountOut)\n    {\n        int128 a = ABDKMath64x64.divu(_a, 10**IERC20Metadata(tokenA).decimals());\n        int128 b = ABDKMath64x64.divu(_b, 10**IERC20Metadata(tokenB).decimals());\n        int128 y = ABDKMath64x64.divu(\n            reserves[tokenY],\n            10**IERC20Metadata(tokenY).decimals()\n        );\n        int128 temp = getPow(\n            ABDKMath64x64.sub(mu, getPow(y, one_minus_eta)),\n            sigma_to_eta\n        );\n        return\n            ABDKMath64x64.sub(\n                b,\n                getPow(\n                    ABDKMath64x64.sub(temp, getPow(a, one_minus_sigma)),\n                    reverse_sigma\n                )\n            );\n    }\n\n    function getAtoBPrice() private view returns (int128 price) {\n        int128 a = ABDKMath64x64.divu(\n            reserves[tokenA],\n            10**IERC20Metadata(tokenA).decimals()\n        );\n        int128 b = ABDKMath64x64.divu(\n            reserves[tokenB],\n            10**IERC20Metadata(tokenB).decimals()\n        );\n\n        price = getPow(ABDKMath64x64.div(a, b), sigma);\n    }\n\n    function getAtoYPrice() private view returns (int128 price) {\n        int128 a = ABDKMath64x64.divu(\n            reserves[tokenA],\n            10**IERC20Metadata(tokenA).decimals()\n        );\n        int128 b = ABDKMath64x64.divu(\n            reserves[tokenB],\n            10**IERC20Metadata(tokenB).decimals()\n        );\n        int128 y = ABDKMath64x64.divu(\n            reserves[tokenY],\n            10**IERC20Metadata(tokenY).decimals()\n        );\n\n        int128 r = ABDKMath64x64.div(b, a);\n        int128 k = getPow(\n            ABDKMath64x64.add(\n                ABDKMath64x64.fromInt(1),\n                getPow(r, one_minus_sigma)\n            ),\n            eta_minus_sigma\n        );\n\n        price = ABDKMath64x64.mul(getPow(ABDKMath64x64.div(a, y), eta), k);\n    }\n\n    function checkLimit(\n        uint baseAmount,\n        uint realAmount,\n        int128 limit\n    ) private pure returns (bool) {\n        uint lowerLimit = ABDKMath64x64.mulu(\n            ABDKMath64x64.sub(ABDKMath64x64.fromInt(1), limit),\n            baseAmount\n        );\n        uint upperLimit = ABDKMath64x64.mulu(\n            ABDKMath64x64.add(ABDKMath64x64.fromInt(1), limit),\n            baseAmount\n        );\n\n        return (lowerLimit < realAmount) && (realAmount < upperLimit);\n    }\n\n    function getAmountsAddToken(address token, uint amount)\n        public\n        view\n        returns (\n            uint addAmountA,\n            uint addAmountB,\n            uint addAmountY\n        )\n    {\n        addAmountA = ABDKMath64x64.mulu(\n            ABDKMath64x64.divu(reserves[tokenA], reserves[token]),\n            amount\n        );\n        addAmountB = ABDKMath64x64.mulu(\n            ABDKMath64x64.divu(reserves[tokenB], reserves[token]),\n            amount\n        );\n        addAmountY = ABDKMath64x64.mulu(\n            ABDKMath64x64.divu(reserves[tokenY], reserves[token]),\n            amount\n        );\n    }\n\n    function getPrice(address tokenIn, address tokenOut)\n        public\n        view\n        returns (uint256 price)\n    {\n        int128 _price;\n        if (tokenOut == tokenA) {\n            if (tokenIn == tokenB) {\n                _price = getAtoBPrice();\n            } else if (tokenIn == tokenY) {\n                _price = getAtoYPrice();\n            }\n        } else if (tokenOut == tokenB) {\n            if (tokenIn == tokenA) {\n                _price = ABDKMath64x64.div(\n                    ABDKMath64x64.fromInt(1),\n                    getAtoBPrice()\n                );\n            } else if (tokenIn == tokenY) {\n                _price = ABDKMath64x64.div(getAtoYPrice(), getAtoBPrice());\n            }\n        } else if (tokenOut == tokenY) {\n            if (tokenIn == tokenA) {\n                _price = ABDKMath64x64.div(\n                    ABDKMath64x64.fromInt(1),\n                    getAtoYPrice()\n                );\n            } else if (tokenIn == tokenB) {\n                _price = ABDKMath64x64.div(getAtoBPrice(), getAtoYPrice());\n            }\n        }\n\n        price = ABDKMath64x64.mulu(_price, 10**18);\n    }\n\n    function getAmountOut(\n        uint amountIn,\n        address tokenIn,\n        address tokenOut\n    ) public view returns (uint256 amountOut) {\n        int128 res = 0;\n        uint8 decimal = 18;\n\n        if (tokenIn == tokenA) {\n            if (tokenOut == tokenB) {\n                res = getAtoBAmount(\n                    reserves[tokenA] + amountIn,\n                    reserves[tokenB]\n                );\n                decimal = IERC20Metadata(tokenB).decimals();\n            } else if (tokenOut == tokenY) {\n                res = getAtoYAmount(\n                    reserves[tokenA] + amountIn,\n                    reserves[tokenB]\n                );\n                decimal = IERC20Metadata(tokenY).decimals();\n            }\n        } else if (tokenIn == tokenB) {\n            if (tokenOut == tokenA) {\n                res = getAtoBAmount(\n                    reserves[tokenB] + amountIn,\n                    reserves[tokenA]\n                );\n                decimal = IERC20Metadata(tokenA).decimals();\n            } else if (tokenOut == tokenY) {\n                res = getAtoYAmount(\n                    reserves[tokenB] + amountIn,\n                    reserves[tokenA]\n                );\n                decimal = IERC20Metadata(tokenY).decimals();\n            }\n        } else if (tokenIn == tokenY) {\n            if (tokenOut == tokenA) {\n                res = getYtoAAmount(\n                    reserves[tokenY] + amountIn,\n                    reserves[tokenA],\n                    reserves[tokenB]\n                );\n                decimal = IERC20Metadata(tokenA).decimals();\n            } else if (tokenOut == tokenB) {\n                res = getYtoAAmount(\n                    reserves[tokenY] + amountIn,\n                    reserves[tokenB],\n                    reserves[tokenA]\n                );\n                decimal = IERC20Metadata(tokenB).decimals();\n            }\n        }\n\n        // Swap fee: 0.3%\n        if (decimal >= 3) {\n            amountOut = ABDKMath64x64.mulu(res, 997 * 10**(decimal - 3));\n        } else {\n            amountOut = ABDKMath64x64.mulu(\n                    ABDKMath64x64.div(\n                        res,\n                        ABDKMath64x64.fromUInt(10**(3 - decimal))\n                    ),\n                    997\n                );\n        }\n\n        require(amountOut > 0, \"INSUFFICIENT_OUT_AMOUNT\");\n\n        return amountOut;\n    }\n\n    function addLiquidity(\n        uint amountA,\n        uint amountB,\n        uint amountY\n    ) external lock returns (uint liquidity) {\n        require(amountA > 0 && amountB > 0 && amountY > 0, \"INSUFFICIENT_INPUT_AMOUNT\");\n\n        if (totalSupply() == 0) {\n            address _feeTo = NestedAMMFactory(factory).feeTo();\n           _mint(_feeTo, MINIMUM_LIQUIDITY); // permanently lock the first MINIMUM_LIQUIDITY tokens\n        } else {\n            require(\n                reserves[tokenA] > 0 &&\n                    reserves[tokenB] > 0 &&\n                    reserves[tokenY] > 0,\n                \"INSUFFICIENT_LIQUIDITY_AMOUNT\"\n            );\n\n            (uint delta_a, uint delta_b, ) = getAmountsAddToken(\n                tokenY,\n                amountY\n            );\n\n            require(\n                checkLimit(delta_a, amountA, mme) &&\n                    checkLimit(delta_b, amountB, mme),\n                \"MISMATCH_RATIO\"\n            );\n        }\n\n        IERC20(tokenA).transferFrom(msg.sender, address(this), amountA);\n        IERC20(tokenB).transferFrom(msg.sender, address(this), amountB);\n        IERC20(tokenY).transferFrom(msg.sender, address(this), amountY);\n\n        reserves[tokenA] = reserves[tokenA] + amountA;\n        reserves[tokenB] = reserves[tokenB] + amountB;\n        reserves[tokenY] = reserves[tokenY] + amountY;\n\n        _mint(msg.sender, amountY);\n\n        mu = muFunction();\n\n        emit Deposit(amountA, amountB, amountY, ABDKMath64x64.mulu(mu, 10**10));\n\n        liquidity = amountY;\n    }\n\n    function removeLiquidity(uint amount) external lock returns (uint delta_a, uint delta_b, uint delta_y) {\n        require(amount > 0, \"INSUFFICIENT_WITHDRAW_AMOUNT\");\n\n        delta_y = ABDKMath64x64.mulu(\n            ABDKMath64x64.divu(amount, totalSupply()),\n            reserves[tokenY]\n        );\n\n        (delta_a, delta_b, ) = getAmountsAddToken(\n            tokenY,\n            delta_y\n        );\n\n        transferFrom(msg.sender, address(this), amount);\n        _burn(address(this), amount);\n\n        _safeTransfer(tokenA, msg.sender, delta_a);\n        _safeTransfer(tokenB, msg.sender, delta_b);\n        _safeTransfer(tokenY, msg.sender, delta_y);\n\n        reserves[tokenA] = reserves[tokenA] - delta_a;\n        reserves[tokenB] = reserves[tokenB] - delta_b;\n        reserves[tokenY] = reserves[tokenY] - delta_y;\n\n        mu = muFunction();\n\n        emit Withdraw(\n            delta_a,\n            delta_b,\n            delta_y,\n            ABDKMath64x64.mulu(mu, 10**10)\n        );\n    }\n\n    function swapToken(\n        uint amountIn,\n        address tokenIn,\n        address tokenOut,\n        address recipient,\n        uint slippage // define enum in the production\n    ) external lock returns (uint amountOut) {\n        uint price = getPrice(tokenIn, tokenOut);\n\n        require(amountIn > 0, \"INSUFFICIENT_INPUT_AMOUNT\");\n\n        amountOut = getAmountOut(amountIn, tokenIn, tokenOut);\n\n        uint realPrice = (amountOut * (10**18)) / amountIn;\n\n        require(\n            checkLimit(\n                price,\n                realPrice,\n                ABDKMath64x64.divu(slippage, precision)\n            ),\n            \"NOT_ENOUGH_SLIPPAGE_LEVEL\"\n        );\n\n        require(\n            reserves[tokenOut] > amountOut,\n            \"INSUFFICIENT_OUTPUT_AMOUNT\"\n        );\n\n        IERC20(tokenIn).transferFrom(msg.sender, address(this), amountIn);\n\n        reserves[tokenIn] = reserves[tokenIn] + amountIn;\n        reserves[tokenOut] = reserves[tokenOut] - amountOut;\n\n        IERC20(tokenOut).transfer(recipient, amountOut);\n\n        emit Swap(amountIn, amountOut, tokenIn, tokenOut, msg.sender);\n\n        return amountOut;\n    }\n}",
  "sourcePath": "/home/kevin/work_test/AMM-SmartContract/SmartContracts/contracts/NestedAMMPool.sol",
  "compiler": {
    "name": "solc",
    "version": "0.8.7+commit.e28d00a7.Emscripten.clang"
  },
  "schemaVersion": "3.4.3",
  "updatedAt": "2021-10-04T04:21:41.651Z",
  "devdoc": {
    "kind": "dev",
    "methods": {
      "allowance(address,address)": {
        "details": "See {IERC20-allowance}."
      },
      "approve(address,uint256)": {
        "details": "See {IERC20-approve}. Requirements: - `spender` cannot be the zero address."
      },
      "balanceOf(address)": {
        "details": "See {IERC20-balanceOf}."
      },
      "decimals()": {
        "details": "Returns the number of decimals used to get its user representation. For example, if `decimals` equals `2`, a balance of `505` tokens should be displayed to a user as `5.05` (`505 / 10 ** 2`). Tokens usually opt for a value of 18, imitating the relationship between Ether and Wei. This is the value {ERC20} uses, unless this function is overridden; NOTE: This information is only used for _display_ purposes: it in no way affects any of the arithmetic of the contract, including {IERC20-balanceOf} and {IERC20-transfer}."
      },
      "decreaseAllowance(address,uint256)": {
        "details": "Atomically decreases the allowance granted to `spender` by the caller. This is an alternative to {approve} that can be used as a mitigation for problems described in {IERC20-approve}. Emits an {Approval} event indicating the updated allowance. Requirements: - `spender` cannot be the zero address. - `spender` must have allowance for the caller of at least `subtractedValue`."
      },
      "increaseAllowance(address,uint256)": {
        "details": "Atomically increases the allowance granted to `spender` by the caller. This is an alternative to {approve} that can be used as a mitigation for problems described in {IERC20-approve}. Emits an {Approval} event indicating the updated allowance. Requirements: - `spender` cannot be the zero address."
      },
      "name()": {
        "details": "Returns the name of the token."
      },
      "symbol()": {
        "details": "Returns the symbol of the token, usually a shorter version of the name."
      },
      "totalSupply()": {
        "details": "See {IERC20-totalSupply}."
      },
      "transfer(address,uint256)": {
        "details": "See {IERC20-transfer}. Requirements: - `recipient` cannot be the zero address. - the caller must have a balance of at least `amount`."
      },
      "transferFrom(address,address,uint256)": {
        "details": "See {IERC20-transferFrom}. Emits an {Approval} event indicating the updated allowance. This is not required by the EIP. See the note at the beginning of {ERC20}. Requirements: - `sender` and `recipient` cannot be the zero address. - `sender` must have a balance of at least `amount`. - the caller must have allowance for ``sender``'s tokens of at least `amount`."
      }
    },
    "version": 1
  },
  "userdoc": {
    "kind": "user",
    "methods": {},
    "version": 1
  }
}