{
  "contractName": "NestedAMMPool",
  "abi": [
    {
      "inputs": [],
      "stateMutability": "nonpayable",
      "type": "constructor"
    },
    {
      "anonymous": false,
      "inputs": [
        {
          "indexed": true,
          "internalType": "address",
          "name": "owner",
          "type": "address"
        },
        {
          "indexed": true,
          "internalType": "address",
          "name": "spender",
          "type": "address"
        },
        {
          "indexed": false,
          "internalType": "uint256",
          "name": "value",
          "type": "uint256"
        }
      ],
      "name": "Approval",
      "type": "event"
    },
    {
      "anonymous": false,
      "inputs": [
        {
          "indexed": false,
          "internalType": "uint256",
          "name": "amountA",
          "type": "uint256"
        },
        {
          "indexed": false,
          "internalType": "uint256",
          "name": "amountB",
          "type": "uint256"
        },
        {
          "indexed": false,
          "internalType": "uint256",
          "name": "amountY",
          "type": "uint256"
        },
        {
          "indexed": false,
          "internalType": "uint256",
          "name": "muLast",
          "type": "uint256"
        }
      ],
      "name": "Deposit",
      "type": "event"
    },
    {
      "anonymous": false,
      "inputs": [
        {
          "indexed": false,
          "internalType": "uint256",
          "name": "amountIn",
          "type": "uint256"
        },
        {
          "indexed": false,
          "internalType": "uint256",
          "name": "amountOut",
          "type": "uint256"
        },
        {
          "indexed": false,
          "internalType": "address",
          "name": "tokenIn",
          "type": "address"
        },
        {
          "indexed": false,
          "internalType": "address",
          "name": "tokenOut",
          "type": "address"
        },
        {
          "indexed": true,
          "internalType": "address",
          "name": "sender",
          "type": "address"
        }
      ],
      "name": "Swap",
      "type": "event"
    },
    {
      "anonymous": false,
      "inputs": [
        {
          "indexed": true,
          "internalType": "address",
          "name": "from",
          "type": "address"
        },
        {
          "indexed": true,
          "internalType": "address",
          "name": "to",
          "type": "address"
        },
        {
          "indexed": false,
          "internalType": "uint256",
          "name": "value",
          "type": "uint256"
        }
      ],
      "name": "Transfer",
      "type": "event"
    },
    {
      "anonymous": false,
      "inputs": [
        {
          "indexed": false,
          "internalType": "uint256",
          "name": "amountA",
          "type": "uint256"
        },
        {
          "indexed": false,
          "internalType": "uint256",
          "name": "amountB",
          "type": "uint256"
        },
        {
          "indexed": false,
          "internalType": "uint256",
          "name": "amountY",
          "type": "uint256"
        },
        {
          "indexed": false,
          "internalType": "uint256",
          "name": "muLast",
          "type": "uint256"
        }
      ],
      "name": "Withdraw",
      "type": "event"
    },
    {
      "inputs": [],
      "name": "MINIMUM_LIQUIDITY",
      "outputs": [
        {
          "internalType": "uint256",
          "name": "",
          "type": "uint256"
        }
      ],
      "stateMutability": "view",
      "type": "function"
    },
    {
      "inputs": [
        {
          "internalType": "address",
          "name": "owner",
          "type": "address"
        },
        {
          "internalType": "address",
          "name": "spender",
          "type": "address"
        }
      ],
      "name": "allowance",
      "outputs": [
        {
          "internalType": "uint256",
          "name": "",
          "type": "uint256"
        }
      ],
      "stateMutability": "view",
      "type": "function"
    },
    {
      "inputs": [
        {
          "internalType": "address",
          "name": "spender",
          "type": "address"
        },
        {
          "internalType": "uint256",
          "name": "amount",
          "type": "uint256"
        }
      ],
      "name": "approve",
      "outputs": [
        {
          "internalType": "bool",
          "name": "",
          "type": "bool"
        }
      ],
      "stateMutability": "nonpayable",
      "type": "function"
    },
    {
      "inputs": [
        {
          "internalType": "address",
          "name": "account",
          "type": "address"
        }
      ],
      "name": "balanceOf",
      "outputs": [
        {
          "internalType": "uint256",
          "name": "",
          "type": "uint256"
        }
      ],
      "stateMutability": "view",
      "type": "function"
    },
    {
      "inputs": [],
      "name": "decimals",
      "outputs": [
        {
          "internalType": "uint8",
          "name": "",
          "type": "uint8"
        }
      ],
      "stateMutability": "view",
      "type": "function"
    },
    {
      "inputs": [
        {
          "internalType": "address",
          "name": "spender",
          "type": "address"
        },
        {
          "internalType": "uint256",
          "name": "subtractedValue",
          "type": "uint256"
        }
      ],
      "name": "decreaseAllowance",
      "outputs": [
        {
          "internalType": "bool",
          "name": "",
          "type": "bool"
        }
      ],
      "stateMutability": "nonpayable",
      "type": "function"
    },
    {
      "inputs": [],
      "name": "factory",
      "outputs": [
        {
          "internalType": "address",
          "name": "",
          "type": "address"
        }
      ],
      "stateMutability": "view",
      "type": "function"
    },
    {
      "inputs": [
        {
          "internalType": "address",
          "name": "spender",
          "type": "address"
        },
        {
          "internalType": "uint256",
          "name": "addedValue",
          "type": "uint256"
        }
      ],
      "name": "increaseAllowance",
      "outputs": [
        {
          "internalType": "bool",
          "name": "",
          "type": "bool"
        }
      ],
      "stateMutability": "nonpayable",
      "type": "function"
    },
    {
      "inputs": [],
      "name": "name",
      "outputs": [
        {
          "internalType": "string",
          "name": "",
          "type": "string"
        }
      ],
      "stateMutability": "view",
      "type": "function"
    },
    {
      "inputs": [],
      "name": "precision",
      "outputs": [
        {
          "internalType": "uint256",
          "name": "",
          "type": "uint256"
        }
      ],
      "stateMutability": "view",
      "type": "function"
    },
    {
      "inputs": [
        {
          "internalType": "address",
          "name": "",
          "type": "address"
        }
      ],
      "name": "reserves",
      "outputs": [
        {
          "internalType": "uint256",
          "name": "",
          "type": "uint256"
        }
      ],
      "stateMutability": "view",
      "type": "function"
    },
    {
      "inputs": [],
      "name": "symbol",
      "outputs": [
        {
          "internalType": "string",
          "name": "",
          "type": "string"
        }
      ],
      "stateMutability": "view",
      "type": "function"
    },
    {
      "inputs": [],
      "name": "tokenA",
      "outputs": [
        {
          "internalType": "address",
          "name": "",
          "type": "address"
        }
      ],
      "stateMutability": "view",
      "type": "function"
    },
    {
      "inputs": [],
      "name": "tokenB",
      "outputs": [
        {
          "internalType": "address",
          "name": "",
          "type": "address"
        }
      ],
      "stateMutability": "view",
      "type": "function"
    },
    {
      "inputs": [],
      "name": "tokenY",
      "outputs": [
        {
          "internalType": "address",
          "name": "",
          "type": "address"
        }
      ],
      "stateMutability": "view",
      "type": "function"
    },
    {
      "inputs": [],
      "name": "totalSupply",
      "outputs": [
        {
          "internalType": "uint256",
          "name": "",
          "type": "uint256"
        }
      ],
      "stateMutability": "view",
      "type": "function"
    },
    {
      "inputs": [
        {
          "internalType": "address",
          "name": "recipient",
          "type": "address"
        },
        {
          "internalType": "uint256",
          "name": "amount",
          "type": "uint256"
        }
      ],
      "name": "transfer",
      "outputs": [
        {
          "internalType": "bool",
          "name": "",
          "type": "bool"
        }
      ],
      "stateMutability": "nonpayable",
      "type": "function"
    },
    {
      "inputs": [
        {
          "internalType": "address",
          "name": "sender",
          "type": "address"
        },
        {
          "internalType": "address",
          "name": "recipient",
          "type": "address"
        },
        {
          "internalType": "uint256",
          "name": "amount",
          "type": "uint256"
        }
      ],
      "name": "transferFrom",
      "outputs": [
        {
          "internalType": "bool",
          "name": "",
          "type": "bool"
        }
      ],
      "stateMutability": "nonpayable",
      "type": "function"
    },
    {
      "inputs": [
        {
          "internalType": "address",
          "name": "_tokenA",
          "type": "address"
        },
        {
          "internalType": "address",
          "name": "_tokenB",
          "type": "address"
        },
        {
          "internalType": "address",
          "name": "_tokenY",
          "type": "address"
        }
      ],
      "name": "initialize",
      "outputs": [],
      "stateMutability": "nonpayable",
      "type": "function"
    },
    {
      "inputs": [
        {
          "internalType": "address",
          "name": "token",
          "type": "address"
        },
        {
          "internalType": "uint256",
          "name": "amount",
          "type": "uint256"
        }
      ],
      "name": "getAmountsAddToken",
      "outputs": [
        {
          "internalType": "uint256",
          "name": "addAmountA",
          "type": "uint256"
        },
        {
          "internalType": "uint256",
          "name": "addAmountB",
          "type": "uint256"
        },
        {
          "internalType": "uint256",
          "name": "addAmountY",
          "type": "uint256"
        }
      ],
      "stateMutability": "view",
      "type": "function"
    },
    {
      "inputs": [
        {
          "internalType": "address",
          "name": "tokenIn",
          "type": "address"
        },
        {
          "internalType": "address",
          "name": "tokenOut",
          "type": "address"
        }
      ],
      "name": "getPrice",
      "outputs": [
        {
          "internalType": "uint256",
          "name": "price",
          "type": "uint256"
        }
      ],
      "stateMutability": "view",
      "type": "function"
    },
    {
      "inputs": [
        {
          "internalType": "uint256",
          "name": "amountIn",
          "type": "uint256"
        },
        {
          "internalType": "address",
          "name": "tokenIn",
          "type": "address"
        },
        {
          "internalType": "address",
          "name": "tokenOut",
          "type": "address"
        }
      ],
      "name": "getAmountOut",
      "outputs": [
        {
          "internalType": "uint256",
          "name": "amountOut",
          "type": "uint256"
        }
      ],
      "stateMutability": "view",
      "type": "function"
    },
    {
      "inputs": [
        {
          "internalType": "uint256",
          "name": "amountA",
          "type": "uint256"
        },
        {
          "internalType": "uint256",
          "name": "amountB",
          "type": "uint256"
        },
        {
          "internalType": "uint256",
          "name": "amountY",
          "type": "uint256"
        }
      ],
      "name": "addLiquidity",
      "outputs": [
        {
          "internalType": "uint256",
          "name": "liquidity",
          "type": "uint256"
        }
      ],
      "stateMutability": "nonpayable",
      "type": "function"
    },
    {
      "inputs": [
        {
          "internalType": "uint256",
          "name": "amount",
          "type": "uint256"
        }
      ],
      "name": "removeLiquidity",
      "outputs": [
        {
          "internalType": "uint256",
          "name": "delta_a",
          "type": "uint256"
        },
        {
          "internalType": "uint256",
          "name": "delta_b",
          "type": "uint256"
        },
        {
          "internalType": "uint256",
          "name": "delta_y",
          "type": "uint256"
        }
      ],
      "stateMutability": "nonpayable",
      "type": "function"
    },
    {
      "inputs": [
        {
          "internalType": "uint256",
          "name": "amountIn",
          "type": "uint256"
        },
        {
          "internalType": "address",
          "name": "tokenIn",
          "type": "address"
        },
        {
          "internalType": "address",
          "name": "tokenOut",
          "type": "address"
        },
        {
          "internalType": "address",
          "name": "recipient",
          "type": "address"
        },
        {
          "internalType": "uint256",
          "name": "slippage",
          "type": "uint256"
        }
      ],
      "name": "swapToken",
      "outputs": [
        {
          "internalType": "uint256",
          "name": "amountOut",
          "type": "uint256"
        }
      ],
      "stateMutability": "nonpayable",
      "type": "function"
    }
  ],
  "bytecode": "0x60806040526001600f553480156200001657600080fd5b50604051806040016040528060088152602001672628102a37b5b2b760c11b8152506040518060400160405280600381526020016213141560ea1b81525081600390805190602001906200006c9291906200063c565b508051620000829060049060208401906200063c565b5050506200009f60c86103e8620003b860201b620018791760201c565b600960006101000a8154816001600160801b030219169083600f0b6001600160801b03160217905550620000e36103206103e8620003b860201b620018791760201c565b600960106101000a8154816001600160801b030219169083600f0b6001600160801b031602179055506200012660056103e8620003b860201b620018791760201c565b600e60006101000a8154816001600160801b030219169083600f0b6001600160801b03160217905550620001826200016a6001620003fa60201b620018b71760201c565b600954600f0b6200042d602090811b620018ea17901c565b600a60006101000a8154816001600160801b030219169083600f0b6001600160801b03160217905550620001e7620001c66001620003fa60201b620018b71760201c565b600960109054906101000a9004600f0b6200042d60201b620018ea1760201c565b600a60106101000a8154816001600160801b030219169083600f0b6001600160801b03160217905550620002436200022b6001620003fa60201b620018b71760201c565b600a54600f0b62000463602090811b6200191e17901c565b600b60006101000a8154816001600160801b030219169083600f0b6001600160801b03160217905550620002a8620002876001620003fa60201b620018b71760201c565b600a60109054906101000a9004600f0b6200046360201b6200191e1760201c565b600b80546001600160801b03908116600160801b600f94850b92909216820217909155600a54620002ec92918104820b910b62000463602090811b6200191e17901c565b600c80546001600160801b0319166001600160801b03600f93840b16179055600a54620003329181810b91600160801b9004900b62000463602090811b6200191e17901c565b600c80546001600160801b03908116600160801b600f94850b929092168202179091556009546200037b926200022b928204810b91900b6200042d602090811b620018ea17901c565b600d8054600f9290920b6001600160801b03166001600160801b0319909216919091179055600580546001600160a01b031916331790556200074b565b600081620003c557600080fd5b6000620003d38484620004c1565b905060016001607f1b036001600160801b0382161115620003f357600080fd5b9392505050565b600060016001603f1b031982121580156200041c575060016001603f1b038213155b6200042657600080fd5b5060401b90565b6000600f82810b9084900b0360016001607f1b0319811280159062000459575060016001607f1b038113155b620003f357600080fd5b600081600f0b600014156200047757600080fd5b600082600f0b604085600f0b901b8162000495576200049562000735565b05905060016001607f1b0319811280159062000459575060016001607f1b03811315620003f357600080fd5b600081620004ce57600080fd5b60006001600160c01b038411620004fe5782604085901b81620004f557620004f562000735565b04905062000627565b60c084811c640100000000811062000518576020918201911c5b6201000081106200052b576010918201911c5b61010081106200053d576008918201911c5b601081106200054e576004918201911c5b600481106200055f576002918201911c5b600281106200056f576001820191505b60bf820360018603901c6001018260ff0387901b8162000593576200059362000735565b0492506001600160801b03831115620005ab57600080fd5b608085901c83026001600160801b038616840260c088901c604089901b82811015620005d8576001820391505b608084901b92900382811015620005f0576001820391505b829003608084901c82146200060957620006096200071f565b8881816200061b576200061b62000735565b04870196505050505050505b6001600160801b03811115620003f357600080fd5b8280546200064a90620006e2565b90600052602060002090601f0160209004810192826200066e5760008555620006b9565b82601f106200068957805160ff1916838001178555620006b9565b82800160010185558215620006b9579182015b82811115620006b95782518255916020019190600101906200069c565b50620006c7929150620006cb565b5090565b5b80821115620006c75760008155600101620006cc565b600181811c90821680620006f757607f821691505b602082108114156200071957634e487b7160e01b600052602260045260246000fd5b50919050565b634e487b7160e01b600052600160045260246000fd5b634e487b7160e01b600052601260045260246000fd5b613b7d806200075b6000396000f3fe608060405234801561001057600080fd5b50600436106101735760003560e01c806370a08231116100de578063b7d19fc411610097578063c45a015511610071578063c45a015514610353578063d3b5dc3b14610335578063d66bd52414610366578063dd62ed3e1461038657600080fd5b8063b7d19fc414610322578063ba9a7a5614610335578063c0c53b8b1461033e57600080fd5b806370a08231146102a557806395d89b41146102ce5780639c8f9f23146102d6578063a457c2d7146102e9578063a9059cbb146102fc578063ac41865a1461030f57600080fd5b80632ad4db29116101305780632ad4db2914610237578063313ce5671461024a5780633950935114610259578063422f10431461026c5780635e1e63251461027f5780635f64b55b1461029257600080fd5b806306fdde0314610178578063095ea7b3146101965780630eeadf07146101b95780630fc63d10146101e757806318160ddd1461021257806323b872dd14610224575b600080fd5b6101806103bf565b60405161018d91906138be565b60405180910390f35b6101a96101a4366004613750565b610451565b604051901515815260200161018d565b6101cc6101c7366004613750565b610468565b6040805193845260208401929092529082015260600161018d565b6006546101fa906001600160a01b031681565b6040516001600160a01b03909116815260200161018d565b6002545b60405190815260200161018d565b6101a9610232366004613714565b61051f565b6102166102453660046137da565b6105ce565b6040516012815260200161018d565b6101a9610267366004613750565b610918565b61021661027a36600461382f565b610954565b61021661028d3660046137b5565b610e28565b6007546101fa906001600160a01b031681565b6102166102b336600461368c565b6001600160a01b031660009081526020819052604090205490565b610180611358565b6101cc6102e436600461379c565b611367565b6101a96102f7366004613750565b6115de565b6101a961030a366004613750565b611677565b61021661031d3660046136a7565b611684565b6008546101fa906001600160a01b031681565b6102166103e881565b61035161034c3660046136da565b6117c8565b005b6005546101fa906001600160a01b031681565b61021661037436600461368c565b60106020526000908152604090205481565b6102166103943660046136a7565b6001600160a01b03918216600090815260016020908152604080832093909416825291909152205490565b6060600380546103ce90613aca565b80601f01602080910402602001604051908101604052809291908181526020018280546103fa90613aca565b80156104475780601f1061041c57610100808354040283529160200191610447565b820191906000526020600020905b81548152906001019060200180831161042a57829003601f168201915b5050505050905090565b600061045e338484611976565b5060015b92915050565b6006546001600160a01b039081166000908152601060205260408082205492851682528120549091829182916104a8916104a29190611879565b85611a9b565b6007546001600160a01b039081166000908152601060205260408082205492891682529020549194506104df916104a29190611879565b6008546001600160a01b03908116600090815260106020526040808220549289168252902054919350610516916104a29190611879565b90509250925092565b600061052c848484611b03565b6001600160a01b0384166000908152600160209081526040808320338452909152902054828110156105b65760405162461bcd60e51b815260206004820152602860248201527f45524332303a207472616e7366657220616d6f756e74206578636565647320616044820152676c6c6f77616e636560c01b60648201526084015b60405180910390fd5b6105c38533858403611976565b506001949350505050565b6000600f546001146105f25760405162461bcd60e51b81526004016105ad906138f1565b6000600f8190556106038686611684565b9050600087116106515760405162461bcd60e51b8152602060048201526019602482015278125394d551919250d251539517d25394155517d05353d55395603a1b60448201526064016105ad565b61065c878787610e28565b915060008761067384670de0b6b3a7640000613a45565b61067d9190613935565b90506106958282610690876103e8611879565b611cd3565b6106e15760405162461bcd60e51b815260206004820152601960248201527f4e4f545f454e4f5547485f534c4950504147455f4c4556454c0000000000000060448201526064016105ad565b6001600160a01b03861660009081526010602052604090205483106107485760405162461bcd60e51b815260206004820152601a60248201527f494e53554646494349454e545f4f55545055545f414d4f554e5400000000000060448201526064016105ad565b6040516323b872dd60e01b81526001600160a01b038816906323b872dd9061077890339030908d9060040161389a565b602060405180830381600087803b15801561079257600080fd5b505af11580156107a6573d6000803e3d6000fd5b505050506040513d601f19601f820116820180604052508101906107ca919061377a565b506001600160a01b0387166000908152601060205260409020546107ef90899061391d565b6001600160a01b03808916600090815260106020526040808220939093559088168152205461081f908490613a64565b6001600160a01b038781166000818152601060205260409081902093909355915163a9059cbb60e01b815290871660048201526024810185905263a9059cbb90604401602060405180830381600087803b15801561087c57600080fd5b505af1158015610890573d6000803e3d6000fd5b505050506040513d601f19601f820116820180604052508101906108b4919061377a565b5060408051898152602081018590526001600160a01b038981168284015288166060820152905133917f4bef092c4d89156b79870894531231803501f7105bf07ea9f24304c70460cc3c919081900360800190a250506001600f5595945050505050565b3360008181526001602090815260408083206001600160a01b0387168452909152812054909161045e91859061094f90869061391d565b611976565b6000600f546001146109785760405162461bcd60e51b81526004016105ad906138f1565b6000600f55831580159061098c5750600083115b80156109985750600082115b6109e05760405162461bcd60e51b8152602060048201526019602482015278125394d551919250d251539517d25394155517d05353d55395603a1b60448201526064016105ad565b6002546109f9576109f460006103e8611d2c565b610b3a565b6006546001600160a01b031660009081526010602052604090205415801590610a3b57506007546001600160a01b031660009081526010602052604090205415155b8015610a6057506008546001600160a01b031660009081526010602052604090205415155b610aac5760405162461bcd60e51b815260206004820152601d60248201527f494e53554646494349454e545f4c49515549444954595f414d4f554e5400000060448201526064016105ad565b6008546000908190610ac7906001600160a01b031685610468565b50600e549193509150610ae09083908890600f0b611cd3565b8015610afa5750600e54610afa9082908790600f0b611cd3565b610b375760405162461bcd60e51b815260206004820152600e60248201526d4d49534d415443485f524154494f60901b60448201526064016105ad565b50505b6006546040516323b872dd60e01b81526001600160a01b03909116906323b872dd90610b6e9033903090899060040161389a565b602060405180830381600087803b158015610b8857600080fd5b505af1158015610b9c573d6000803e3d6000fd5b505050506040513d601f19601f82011682018060405250810190610bc0919061377a565b506007546040516323b872dd60e01b81526001600160a01b03909116906323b872dd90610bf59033903090889060040161389a565b602060405180830381600087803b158015610c0f57600080fd5b505af1158015610c23573d6000803e3d6000fd5b505050506040513d601f19601f82011682018060405250810190610c47919061377a565b506008546040516323b872dd60e01b81526001600160a01b03909116906323b872dd90610c7c9033903090879060040161389a565b602060405180830381600087803b158015610c9657600080fd5b505af1158015610caa573d6000803e3d6000fd5b505050506040513d601f19601f82011682018060405250810190610cce919061377a565b506006546001600160a01b0316600090815260106020526040902054610cf590859061391d565b6006546001600160a01b039081166000908152601060205260408082209390935560075490911681522054610d2b90849061391d565b6007546001600160a01b039081166000908152601060205260408082209390935560085490911681522054610d6190839061391d565b6008546001600160a01b0316600090815260106020526040902055610d863383611d2c565b610d8e611e0b565b600d60106101000a8154816001600160801b030219169083600f0b6001600160801b031602179055507f9b776d199f09c774f5b205c9bc2ac6f40d508c347aaea919867eeaf06ebef0e9848484610df9600d60109054906101000a9004600f0b6402540be400611a9b565b60408051948552602085019390935291830152606082015260800160405180910390a1506001600f5592915050565b60065460009081906012906001600160a01b0386811691161415610fea576007546001600160a01b0385811691161415610f35576006546001600160a01b0316600090815260106020526040902054610ea690610e8690889061391d565b6007546001600160a01b0316600090815260106020526040902054611f89565b9150600760009054906101000a90046001600160a01b03166001600160a01b031663313ce5676040518163ffffffff1660e01b815260040160206040518083038186803b158015610ef657600080fd5b505afa158015610f0a573d6000803e3d6000fd5b505050506040513d601f19601f82011682018060405250810190610f2e919061385b565b905061128d565b6008546001600160a01b0385811691161415610fe5576006546001600160a01b0316600090815260106020526040902054610f9590610f7590889061391d565b6007546001600160a01b0316600090815260106020526040902054612111565b9150600860009054906101000a90046001600160a01b03166001600160a01b031663313ce5676040518163ffffffff1660e01b815260040160206040518083038186803b158015610ef657600080fd5b61128d565b6007546001600160a01b0386811691161415611110576006546001600160a01b03858116911614156110b0576007546001600160a01b03166000908152601060205260409020546110609061104090889061391d565b6006546001600160a01b0316600090815260106020526040902054611f89565b9150600660009054906101000a90046001600160a01b03166001600160a01b031663313ce5676040518163ffffffff1660e01b815260040160206040518083038186803b158015610ef657600080fd5b6008546001600160a01b0385811691161415610fe5576007546001600160a01b0316600090815260106020526040902054610f95906110f090889061391d565b6006546001600160a01b0316600090815260106020526040902054612111565b6008546001600160a01b038681169116141561128d576006546001600160a01b0385811691161415611194576008546001600160a01b03166000908152601060205260409020546110609061116690889061391d565b6006546001600160a01b0390811660009081526010602052604080822054600754909316825290205461224b565b6007546001600160a01b038581169116141561128d576008546001600160a01b0316600090815260106020526040902054611202906111d490889061391d565b6007546001600160a01b0390811660009081526010602052604080822054600654909316825290205461224b565b9150600760009054906101000a90046001600160a01b03166001600160a01b031663313ce5676040518163ffffffff1660e01b815260040160206040518083038186803b15801561125257600080fd5b505afa158015611266573d6000803e3d6000fd5b505050506040513d601f19601f8201168201806040525081019061128a919061385b565b90505b60038160ff16106112ca576112c3826112a7600384613a7b565b6112b290600a61399a565b6112be906103e5613a45565b611a9b565b92506112ff565b6112fc6112f4836112ef6112df856003613a7b565b6112ea90600a61399a565b6123b6565b61191e565b6103e5611a9b565b92505b6000831161134f5760405162461bcd60e51b815260206004820152601760248201527f494e53554646494349454e545f4f55545f414d4f554e5400000000000000000060448201526064016105ad565b50509392505050565b6060600480546103ce90613aca565b6000806000600f5460011461138e5760405162461bcd60e51b81526004016105ad906138f1565b6000600f55836113e05760405162461bcd60e51b815260206004820152601c60248201527f494e53554646494349454e545f57495448445241575f414d4f554e540000000060448201526064016105ad565b6114156113f5856113f060025490565b611879565b6008546001600160a01b0316600090815260106020526040902054611a9b565b60085490915061142e906001600160a01b031682610468565b50909350915061143f33308661051f565b5061144a30856123cd565b600654611461906001600160a01b03163385612513565b600754611478906001600160a01b03163384612513565b60085461148f906001600160a01b03163383612513565b6006546001600160a01b03166000908152601060205260409020546114b5908490613a64565b6006546001600160a01b0390811660009081526010602052604080822093909355600754909116815220546114eb908390613a64565b6007546001600160a01b039081166000908152601060205260408082209390935560085490911681522054611521908290613a64565b6008546001600160a01b0316600090815260106020526040902055611544611e0b565b600d60106101000a8154816001600160801b030219169083600f0b6001600160801b031602179055507fb088a38065873c9d2da855cf4a2e4aa012b28e45ead53c5b9edbcf71614cfb238383836115af600d60109054906101000a9004600f0b6402540be400611a9b565b60408051948552602085019390935291830152606082015260800160405180910390a16001600f559193909250565b3360009081526001602090815260408083206001600160a01b0386168452909152812054828110156116605760405162461bcd60e51b815260206004820152602560248201527f45524332303a2064656372656173656420616c6c6f77616e63652062656c6f77604482015264207a65726f60d81b60648201526084016105ad565b61166d3385858403611976565b5060019392505050565b600061045e338484611b03565b60065460009081906001600160a01b03848116911614156116e7576007546001600160a01b03858116911614156116c4576116bd612655565b90506117ae565b6008546001600160a01b03858116911614156116e2576116bd612726565b6117ae565b6007546001600160a01b0384811691161415611749576006546001600160a01b0385811691161415611728576116bd61172060016118b7565b6112ef612655565b6008546001600160a01b03858116911614156116e2576116bd611720612726565b6008546001600160a01b03848116911614156117ae576006546001600160a01b038581169116141561178a576116bd61178260016118b7565b6112ef612726565b6007546001600160a01b03858116911614156117ae576117ab611782612655565b90505b6117c081670de0b6b3a7640000611a9b565b949350505050565b6005546001600160a01b0316331461181a5760405162461bcd60e51b81526020600482015260156024820152742732b9ba32b21020a6a69d102327a92124a22222a760591b60448201526064016105ad565b600680546001600160a01b039485166001600160a01b0319918216811790925560078054948616948216851790556008805493909516921682179093556000928352601060205260408084208490559183528183208390558252812055565b60008161188557600080fd5b6000611891848461289f565b905060016001607f1b036001600160801b03821611156118b057600080fd5b9392505050565b6000677fffffffffffffff1982121580156118da5750677fffffffffffffff8213155b6118e357600080fd5b5060401b90565b6000600f82810b9084900b0360016001607f1b03198112801590611915575060016001607f1b038113155b6118b057600080fd5b600081600f0b6000141561193157600080fd5b600082600f0b604085600f0b901b8161194c5761194c613b31565b05905060016001607f1b03198112801590611915575060016001607f1b038113156118b057600080fd5b6001600160a01b0383166119d85760405162461bcd60e51b8152602060048201526024808201527f45524332303a20617070726f76652066726f6d20746865207a65726f206164646044820152637265737360e01b60648201526084016105ad565b6001600160a01b038216611a395760405162461bcd60e51b815260206004820152602260248201527f45524332303a20617070726f766520746f20746865207a65726f206164647265604482015261737360f01b60648201526084016105ad565b6001600160a01b0383811660008181526001602090815260408083209487168084529482529182902085905590518481527f8c5be1e5ebec7d5bd14f71427d1e84f3dd0314c0f7b2291e5b200ac8c7c3b92591015b60405180910390a3505050565b600081611aaa57506000610462565b600083600f0b1215611abb57600080fd5b600f83900b6001600160801b038316810260401c90608084901c026001600160c01b03811115611aea57600080fd5b60401b8119811115611afb57600080fd5b019392505050565b6001600160a01b038316611b675760405162461bcd60e51b815260206004820152602560248201527f45524332303a207472616e736665722066726f6d20746865207a65726f206164604482015264647265737360d81b60648201526084016105ad565b6001600160a01b038216611bc95760405162461bcd60e51b815260206004820152602360248201527f45524332303a207472616e7366657220746f20746865207a65726f206164647260448201526265737360e81b60648201526084016105ad565b6001600160a01b03831660009081526020819052604090205481811015611c415760405162461bcd60e51b815260206004820152602660248201527f45524332303a207472616e7366657220616d6f756e7420657863656564732062604482015265616c616e636560d01b60648201526084016105ad565b6001600160a01b03808516600090815260208190526040808220858503905591851681529081208054849290611c7890849061391d565b92505081905550826001600160a01b0316846001600160a01b03167fddf252ad1be2c89b69c2b068fc378daa952ba7f163c4a11628f55a4df523b3ef84604051611cc491815260200190565b60405180910390a35b50505050565b600080611cf2611cec611ce660016118b7565b856118ea565b86611a9b565b90506000611d12611d0c611d0660016118b7565b86612a01565b87611a9b565b90508482108015611d2257508085105b9695505050505050565b6001600160a01b038216611d825760405162461bcd60e51b815260206004820152601f60248201527f45524332303a206d696e7420746f20746865207a65726f20616464726573730060448201526064016105ad565b8060026000828254611d94919061391d565b90915550506001600160a01b03821660009081526020819052604081208054839290611dc190849061391d565b90915550506040518181526001600160a01b038316906000907fddf252ad1be2c89b69c2b068fc378daa952ba7f163c4a11628f55a4df523b3ef9060200160405180910390a35050565b6006546001600160a01b0316600081815260106020908152604080832054815163313ce56760e01b8152915193948594611ea7949293919263313ce5679260048082019391829003018186803b158015611e6457600080fd5b505afa158015611e78573d6000803e3d6000fd5b505050506040513d601f19601f82011682018060405250810190611e9c919061385b565b6113f090600a61399a565b6007546001600160a01b0316600081815260106020908152604080832054815163313ce56760e01b815291519596509294611efe949263313ce5679260048082019391829003018186803b158015611e6457600080fd5b6008546001600160a01b0316600081815260106020908152604080832054815163313ce56760e01b815291519596509294611f55949263313ce5679260048082019391829003018186803b158015611e6457600080fd5b9050611f81611f648484612a34565b600a54611f7c908490600160801b9004600f0b612a84565b612a01565b935050505090565b600080611fde84600660009054906101000a90046001600160a01b03166001600160a01b031663313ce5676040518163ffffffff1660e01b815260040160206040518083038186803b158015611e6457600080fd5b9050600061203484600760009054906101000a90046001600160a01b03166001600160a01b031663313ce5676040518163ffffffff1660e01b815260040160206040518083038186803b158015611e6457600080fd5b6008546001600160a01b0316600081815260106020908152604080832054815163313ce56760e01b81529151959650929461208b949263313ce5679260048082019391829003018186803b158015611e6457600080fd5b905060006120d56120c3600d60109054906101000a9004600f0b6120be85600a60109054906101000a9004600f0b612a84565b6118ea565b600c54600160801b9004600f0b612a84565b9050612106836120be6120fb846120be89600a60009054906101000a9004600f0b612a84565b600b54600f0b612a84565b979650505050505050565b60008061216684600660009054906101000a90046001600160a01b03166001600160a01b031663313ce5676040518163ffffffff1660e01b815260040160206040518083038186803b158015611e6457600080fd5b905060006121bc84600760009054906101000a90046001600160a01b03166001600160a01b031663313ce5676040518163ffffffff1660e01b815260040160206040518083038186803b158015611e6457600080fd5b6008546001600160a01b0316600081815260106020908152604080832054815163313ce56760e01b815291519596509294612213949263313ce5679260048082019391829003018186803b158015611e6457600080fd5b9050611d22816120be612239600d60109054906101000a9004600f0b6120be8888612a34565b600b54600160801b9004600f0b612a84565b6000806122a084600660009054906101000a90046001600160a01b03166001600160a01b031663313ce5676040518163ffffffff1660e01b815260040160206040518083038186803b158015611e6457600080fd5b905060006122f684600760009054906101000a90046001600160a01b03166001600160a01b031663313ce5676040518163ffffffff1660e01b815260040160206040518083038186803b158015611e6457600080fd5b9050600061234c87600860009054906101000a90046001600160a01b03166001600160a01b031663313ce5676040518163ffffffff1660e01b815260040160206040518083038186803b158015611e6457600080fd5b600a54909150600090612363908490600f0b612a84565b905060006123966120c3600d60109054906101000a9004600f0b6120be86600a60109054906101000a9004600f0b612a84565b90506123a9856120be6120fb84866118ea565b9998505050505050505050565b6000677fffffffffffffff8211156118e357600080fd5b6001600160a01b03821661242d5760405162461bcd60e51b815260206004820152602160248201527f45524332303a206275726e2066726f6d20746865207a65726f206164647265736044820152607360f81b60648201526084016105ad565b6001600160a01b038216600090815260208190526040902054818110156124a15760405162461bcd60e51b815260206004820152602260248201527f45524332303a206275726e20616d6f756e7420657863656564732062616c616e604482015261636560f01b60648201526084016105ad565b6001600160a01b03831660009081526020819052604081208383039055600280548492906124d0908490613a64565b90915550506040518281526000906001600160a01b038516907fddf252ad1be2c89b69c2b068fc378daa952ba7f163c4a11628f55a4df523b3ef90602001611a8e565b604080518082018252601981527f7472616e7366657228616464726573732c75696e74323536290000000000000060209182015281516001600160a01b0385811660248301526044808301869052845180840390910181526064909201845291810180516001600160e01b031663a9059cbb60e01b1790529151600092839287169161259f919061387e565b6000604051808303816000865af19150503d80600081146125dc576040519150601f19603f3d011682016040523d82523d6000602084013e6125e1565b606091505b509150915081801561260b57508051158061260b57508080602001905181019061260b919061377a565b61264e5760405162461bcd60e51b81526020600482015260146024820152731053534e881514905394d1915497d1905253115160621b60448201526064016105ad565b5050505050565b6006546001600160a01b0316600081815260106020908152604080832054815163313ce56760e01b81529151939485946126ae949293919263313ce5679260048082019391829003018186803b158015611e6457600080fd5b6007546001600160a01b0316600081815260106020908152604080832054815163313ce56760e01b815291519596509294612705949263313ce5679260048082019391829003018186803b158015611e6457600080fd5b905061271f612714838361191e565b600954600f0b612a84565b9250505090565b6006546001600160a01b0316600081815260106020908152604080832054815163313ce56760e01b815291519394859461277f949293919263313ce5679260048082019391829003018186803b158015611e6457600080fd5b6007546001600160a01b0316600081815260106020908152604080832054815163313ce56760e01b8152915195965092946127d6949263313ce5679260048082019391829003018186803b158015611e6457600080fd5b6008546001600160a01b0316600081815260106020908152604080832054815163313ce56760e01b81529151959650929461282d949263313ce5679260048082019391829003018186803b158015611e6457600080fd5b9050600061283b838561191e565b9050600061286b61286061284f60016118b7565b600a54611f7c908690600f0b612a84565b600d54600f0b612a84565b905061289561288f61287d878661191e565b600954600160801b9004600f0b612a84565b82612aa0565b9550505050505090565b6000816128ab57600080fd5b60006001600160c01b0384116128d65782604085901b816128ce576128ce613b31565b0490506129ed565b60c084811c64010000000081106128ef576020918201911c5b620100008110612901576010918201911c5b6101008110612912576008918201911c5b60108110612922576004918201911c5b60048110612932576002918201911c5b60028110612941576001820191505b60bf820360018603901c6001018260ff0387901b8161296257612962613b31565b0492506001600160801b0383111561297957600080fd5b608085901c83026001600160801b038616840260c088901c604089901b828110156129a5576001820391505b608084901b929003828110156129bc576001820391505b829003608084901c82146129d2576129d2613b05565b8881816129e1576129e1613b31565b04870196505050505050505b6001600160801b038111156118b057600080fd5b6000600f83810b9083900b0160016001607f1b03198112801590611915575060016001607f1b038113156118b057600080fd5b600a546000908190612a4a908590600f0b612a84565b600a54909150600090612a61908590600f0b612a84565b9050612a7b612a708383612a01565b600c54600f0b612a84565b95945050505050565b60006118b0612a9b612a9585612ad6565b84612aa0565b612bb6565b6000600f83810b9083900b0260401d60016001607f1b03198112801590611915575060016001607f1b038113156118b057600080fd5b60008082600f0b13612ae757600080fd5b6000600f83900b680100000000000000008112612b06576040918201911d5b6401000000008112612b1a576020918201911d5b620100008112612b2c576010918201911d5b6101008112612b3d576008918201911d5b60108112612b4d576004918201911d5b60048112612b5d576002918201911d5b60028112612b6c576001820191505b603f19820160401b600f85900b607f8490031b6001603f1b5b6000811315612bab5790800260ff81901c8281029390930192607f011c9060011d612b85565b509095945050505050565b60006840000000000000000082600f0b12612bd057600080fd5b683fffffffffffffffff1982600f0b1215612bed57506000919050565b6001607f1b60006001603f1b8416600f0b1315612c1b5770016a09e667f3bcc908b2fb1366ea957d3e0260801c5b60008367400000000000000016600f0b1315612c48577001306fe0a31b7152de8d5a46305c85edec0260801c5b60008367200000000000000016600f0b1315612c75577001172b83c7d517adcdf7c8c50eb14a791f0260801c5b60008367100000000000000016600f0b1315612ca25770010b5586cf9890f6298b92b71842a983630260801c5b60008367080000000000000016600f0b1315612ccf577001059b0d31585743ae7c548eb68ca417fd0260801c5b60008367040000000000000016600f0b1315612cfc57700102c9a3e778060ee6f7caca4f7a29bde80260801c5b60008367020000000000000016600f0b1315612d295770010163da9fb33356d84a66ae336dcdfa3f0260801c5b60008367010000000000000016600f0b1315612d5657700100b1afa5abcbed6129ab13ec11dc95430260801c5b600083668000000000000016600f0b1315612d825770010058c86da1c09ea1ff19d294cf2f679b0260801c5b600083664000000000000016600f0b1315612dae577001002c605e2e8cec506d21bfc89a23a00f0260801c5b600083662000000000000016600f0b1315612dda57700100162f3904051fa128bca9c55c31e5df0260801c5b600083661000000000000016600f0b1315612e06577001000b175effdc76ba38e31671ca9397250260801c5b600083660800000000000016600f0b1315612e3257700100058ba01fb9f96d6cacd4b180917c3d0260801c5b600083660400000000000016600f0b1315612e5e5770010002c5cc37da9491d0985c348c68e7b30260801c5b600083660200000000000016600f0b1315612e8a577001000162e525ee054754457d59952920260260801c5b600083660100000000000016600f0b1315612eb65770010000b17255775c040618bf4a4ade83fc0260801c5b6000836580000000000016600f0b1315612ee1577001000058b91b5bc9ae2eed81e9b7d4cfab0260801c5b6000836540000000000016600f0b1315612f0c57700100002c5c89d5ec6ca4d7c8acc017b7c90260801c5b6000836520000000000016600f0b1315612f375770010000162e43f4f831060e02d839a9d16d0260801c5b6000836510000000000016600f0b1315612f6257700100000b1721bcfc99d9f890ea069117630260801c5b6000836508000000000016600f0b1315612f8d5770010000058b90cf1e6d97f9ca14dbcc16280260801c5b6000836504000000000016600f0b1315612fb8577001000002c5c863b73f016468f6bac5ca2b0260801c5b6000836502000000000016600f0b1315612fe357700100000162e430e5a18f6119e3c02282a50260801c5b6000836501000000000016600f0b131561300e577001000000b1721835514b86e6d96efd1bfe0260801c5b60008364800000000016600f0b131561303857700100000058b90c0b48c6be5df846c5b2ef0260801c5b60008364400000000016600f0b13156130625770010000002c5c8601cc6b9e94213c72737a0260801c5b60008364200000000016600f0b131561308c577001000000162e42fff037df38aa2b219f060260801c5b60008364100000000016600f0b13156130b65770010000000b17217fba9c739aa5819f44f90260801c5b60008364080000000016600f0b13156130e0577001000000058b90bfcdee5acd3c1cedc8230260801c5b60008364040000000016600f0b131561310a57700100000002c5c85fe31f35a6a30da1be500260801c5b60008364020000000016600f0b13156131345770010000000162e42ff0999ce3541b9fffcf0260801c5b60008364010000000016600f0b131561315e57700100000000b17217f80f4ef5aadda455540260801c5b600083638000000016600f0b13156131875770010000000058b90bfbf8479bd5a81b51ad0260801c5b600083634000000016600f0b13156131b0577001000000002c5c85fdf84bd62ae30a74cc0260801c5b600083632000000016600f0b13156131d957700100000000162e42fefb2fed257559bdaa0260801c5b600083631000000016600f0b1315613202577001000000000b17217f7d5a7716bba4a9ae0260801c5b600083630800000016600f0b131561322b57700100000000058b90bfbe9ddbac5e109cce0260801c5b600083630400000016600f0b13156132545770010000000002c5c85fdf4b15de6f17eb0d0260801c5b600083630200000016600f0b131561327d577001000000000162e42fefa494f1478fde050260801c5b600083630100000016600f0b13156132a65770010000000000b17217f7d20cf927c8e94c0260801c5b6000836280000016600f0b13156132ce577001000000000058b90bfbe8f71cb4e4b33d0260801c5b6000836240000016600f0b13156132f657700100000000002c5c85fdf477b662b269450260801c5b6000836220000016600f0b131561331e5770010000000000162e42fefa3ae53369388c0260801c5b6000836210000016600f0b131561334657700100000000000b17217f7d1d351a389d400260801c5b6000836208000016600f0b131561336e5770010000000000058b90bfbe8e8b2d3d4ede0260801c5b6000836204000016600f0b1315613396577001000000000002c5c85fdf4741bea6e77e0260801c5b6000836202000016600f0b13156133be57700100000000000162e42fefa39fe95583c20260801c5b6000836201000016600f0b13156133e6577001000000000000b17217f7d1cfb72b45e10260801c5b60008361800016600f0b131561340d57700100000000000058b90bfbe8e7cc35c3f00260801c5b60008361400016600f0b13156134345770010000000000002c5c85fdf473e242ea380260801c5b60008361200016600f0b131561345b577001000000000000162e42fefa39f02b772c0260801c5b60008361100016600f0b13156134825770010000000000000b17217f7d1cf7d83c1a0260801c5b60008361080016600f0b13156134a9577001000000000000058b90bfbe8e7bdcbe2e0260801c5b60008361040016600f0b13156134d057700100000000000002c5c85fdf473dea871f0260801c5b60008361020016600f0b13156134f75770010000000000000162e42fefa39ef44d910260801c5b60008361010016600f0b131561351e57700100000000000000b17217f7d1cf79e9490260801c5b600083608016600f0b13156135445770010000000000000058b90bfbe8e7bce5440260801c5b600083604016600f0b131561356a577001000000000000002c5c85fdf473de6eca0260801c5b600083602016600f0b131561359057700100000000000000162e42fefa39ef366f0260801c5b600083601016600f0b13156135b6577001000000000000000b17217f7d1cf79afa0260801c5b600083600816600f0b13156135dc57700100000000000000058b90bfbe8e7bcd6d0260801c5b600083600416600f0b13156136025770010000000000000002c5c85fdf473de6b20260801c5b600083600216600f0b1315613628577001000000000000000162e42fefa39ef3580260801c5b600083600116600f0b131561364e5770010000000000000000b17217f7d1cf79ab0260801c5b600f83810b60401d603f03900b1c60016001607f1b0381111561046257600080fd5b80356001600160a01b038116811461368757600080fd5b919050565b60006020828403121561369e57600080fd5b6118b082613670565b600080604083850312156136ba57600080fd5b6136c383613670565b91506136d160208401613670565b90509250929050565b6000806000606084860312156136ef57600080fd5b6136f884613670565b925061370660208501613670565b915061051660408501613670565b60008060006060848603121561372957600080fd5b61373284613670565b925061374060208501613670565b9150604084013590509250925092565b6000806040838503121561376357600080fd5b61376c83613670565b946020939093013593505050565b60006020828403121561378c57600080fd5b815180151581146118b057600080fd5b6000602082840312156137ae57600080fd5b5035919050565b6000806000606084860312156137ca57600080fd5b8335925061370660208501613670565b600080600080600060a086880312156137f257600080fd5b8535945061380260208701613670565b935061381060408701613670565b925061381e60608701613670565b949793965091946080013592915050565b60008060006060848603121561384457600080fd5b505081359360208301359350604090920135919050565b60006020828403121561386d57600080fd5b815160ff811681146118b057600080fd5b60008251613890818460208701613a9e565b9190910192915050565b6001600160a01b039384168152919092166020820152604081019190915260600190565b60208152600082518060208401526138dd816040850160208701613a9e565b601f01601f19169190910160400192915050565b60208082526012908201527113995cdd1959081053534e881313d0d2d15160721b604082015260600190565b6000821982111561393057613930613b1b565b500190565b60008261395257634e487b7160e01b600052601260045260246000fd5b500490565b600181815b8085111561399257816000190482111561397857613978613b1b565b8085161561398557918102915b93841c939080029061395c565b509250929050565b60006118b060ff8416836000826139b357506001610462565b816139c057506000610462565b81600181146139d657600281146139e0576139fc565b6001915050610462565b60ff8411156139f1576139f1613b1b565b50506001821b610462565b5060208310610133831016604e8410600b8410161715613a1f575081810a610462565b613a298383613957565b8060001904821115613a3d57613a3d613b1b565b029392505050565b6000816000190483118215151615613a5f57613a5f613b1b565b500290565b600082821015613a7657613a76613b1b565b500390565b600060ff821660ff841680821015613a9557613a95613b1b565b90039392505050565b60005b83811015613ab9578181015183820152602001613aa1565b83811115611ccd5750506000910152565b600181811c90821680613ade57607f821691505b60208210811415613aff57634e487b7160e01b600052602260045260246000fd5b50919050565b634e487b7160e01b600052600160045260246000fd5b634e487b7160e01b600052601160045260246000fd5b634e487b7160e01b600052601260045260246000fdfea26469706673582212208cfd3474424e85f5fa8e118bf8ae37b6e7372cec9bf654d9e98f1b25755a1f9d64736f6c63430008070033",
  "immutableReferences": {},
  "source": "// SPDX-License-Identifier: MIT\npragma solidity >=0.4.22 <0.9.0;\n\nimport {IERC20} from \"@openzeppelin/contracts/token/ERC20/IERC20.sol\";\nimport {IERC20Metadata} from \"@openzeppelin/contracts/token/ERC20/extensions/IERC20Metadata.sol\";\nimport \"@openzeppelin/contracts/token/ERC20/ERC20.sol\";\nimport \"./ABDKMath64x64.sol\";\n\n\ncontract NestedAMMPool is IERC20, ERC20 {\n    uint public constant precision = 1000;\n    uint public constant MINIMUM_LIQUIDITY = 10**3;\n    bytes4 private constant SELECTOR = bytes4(keccak256(bytes('transfer(address,uint256)')));\n\n    address public factory;\n    address public tokenA;\n    address public tokenB;\n    address public tokenY;\n\n    int128 sigma;\n    int128 eta;\n\n    int128 one_minus_sigma;\n    int128 one_minus_eta;\n    int128 reverse_sigma;\n    int128 reverse_eta;\n    int128 eta_to_sigma;\n    int128 sigma_to_eta;\n    int128 eta_minus_sigma;\n\n    int128 mu; // constant curve\n    int128 mme; // maximum margin of error\n\n    uint private unlocked = 1;\n\n    mapping(address => uint) public reserves;\n\n    modifier lock() {\n        require(unlocked == 1, 'Nested AMM: LOCKED');\n        unlocked = 0;\n        _;\n        unlocked = 1;\n    }\n\n    function _safeTransfer(\n        address token,\n        address to,\n        uint value\n    ) private {\n        (bool success, bytes memory data) = token.call(\n            abi.encodeWithSelector(SELECTOR, to, value)\n        );\n        require(\n            success && (data.length == 0 || abi.decode(data, (bool))),\n            \"AMM: TRANSFER_FAILED\"\n        );\n    }\n\n    event Deposit(uint amountA, uint amountB, uint amountY, uint muLast);\n\n    event Withdraw(\n        uint amountA,\n        uint amountB,\n        uint amountY,\n        uint muLast\n    );\n\n    event Swap(\n        uint amountIn,\n        uint amountOut,\n        address tokenIn,\n        address tokenOut,\n        address indexed sender\n    );\n\n    constructor() ERC20(\"LP Token\", \"LPT\") {\n        sigma = ABDKMath64x64.divu(200, precision);\n        eta = ABDKMath64x64.divu(800, precision);\n        mme = ABDKMath64x64.divu(5, precision);\n\n        one_minus_sigma = ABDKMath64x64.sub(ABDKMath64x64.fromInt(1), sigma);\n        one_minus_eta = ABDKMath64x64.sub(ABDKMath64x64.fromInt(1), eta);\n\n        reverse_sigma = ABDKMath64x64.div(\n            ABDKMath64x64.fromInt(1),\n            one_minus_sigma\n        );\n        reverse_eta = ABDKMath64x64.div(\n            ABDKMath64x64.fromInt(1),\n            one_minus_eta\n        );\n\n        eta_to_sigma = ABDKMath64x64.div(one_minus_eta, one_minus_sigma);\n        sigma_to_eta = ABDKMath64x64.div(one_minus_sigma, one_minus_eta);\n\n        eta_minus_sigma = ABDKMath64x64.div(\n            ABDKMath64x64.sub(eta, sigma),\n            one_minus_sigma\n        );\n\n        factory = msg.sender;\n    }\n\n    function initialize(address _tokenA, address _tokenB, address _tokenY) external {\n        require(msg.sender == factory, 'Nested AMM: FORBIDDEN'); // sufficient check\n        tokenA = _tokenA;\n        tokenB = _tokenB;\n        tokenY = _tokenY;\n\n        reserves[_tokenA] = 0;\n        reserves[_tokenB] = 0;\n        reserves[_tokenY] = 0;\n    }\n\n    function getPow(int128 x, int128 p) private pure returns (int128) {\n        return\n            ABDKMath64x64.exp_2(ABDKMath64x64.mul(ABDKMath64x64.log_2(x), p));\n    }\n\n    function getAplusB(int128 a, int128 b) private view returns (int128) {\n        int128 aexp = getPow(a, one_minus_sigma);\n        int128 bexp = getPow(b, one_minus_sigma);\n\n        return getPow(ABDKMath64x64.add(aexp, bexp), eta_to_sigma);\n    }\n\n    function muFunction() private view returns (int128) {\n        int128 a = ABDKMath64x64.divu(\n            reserves[tokenA],\n            10**IERC20Metadata(tokenA).decimals()\n        );\n        int128 b = ABDKMath64x64.divu(\n            reserves[tokenB],\n            10**IERC20Metadata(tokenB).decimals()\n        );\n        int128 y = ABDKMath64x64.divu(\n            reserves[tokenY],\n            10**IERC20Metadata(tokenY).decimals()\n        );\n\n        return ABDKMath64x64.add(getAplusB(a, b), getPow(y, one_minus_eta));\n    }\n\n    function getAtoYAmount(uint _a, uint _b)\n        private\n        view\n        returns (int128 amountOut)\n    {\n        int128 a = ABDKMath64x64.divu(_a, 10**IERC20Metadata(tokenA).decimals());\n        int128 b = ABDKMath64x64.divu(_b, 10**IERC20Metadata(tokenB).decimals());\n        int128 y = ABDKMath64x64.divu(\n            reserves[tokenY],\n            10**IERC20Metadata(tokenY).decimals()\n        );\n\n        return\n            ABDKMath64x64.sub(\n                y,\n                getPow(ABDKMath64x64.sub(mu, getAplusB(a, b)), reverse_eta)\n            );\n    }\n\n    function getYtoAAmount(\n        uint _y,\n        uint _a,\n        uint _b\n    ) private view returns (int128 amountOut) {\n        int128 a = ABDKMath64x64.divu(_a, 10**IERC20Metadata(tokenA).decimals());\n        int128 b = ABDKMath64x64.divu(_b, 10**IERC20Metadata(tokenB).decimals());\n        int128 y = ABDKMath64x64.divu(_y, 10**IERC20Metadata(tokenY).decimals());\n\n        int128 bexp = getPow(b, one_minus_sigma);\n        int128 temp = getPow(\n            ABDKMath64x64.sub(mu, getPow(y, one_minus_eta)),\n            sigma_to_eta\n        );\n\n        return\n            ABDKMath64x64.sub(\n                a,\n                getPow(ABDKMath64x64.sub(temp, bexp), reverse_sigma)\n            );\n    }\n\n    function getAtoBAmount(uint _a, uint _b)\n        private\n        view\n        returns (int128 amountOut)\n    {\n        int128 a = ABDKMath64x64.divu(_a, 10**IERC20Metadata(tokenA).decimals());\n        int128 b = ABDKMath64x64.divu(_b, 10**IERC20Metadata(tokenB).decimals());\n        int128 y = ABDKMath64x64.divu(\n            reserves[tokenY],\n            10**IERC20Metadata(tokenY).decimals()\n        );\n        int128 temp = getPow(\n            ABDKMath64x64.sub(mu, getPow(y, one_minus_eta)),\n            sigma_to_eta\n        );\n        return\n            ABDKMath64x64.sub(\n                b,\n                getPow(\n                    ABDKMath64x64.sub(temp, getPow(a, one_minus_sigma)),\n                    reverse_sigma\n                )\n            );\n    }\n\n    function getAtoBPrice() private view returns (int128 price) {\n        int128 a = ABDKMath64x64.divu(\n            reserves[tokenA],\n            10**IERC20Metadata(tokenA).decimals()\n        );\n        int128 b = ABDKMath64x64.divu(\n            reserves[tokenB],\n            10**IERC20Metadata(tokenB).decimals()\n        );\n\n        price = getPow(ABDKMath64x64.div(a, b), sigma);\n    }\n\n    function getAtoYPrice() private view returns (int128 price) {\n        int128 a = ABDKMath64x64.divu(\n            reserves[tokenA],\n            10**IERC20Metadata(tokenA).decimals()\n        );\n        int128 b = ABDKMath64x64.divu(\n            reserves[tokenB],\n            10**IERC20Metadata(tokenB).decimals()\n        );\n        int128 y = ABDKMath64x64.divu(\n            reserves[tokenY],\n            10**IERC20Metadata(tokenY).decimals()\n        );\n\n        int128 r = ABDKMath64x64.div(b, a);\n        int128 k = getPow(\n            ABDKMath64x64.add(\n                ABDKMath64x64.fromInt(1),\n                getPow(r, one_minus_sigma)\n            ),\n            eta_minus_sigma\n        );\n\n        price = ABDKMath64x64.mul(getPow(ABDKMath64x64.div(a, y), eta), k);\n    }\n\n    function checkLimit(\n        uint baseAmount,\n        uint realAmount,\n        int128 limit\n    ) private pure returns (bool) {\n        uint lowerLimit = ABDKMath64x64.mulu(\n            ABDKMath64x64.sub(ABDKMath64x64.fromInt(1), limit),\n            baseAmount\n        );\n        uint upperLimit = ABDKMath64x64.mulu(\n            ABDKMath64x64.add(ABDKMath64x64.fromInt(1), limit),\n            baseAmount\n        );\n\n        return (lowerLimit < realAmount) && (realAmount < upperLimit);\n    }\n\n    function getAmountsAddToken(address token, uint amount)\n        public\n        view\n        returns (\n            uint addAmountA,\n            uint addAmountB,\n            uint addAmountY\n        )\n    {\n        addAmountA = ABDKMath64x64.mulu(\n            ABDKMath64x64.divu(reserves[tokenA], reserves[token]),\n            amount\n        );\n        addAmountB = ABDKMath64x64.mulu(\n            ABDKMath64x64.divu(reserves[tokenB], reserves[token]),\n            amount\n        );\n        addAmountY = ABDKMath64x64.mulu(\n            ABDKMath64x64.divu(reserves[tokenY], reserves[token]),\n            amount\n        );\n    }\n\n    function getPrice(address tokenIn, address tokenOut)\n        public\n        view\n        returns (uint256 price)\n    {\n        int128 _price;\n        if (tokenOut == tokenA) {\n            if (tokenIn == tokenB) {\n                _price = getAtoBPrice();\n            } else if (tokenIn == tokenY) {\n                _price = getAtoYPrice();\n            }\n        } else if (tokenOut == tokenB) {\n            if (tokenIn == tokenA) {\n                _price = ABDKMath64x64.div(\n                    ABDKMath64x64.fromInt(1),\n                    getAtoBPrice()\n                );\n            } else if (tokenIn == tokenY) {\n                _price = ABDKMath64x64.div(getAtoYPrice(), getAtoBPrice());\n            }\n        } else if (tokenOut == tokenY) {\n            if (tokenIn == tokenA) {\n                _price = ABDKMath64x64.div(\n                    ABDKMath64x64.fromInt(1),\n                    getAtoYPrice()\n                );\n            } else if (tokenIn == tokenB) {\n                _price = ABDKMath64x64.div(getAtoBPrice(), getAtoYPrice());\n            }\n        }\n\n        price = ABDKMath64x64.mulu(_price, 10**18);\n    }\n\n    function getAmountOut(\n        uint amountIn,\n        address tokenIn,\n        address tokenOut\n    ) public view returns (uint256 amountOut) {\n        int128 res = 0;\n        uint8 decimal = 18;\n\n        if (tokenIn == tokenA) {\n            if (tokenOut == tokenB) {\n                res = getAtoBAmount(\n                    reserves[tokenA] + amountIn,\n                    reserves[tokenB]\n                );\n                decimal = IERC20Metadata(tokenB).decimals();\n            } else if (tokenOut == tokenY) {\n                res = getAtoYAmount(\n                    reserves[tokenA] + amountIn,\n                    reserves[tokenB]\n                );\n                decimal = IERC20Metadata(tokenY).decimals();\n            }\n        } else if (tokenIn == tokenB) {\n            if (tokenOut == tokenA) {\n                res = getAtoBAmount(\n                    reserves[tokenB] + amountIn,\n                    reserves[tokenA]\n                );\n                decimal = IERC20Metadata(tokenA).decimals();\n            } else if (tokenOut == tokenY) {\n                res = getAtoYAmount(\n                    reserves[tokenB] + amountIn,\n                    reserves[tokenA]\n                );\n                decimal = IERC20Metadata(tokenY).decimals();\n            }\n        } else if (tokenIn == tokenY) {\n            if (tokenOut == tokenA) {\n                res = getYtoAAmount(\n                    reserves[tokenY] + amountIn,\n                    reserves[tokenA],\n                    reserves[tokenB]\n                );\n                decimal = IERC20Metadata(tokenA).decimals();\n            } else if (tokenOut == tokenB) {\n                res = getYtoAAmount(\n                    reserves[tokenY] + amountIn,\n                    reserves[tokenB],\n                    reserves[tokenA]\n                );\n                decimal = IERC20Metadata(tokenB).decimals();\n            }\n        }\n\n        // Swap fee: 0.3%\n        if (decimal >= 3) {\n            amountOut = ABDKMath64x64.mulu(res, 997 * 10**(decimal - 3));\n        } else {\n            amountOut = ABDKMath64x64.mulu(\n                    ABDKMath64x64.div(\n                        res,\n                        ABDKMath64x64.fromUInt(10**(3 - decimal))\n                    ),\n                    997\n                );\n        }\n\n        require(amountOut > 0, \"INSUFFICIENT_OUT_AMOUNT\");\n\n        return amountOut;\n    }\n\n    function addLiquidity(\n        uint amountA,\n        uint amountB,\n        uint amountY\n    ) external lock returns (uint liquidity) {\n        require(amountA > 0 && amountB > 0 && amountY > 0, \"INSUFFICIENT_INPUT_AMOUNT\");\n\n        if (totalSupply() == 0) {\n           _mint(address(0), MINIMUM_LIQUIDITY); // permanently lock the first MINIMUM_LIQUIDITY tokens\n        } else {\n            require(\n                reserves[tokenA] > 0 &&\n                    reserves[tokenB] > 0 &&\n                    reserves[tokenY] > 0,\n                \"INSUFFICIENT_LIQUIDITY_AMOUNT\"\n            );\n\n            (uint delta_a, uint delta_b, ) = getAmountsAddToken(\n                tokenY,\n                amountY\n            );\n\n            require(\n                checkLimit(delta_a, amountA, mme) &&\n                    checkLimit(delta_b, amountB, mme),\n                \"MISMATCH_RATIO\"\n            );\n        }\n\n        IERC20(tokenA).transferFrom(msg.sender, address(this), amountA);\n        IERC20(tokenB).transferFrom(msg.sender, address(this), amountB);\n        IERC20(tokenY).transferFrom(msg.sender, address(this), amountY);\n\n        reserves[tokenA] = reserves[tokenA] + amountA;\n        reserves[tokenB] = reserves[tokenB] + amountB;\n        reserves[tokenY] = reserves[tokenY] + amountY;\n\n        _mint(msg.sender, amountY);\n\n        mu = muFunction();\n\n        emit Deposit(amountA, amountB, amountY, ABDKMath64x64.mulu(mu, 10**10));\n\n        liquidity = amountY;\n    }\n\n    function removeLiquidity(uint amount) external lock returns (uint delta_a, uint delta_b, uint delta_y) {\n        require(amount > 0, \"INSUFFICIENT_WITHDRAW_AMOUNT\");\n\n        delta_y = ABDKMath64x64.mulu(\n            ABDKMath64x64.divu(amount, totalSupply()),\n            reserves[tokenY]\n        );\n\n        (delta_a, delta_b, ) = getAmountsAddToken(\n            tokenY,\n            delta_y\n        );\n\n        transferFrom(msg.sender, address(this), amount);\n        _burn(address(this), amount);\n\n        _safeTransfer(tokenA, msg.sender, delta_a);\n        _safeTransfer(tokenB, msg.sender, delta_b);\n        _safeTransfer(tokenY, msg.sender, delta_y);\n\n        reserves[tokenA] = reserves[tokenA] - delta_a;\n        reserves[tokenB] = reserves[tokenB] - delta_b;\n        reserves[tokenY] = reserves[tokenY] - delta_y;\n\n        mu = muFunction();\n\n        emit Withdraw(\n            delta_a,\n            delta_b,\n            delta_y,\n            ABDKMath64x64.mulu(mu, 10**10)\n        );\n    }\n\n    function swapToken(\n        uint amountIn,\n        address tokenIn,\n        address tokenOut,\n        address recipient,\n        uint slippage // define enum in the production\n    ) external lock returns (uint amountOut) {\n        uint price = getPrice(tokenIn, tokenOut);\n\n        require(amountIn > 0, \"INSUFFICIENT_INPUT_AMOUNT\");\n\n        amountOut = getAmountOut(amountIn, tokenIn, tokenOut);\n\n        uint realPrice = (amountOut * (10**18)) / amountIn;\n\n        require(\n            checkLimit(\n                price,\n                realPrice,\n                ABDKMath64x64.divu(slippage, precision)\n            ),\n            \"NOT_ENOUGH_SLIPPAGE_LEVEL\"\n        );\n\n        require(\n            reserves[tokenOut] > amountOut,\n            \"INSUFFICIENT_OUTPUT_AMOUNT\"\n        );\n\n        IERC20(tokenIn).transferFrom(msg.sender, address(this), amountIn);\n\n        reserves[tokenIn] = reserves[tokenIn] + amountIn;\n        reserves[tokenOut] = reserves[tokenOut] - amountOut;\n\n        IERC20(tokenOut).transfer(recipient, amountOut);\n\n        emit Swap(amountIn, amountOut, tokenIn, tokenOut, msg.sender);\n\n        return amountOut;\n    }\n}",
  "sourcePath": "/home/kevin/work_test/AMM-SmartContract/SmartContracts/contracts/NestedAMMPool.sol",
  "compiler": {
    "name": "solc",
    "version": "0.8.7+commit.e28d00a7.Emscripten.clang"
  },
  "schemaVersion": "3.4.3",
  "updatedAt": "2021-10-02T20:59:39.471Z",
  "devdoc": {
    "kind": "dev",
    "methods": {
      "allowance(address,address)": {
        "details": "See {IERC20-allowance}."
      },
      "approve(address,uint256)": {
        "details": "See {IERC20-approve}. Requirements: - `spender` cannot be the zero address."
      },
      "balanceOf(address)": {
        "details": "See {IERC20-balanceOf}."
      },
      "decimals()": {
        "details": "Returns the number of decimals used to get its user representation. For example, if `decimals` equals `2`, a balance of `505` tokens should be displayed to a user as `5.05` (`505 / 10 ** 2`). Tokens usually opt for a value of 18, imitating the relationship between Ether and Wei. This is the value {ERC20} uses, unless this function is overridden; NOTE: This information is only used for _display_ purposes: it in no way affects any of the arithmetic of the contract, including {IERC20-balanceOf} and {IERC20-transfer}."
      },
      "decreaseAllowance(address,uint256)": {
        "details": "Atomically decreases the allowance granted to `spender` by the caller. This is an alternative to {approve} that can be used as a mitigation for problems described in {IERC20-approve}. Emits an {Approval} event indicating the updated allowance. Requirements: - `spender` cannot be the zero address. - `spender` must have allowance for the caller of at least `subtractedValue`."
      },
      "increaseAllowance(address,uint256)": {
        "details": "Atomically increases the allowance granted to `spender` by the caller. This is an alternative to {approve} that can be used as a mitigation for problems described in {IERC20-approve}. Emits an {Approval} event indicating the updated allowance. Requirements: - `spender` cannot be the zero address."
      },
      "name()": {
        "details": "Returns the name of the token."
      },
      "symbol()": {
        "details": "Returns the symbol of the token, usually a shorter version of the name."
      },
      "totalSupply()": {
        "details": "See {IERC20-totalSupply}."
      },
      "transfer(address,uint256)": {
        "details": "See {IERC20-transfer}. Requirements: - `recipient` cannot be the zero address. - the caller must have a balance of at least `amount`."
      },
      "transferFrom(address,address,uint256)": {
        "details": "See {IERC20-transferFrom}. Emits an {Approval} event indicating the updated allowance. This is not required by the EIP. See the note at the beginning of {ERC20}. Requirements: - `sender` and `recipient` cannot be the zero address. - `sender` must have a balance of at least `amount`. - the caller must have allowance for ``sender``'s tokens of at least `amount`."
      }
    },
    "version": 1
  },
  "userdoc": {
    "kind": "user",
    "methods": {},
    "version": 1
  }
}